:1000000000008A110A12C42AF200030E8301F100D3
:100010000A088A01F000040883120313D10000309B
:10002000831203134A04031D9D2883120313AC019A
:10003000831203130B1D1F2883120313AC0A8312B0
:1000400003132C08013A031D3628831203130B11E6
:1000500083120313430883120313810000308312B9
:100060000313330403199D28B3039D28831203133C
:10007000AC01831203130B1C402883120313AC0A38
:10008000831203132C08013A031D842883120313DF
:100090003A08013A031D562883120313B201831252
:1000A00003138F018E0183120313BA01831203130A
:1000B000320883120313B400831203130F08831250
:1000C0000313B500831203130E0883120313B60043
:1000D00083120313B201831203138F018E01831263
:1000E0000313440883120313B30083120313460857
:1000F00083120313B90083120313430883120313FB
:1001000081000B108B119D2883120313AC01831205
:1001100003130C1C8E2883120313AC0A83120313DF
:100120002C08013A031D9D28831203130C1083121F
:1001300003133208FF3A031DB20A83120313510856
:10014000840070088A008301710E8300F20E720E23
:100150000900113083160313860007308100B9228D
:10016000831203130B110030831203134A04031D7F
:10017000BF288312031343088312031381008312E1
:1001800003134A08013A031DC928FF3083120313E1
:1001900081000030831203134A04031DD328313039
:1001A00083120313900083120313B201831203130B
:1001B0008F018E010030831203134A04031DE328CC
:1001C000831603130C1448220030831203134A04CD
:1001D0000319192283120313B20183120313440873
:1001E00083120313B300831203134508831203130E
:1001F000B900013083120313BA003C2283120313A7
:10020000B7001E22831203138B16831203134A08AE
:10021000013A031D0E29831203130B1683120313D5
:100220000B178B1764000030831203134A04031D5D
:10023000122983120313AF01831203138C1E232987
:1002400083120313AF0A831203132F08013A031D0D
:100250006D29B32283120313BD00831203134108D7
:10026000831203133D06031D37290A226D298312C9
:1002700003134B08831203133D06031D4429831205
:1002800003134B0891226D29831203134C08831228
:1002900003133D06031D4E2970226D29831203139B
:1002A0004D08831203133D06031D5F29303083126E
:1002B0000313440783120313AF0091226D298312A5
:1002C00003134E08831203133D06031D6C29B3224A
:1002D00083120313C4006D295D22831203134508A2
:1002E00083120313390603191229831203134608D4
:1002F000831203133906031DDF2900308312031311
:100300003304031D1229831203130B103C228312A2
:100310000313B8008312031337088312031338063C
:10032000031DD229831203133608831203138E0789
:1003300083120313AF0183120313031CA229831238
:100340000313AF0A831203132F08013A031DAB29CD
:10035000831203138F0A83120313350883120313C6
:100360008F0783120313AF0183120313031CBB29EE
:1003700083120313AF0A831203132F08013A031DDC
:10038000C42983120313B20A83120313340883129D
:100390000313B20783120313450883120313B90032
:1003A0001922122983120313380883120313B7008A
:1003B00083120313470883120313B900122983120F
:1003C00003134708831203133906031D12298312EE
:1003D00003134008A522831203133708A5228312B2
:1003E00003133408A522831203133508A5228312B0
:1003F00003133608A522831203134508831203133F
:10040000B9001E2219221229080083120313FF309B
:1004100087000800831203138B1183120313420811
:10042000A522831203133708A522831203138B1509
:100430000800831203130B108B150800831203139B
:10044000370800300319013083120313AD002D0C5F
:1004500003182D2A831203138610031C322A8312D9
:1004600003138614831203134A08013A031D3B2A1F
:10047000831203138614080083120313061A442AF6
:10048000831203133F08472A831203133E08080010
:1004900083120313AD01FF30831203132D020318DF
:1004A0005C2A6400FF3083120313AE00831203132F
:1004B000AE0B562AAD0A4B2A0800831203130C1EFA
:1004C0005D2A2D309900831203130C1E632A3130EC
:1004D0009900831203130C1E692A0A309900080040
:1004E000831203130C1E702A831203134F08831206
:1004F00003139900831203130C1E7A2A2E309900DD
:10050000831203130C1E802A8312031350088312D4
:1005100003139900831203130C1E8A2A0A309900D0
:10052000080083120313AD00831203130C1E942AD8
:10053000831203132D0883120313990083120313EC
:100540000C1E9E2A0A309900080083120313AD0086
:10055000831203130C1EA82A831203132D0883127F
:10056000031399000800831203138C1EB32A1A0880
:100570000800193083160313990024309800903036
:1005800083120313980008005830FE000330FF0068
:1005900080308A110A12E5238A110A12831203138A
:1005A000A1007F08A0005A30A2000330A3008312EC
:1005B00003132008A4002108A500FF30A007031C96
:1005C000A103240825040319542B04302207A40096
:1005D000A501A50D2308A5072408FE002508FF0096
:1005E00080308A110A12E5238A110A12831203133A
:1005F000A7007F08A6002208FE002308FF00803025
:100600008A110A12E5238A110A1283120313A90020
:10061000A5007F08A800A40002302207A400A501BD
:10062000A50D2308A5072408FE002508FF0080303B
:100630008A110A12E5238A110A1283120313A500F4
:10064000AB007F08A400AA00831203132608AA00A7
:100650002708AB00FF30A607031CA7032A082B04BA
:1006600003194D2B2808FE002908FF0080308A114D
:100670000A12D2238A110A1283120313AA00240831
:1006800084008313251883172A088000A80A0319F9
:10069000A90AA40A0319A50A242B063083120313FE
:1006A000A2070318A30AD72A8A110A12A928080048
:1006B00014340034063404343E340034013400343D
:1006C000073404343F340034013400340834043433
:1006D00040340034013400340934043441340034EB
:1006E000013400340A340434423400340134003418
:1006F0000B34043443340034013400340C340434F7
:1007000044340034013400340D34043445340034AE
:10071000013400340E3404344634003401340034DF
:100720000F340434473400340134003410340434BA
:100730004834003401340034113404344934003472
:1007400001340034123404344A34003401340034A7
:10075000133404344B34003401340034143404347E
:100760004C34003401340034153404344D34003436
:1007700001340034163404344E340034013400346F
:10078000173404344F340034013400341834043442
:1007900050340034013400341934043452340034F9
:1007A00001340034003A0319D92B803A0319E02BA5
:1007B00000347E08840083137F1883170008080024
:1007C0007F088A007E0882000800003A0319ED2B9A
:1007D000803A0319F72BFF0100347E08840083134D
:1007E0007F1883170008FF00840A000808008A1198
:1007F0000A12E023FD00FE0FFF03FF0A8A110A120E
:10080000E023FC007D08FF007C0808000034013470
:10081000583445344534D934053400340134023475
:100820000034003400344A34563461346234313494
:04083000313400342B
:00000001FF
