:02000000662870
:08000800A000030EA1000B197A
:100010001A280B181F280C1813280428210E8300F7
:10002000A00E200E09000C10FF30220203190E282A
:10003000A20A0E280B11D9308100A3030E28AA08AA
:1000400003192628A2018F018E01AA012208A4000B
:100050000F08A5000E08A600A2018F018E01013035
:10006000A3000130A900D930810006080B108B11C4
:100070000E2883161930990024309800831290308E
:10008000980008008C1E42281A0808000C1E4628FA
:1000900099000800FF30AB00FF30AC006400AC0BEF
:1000A0004F28AB0B4C280800061A00340134270DEA
:1000B000023A8600080006080B108B1508008B1109
:1000C00045304620270846208B150800831611303E
:1000D00086000730810039200B118312D93081004E
:1000E000831231309000A2018F018E0183160C140F
:1000F00083124A205B20A2010130A3000030A90036
:100100000130AA005420A70057208B160B178B171D
:1001100064008C1E91284220AD0045302D02031949
:100120005F200030290203199E280130290203199B
:100130009F28023029020319BD2888288828A3088F
:10014000031D882806080B105420A8002808270241
:100150000319AF282808A7000230A900882826081C
:100160008E0703188F0A25088F070318A20A240890
:10017000A2070030A9005B208828583046202708B5
:100180004620240846202508462026084620003020
:08019000A90057205B2088281C
:00000001FF
