:1000000000008A110A12DD2DF200030E8301F100B7
:100010000A088A01F000040883160313C0000030A8
:10002000831603132204031D9B2883120313A001CC
:10003000831203130B1D1F2883120313A00A8312BC
:1000400003132008013A031D3628831203130B11F2
:10005000831203136A088312031381000030831292
:100060000313590403199B28D9039B2883120313F4
:10007000A001831203130B1C402883120313A00A50
:10008000831203132008013A031D822883120313ED
:100090008B110B10831203136008013A031D5828BB
:1000A0008A150A12A4208A110A1283120313E0018E
:1000B00083120313580883120313DA008312031305
:1000C0000F0883120313DB00831203130E0883123D
:1000D0000313DC008A150A12A4208A110A12831263
:1000E00003136B0883120313D900831203136D08E3
:1000F00083120313DF00831203136A0883120313AE
:1001000081009B2883120313A001831203130C1C8C
:100110008C2883120313A00A831203132008013AC8
:10012000031D9B28831203130C108312031358081A
:10013000FF3A031DD80A83160313400883120313E2
:10014000840070088A008301710E8300F20E720E23
:1001500009001030831603138600073081008A15CA
:100160000A1287208A110A128312031392121212A2
:1001700092119214121412150B11003083160313EE
:100180002204031DC928831203136A088312031370
:100190008100831603132208013A031DD328FF3080
:1001A0008312031381000030831603132204031DFE
:1001B000DD2831308312031390008A150A12A4201F
:1001C0008A110A120030831603132204031DEB2840
:1001D000831603130C148A150A121F208A110A129F
:1001E0000030831603132204031DFB288A150A120C
:1001F000B1208A110A1283120313D8018312031348
:100200006B0883120313D900831203136C08831243
:100210000313DF00013083120313E0008A150A1272
:100220007B208A110A1283120313DD008A150A1239
:1002300035208A110A1283120313861786150614B5
:1002400006158B16831603132208013A031D2B296A
:10025000831203130B16831203130B178B178316CA
:100260000313B80183120313540883120313D0003D
:1002700083120313550883120313D1008A150A123F
:100280009C208A110A126400003083160313220492
:10029000031D432983120313C301831203138C1E0E
:1002A000542983120313C30A831203134308013A28
:1002B000031D0D2B8A110A12F9278A110A128312C3
:1002C0000313E30083120313680883120313630606
:1002D000031D70298A110A12E2278A110A120D2BB6
:1002E000831603132308831203136306031D812956
:1002F0008316031323088A150A126D208A110A1225
:100300000D2B831603132408831203136306031DA6
:100310008F298A150A1200208A110A120D2B8316C2
:1003200003132508831203136306031DA6298312F2
:1003300003136B0883120313C3003030C307430851
:100340008A150A124A208A110A120D2B83160313EA
:100350002608831203136306031DB7298A110A12A4
:10036000F9278A110A1283120313EB000D2B83164F
:1003700003132708831203136306031D1C2A8A1123
:100380000A12F9278A110A1283120313C3008A1171
:100390000A1283120313A100083021020318152A40
:1003A0000130831203138A00DE3083120313210706
:1003B000031CDD29831203138A0A8200E629EC2933
:1003C000F229F829FE29042A0A2A102A0530831264
:1003D0000313D400D501152A0A3083120313D40065
:1003E000D501152A0F3083120313D400D501152A25
:1003F000143083120313D400D501152A1930831247
:100400000313D400D501152A1E3083120313D40020
:10041000D501152A233083120313D400D501152AE0
:10042000283083120313D400D5018A110A12013037
:1004300083160313B9000D2B8316031328088312A8
:1004400003136306031D812A8A110A12F9278A11F0
:100450000A1283120313C3008A110A1283120313B0
:10046000A1000830210203187A2A023083120313F4
:100470008A004330831203132107031C422A83128C
:1004800003138A0A82004B2A512A572A5D2A632ABB
:10049000692A6F2A752A013083120313D400D5010B
:1004A0007A2A023083120313D400D5017A2A03304A
:1004B00083120313D400D5017A2A04308312031364
:1004C000D400D5017A2A053083120313D400D50154
:1004D0007A2A063083120313D400D5017A2A073012
:1004E00083120313D400D5017A2A08308312031330
:1004F000D400D5018A110A12013083160313BA0001
:100500000D2B8316031329088312031363060319A3
:10051000F92A831603132A088312031363060319A7
:10052000F92A831603132B08831203136306031996
:10053000F92A831603132C08831203136306031985
:10054000F92A831603132D08831203136306031974
:10055000F92A831603132E08831203136306031963
:10056000F92A831603132F08831203136306031952
:10057000F92A831603133008831203136306031941
:10058000F92A831603133108831203136306031930
:10059000F92A83160313320883120313630603191F
:1005A000F92A83160313330883120313630603190E
:1005B000F92A8316031334088312031363060319FD
:1005C000F92A8316031335088312031363060319EC
:1005D000F92A8316031336088312031363060319DB
:1005E000F92A831603133708831203136306031DC6
:1005F000082B013083120313EB00831203136308EB
:1006000083120313E400013083160313BB000D2B88
:100610008A150A125C208A110A12831203136C08CD
:10062000831203135F06031D3D2B83160313390842
:10063000013A031D212B8A110A121F258A110A1261
:100640004329831603133A08013A031D2D2B8A11FF
:100650000A12C5268A110A124329831603133B087E
:10066000013A031D4329013083160313BC008A118C
:100670000A120F278A110A124329831203136D08E5
:10068000831203135F06031DAF2B00308312031385
:100690005904031D4329831203130B108A150A12F0
:1006A0007B208A110A1283120313DE0083120313C4
:1006B0005D08831203135E06031DA22B831203132E
:1006C0005C08831203138E0783120313C301831282
:1006D0000313031C6E2B83120313C30A8312031329
:1006E0004308013A031D772B831203138F0A8312E9
:1006F00003135B08831203138F0783120313C301D1
:1007000083120313031C872B83120313C30A831260
:1007100003134308013A031D902B83120313D80AD5
:10072000831203135A0883120313D8078312031387
:100730006C0883120313DF008A150A12B1208A1194
:100740000A124329831203135E0883120313DD0088
:10075000831203136E0883120313DF0043298312ED
:1007600003136E08831203135F06031D43298316C8
:100770000313B90183160313B80100308316031362
:100780003C040319C82B8A150A1292208A110A12F6
:100790008312031367088A150A126D208A110A1240
:1007A000831203135D088A150A126D208A110A123A
:1007B000831203135A088A150A126D208A110A122D
:1007C000831203135B088A150A126D208A110A121C
:1007D000831203135C088A150A126D208A110A120B
:1007E000831203136C0883120313DF008A150A12A5
:1007F00035208A110A128A150A12B1208A110A12AA
:100800008A150A127B208A110A1283120313DE0052
:10081000831203135D08831203135E060319432931
:10082000831203130B14432908002C340034FF34C3
:1008300007346534003401340034BA340834663483
:10084000003401340034BB340834673400340134DC
:100850000034BC3408346834003401340034BD340E
:1008600008346934003401340034BE3408346A3446
:10087000003401340034BF3408346B3400340134A4
:100880000034C03408346C34003401340034C134D2
:1008900008346D34003401340034C23408346E340A
:1008A000003401340034C3340834A034003401343B
:1008B0000034C4340834A134003401340034C53465
:1008C0000834A234003401340034C6340834A3346C
:1008D000003401340034C7340834A4340034013403
:1008E0000034C8340834A534003401340034C93429
:1008F0000834A634003401340034CA340834A73430
:10090000003401340034CB340834A83400340134CA
:100910000034CC340834A934003401340034CD34EC
:100920000834AA34003401340034CE340834AB34F3
:10093000003401340034CF340834AC340034013492
:100940000034D0340834AD34003401340034D134B0
:100950000834AE34003401340034D2340834AF34B7
:10096000003401340034D3340834B034003401345A
:100970000034D4340834B134003401340034D53474
:100980000834B234003401340034D6340834B3347B
:10099000003401340034D7340834B4340034013422
:1009A0000034D8340834B534003401340034D93438
:1009B0000834B634003401340034DA340834B7343F
:1009C000003401340034DB340834B83400340134EA
:1009D0000034B63408345234003402340034B834AD
:1009E00008345434003402340034DC340834B9346C
:1009F000003401340034DD340834BA3400340134B6
:100A00000034DE340834BB34003401340034DF34C5
:100A10000834BC34003401340034E0340834BD34CC
:100A2000003401340034E1340834BE34003401347D
:100A30000034E2340834BF3400340134003483120B
:100A40000313A101831203138C1C292D831203139A
:100A5000A10A831203132108013A031DDC2D8A1514
:100A60000A129C208A110A12FF3083120313D00746
:100A7000031CD10350085104031DDC2D0F308316D5
:100A8000031338020318C92D0530831203138A009B
:100A90005230831603133807031C512D831203139E
:100AA0008A0A8200612D682D6F2D762D7D2D842D73
:100AB0008B2D922D992DA02DA72DAE2DB52DBC2DB2
:100AC000C32D831203138617861106140611C92D30
:100AD000831203138617861106140615C92D831277
:100AE00003138617861106100611C92D83120313EE
:100AF0008617861106100615C92D83120313861753
:100B0000861506140611C92D831203138617861540
:100B100006140615C92D83120313861786150610B1
:100B20000611C92D831203138617861506100615A4
:100B3000C92D831203138613861106140611C92DBD
:100B4000831203138613861106100615C92D83120E
:100B500003138613861106140615C92D8312031379
:100B60008613861506100611C92D831203138613EA
:100B7000861506100615C92D8312031386138615D4
:100B800006140611C92D8312031386138615061445
:100B9000061583120313540883120313D000831223
:100BA0000313550883120313D10083160313B80AE5
:100BB0000F3038020318B80108001530FE00043069
:100BC000FF0080308A110A124D278A110A128312FF
:100BD0000313C5007F08C4001730C6000430C700E7
:100BE000831203134408C8004508C900FF30C40736
:100BF000031CC503480849040319752E0430460731
:100C0000C800C901C90D4708C9074808FE004908BE
:100C1000FF0080308A110A124D278A110A128312AE
:100C20000313CB007F08CA004608FE004708FF00F8
:100C300080308A110A124D278A110A128312031377
:100C4000CD00C9007F08CC00C80002304607C800AC
:100C5000C901C90D4708C9074808FE004908FF0037
:100C600080308A110A124D278A110A128312031347
:100C7000C900CF007F08C800CE00831203134A08C2
:100C8000CE004B08CF00FF30CA07031CCB034E0831
:100C90004F0403196E2E4C08FE004D08FF008030F3
:100CA0008A110A126E278A110A1283120313CE00C8
:100CB0004808831203138400831383120313491813
:100CC00083174E0883120313800083120313CC0A88
:100CD0000319CD0AC80A0319C90A3D2E063083122A
:100CE0000313C6070318C70AF02D8A110A12A92890
:100CF000080083120313A401A501A601A701103067
:100D000083120313A8002730A900AA01AB01FF300A
:100D1000831203132807AC00FF30AD002908031825
:100D2000290FAD07FF30AE002A0803182A0FAE07BF
:100D3000FF30AF002B0803182B0FAF072C08A800BB
:100D40002D08A9002E08AA002F08AB002C082D049E
:100D50002E042F04031D872EA40A0319A50A0319C4
:100D6000A60A0319A70A2708803E803E031DC22E4B
:100D700000302602031DC22E00302502031DC22EA4
:100D800004302402031C7F2E080083120313A101E8
:100D9000831203138C1CCF2E83120313A10A831218
:100DA00003132108013A031D0E2F8A150A129C20F5
:100DB0008A110A12FF3083120313D007031CD103D8
:100DC00050085104031D0E2F83160313380803190E
:100DD000EE2E3808013A0319F92E022F831203135D
:100DE0008613861106100611013083160313B8000E
:100DF000022F83120313861386110610061583161D
:100E00000313B80183120313540883120313D00091
:100E100083120313550883120313D10008008A15A7
:100E20000A12A4208A110A12831203136408543A86
:100E30000319402F64085A3A0319452F6408723A7F
:100E400003192F2F6408733A0319332F6408743A77
:100E50000319372F6408793A03193B2F482F83125F
:100E600003130611482F831203130610482F831211
:100E700003138611482F8312031306118611482F7E
:100E80008312031386118613482F831203138613CC
:100E9000023083160313BB000800003A0319552FD4
:100EA000803A03195F2FFF0100347E08840083130A
:100EB0007F1883170008FF00840A000808008A11C1
:100EC0000A127C27FD00FE0FFF03FF0A8A110A1297
:100ED0007C27FC007D08FF007C080800003A03190D
:100EE000752F803A03197C2F00347E088400831309
:100EF0007F188317000808007F088A007E08820098
:100F0000080083120313B1007F08B000B201B301DF
:100F1000B401B501831203133008B6003108B700DD
:100F20000030B71BFF30B900B8003508803EBA006A
:100F30003908803E3A02031DA72F38083402031DEA
:100F4000A72F37083302031DA72F360832020318D4
:100F5000B32F83120313B20A0319B30A0319B40A95
:100F60000319B50A8A2F0800403083120313BB000F
:100F70009C30BC00BD01BE01FF30831203133B0750
:100F8000BF00FF30C0003C0803183C0FC007FF3013
:100F9000C1003D0803183D0FC107FF30C2003E08E5
:100FA00003183E0FC2073F08BB004008BC004108C1
:100FB000BD004208BE003F08400441044204031D36
:100FC000BC2F0800831203138B11831203136908CB
:100FD0008A150A126D208A110A12831203135D0802
:100FE0008A150A126D208A110A12831203138B15B7
:100FF0000800831203138C1EF92F1A08080000340E
:10100000831203130C1E0028831603133D0883125A
:1010100003139900831203130C1E0A282E30990023
:10102000831203130C1E1028831603133E08831229
:1010300003139900831203130C1E1A28080083124D
:101040000313A1016400FF3083120313A200831273
:1010500003132203A300A2002308031D2728A10ACB
:10106000FF302102031C22280800831203135D08AD
:1010700000300319013083120313A200220C03185D
:101080004428831203138610031C49288312031378
:101090008614080083120313A100831203130C1E8D
:1010A0004D2883120313210883120313990083121E
:1010B00003130C1E57280800831203130C1E5C2810
:1010C0002D309900831203130C1E622831309900D1
:1010D000831203130C1E6828080083120313A10057
:1010E000831203130C1E702883120313210883122A
:1010F00003139900080083120313061A832883122E
:101100000313660886288312031365080800193044
:101110008316031399002430980090308312031330
:101120009800080083120313861786150614061507
:1011300083160313BC0108008312031352088312A1
:10114000031391008C10080083120313D80183123B
:1011500003138F018E01080083120313FF308700F1
:101160000800831203130B108B1508003F34003462
:10117000A03400340134583445344534D93405346E
:101180000034013402340034003400344A3456341C
:10119000613462346C34663472347334743475344C
:1011A0007934773478345234533454345534593490
:1011B000573458345A340034003400340034003486
:0611C0003134323400342A
:00000001FF
