:1000000000008A110A129A29F200030E8301F100FE
:100010000A088A01F000040883120313D000831237
:1000200003134D08013A031D6A2883120313AF011D
:10003000831203130B1D1F2883120313AF0A8312AD
:1000400003132F08013A031D3C28831203130B11DD
:10005000ED308100831203130C1E2A288312031330
:100060004F0883120313990083120313CF018A11DF
:100070000A1232218A110A1283120313AF0183126A
:1000800003138B1C462883120313AF0A8312031336
:100090002F08013A031D6A28831203138B10831261
:1000A0000313AF0183120313061D59288312031390
:1000B000AF0A831203132F08013A031D632883122A
:1000C0000313CF0A6A288312031306196A288312BE
:1000D0000313CF03831203135008840070088A00AF
:1000E0008301710E8300F20E720E09008312031356
:1000F0004D08013A031D8B28153083160313860023
:100100000030F120831203138614FF3081000C218C
:10011000831203130B160730831603138100272164
:10012000831203130B1183120313B30183120313FE
:100130008F018E0183120313470883120313B40047
:1001400083120313480883120313BA000130831289
:100150000313BB00002183120313B8006F21831225
:1001600003138B160B178B176400831203134D08B0
:10017000013A031DB42883120313B0018312031341
:100180008C1EC52883120313B00A83120313300890
:10019000013A031DB428831203138B122121831209
:1001A0000313BE00831203134E08831203133E068B
:1001B000031DDE28831203134E088C2183120313C0
:1001C0008B16B42808000030F12083120313430873
:1001D0008C218312031338088C21831203138B158F
:1001E0000800013A031DF728831203130B10831232
:1001F00003138B110800831203130B108B150800D7
:1002000083120313061A08298312031340080B29CB
:10021000831203133F08080083120313AC01FF305D
:10022000831203132C02031820296400FF30831269
:100230000313AD0083120313AD0B1A29AC0A0F2967
:100240000800831203138C1E21291A0808000A30A3
:1002500083160313990024309800903083120313FF
:100260009800080083120313AE0183120313061EC5
:100270003C2983120313AE0A831203132E08013A9A
:10028000031D4C290030831203134504031D4C2920
:100290008312031344088C2183120313AE018312CB
:1002A0000313061E562983120313AE0A8312031387
:1002B0004508831203132E06031D6F2183120313B7
:1002C000AE0183120313061E682983120313AE0ABC
:1002D000831203132E0883120313C5000800831230
:1002E0000313AC0183120313061E7929831203132F
:1002F000AC0A831203132C08003003190130AD003F
:100300002D0C03188629831203138610031C8B29D6
:10031000831203138614080083120313AC008312A4
:1003200003130C1E8F29831203132C08831203134B
:10033000990008002E30FE000230FF0080308A1144
:100340000A12AF228A110A1283120313A1007F0836
:10035000A0003030A2000230A30083120313200853
:10036000A4002108A500FF30A007031CA103240856
:10037000250403192A2A04302207A400A501A50D8B
:100380002308A5072408FE002508FF0080308A11F5
:100390000A12AF228A110A1283120313A7007F08E0
:1003A000A6002208FE002308FF0080308A110A12EE
:1003B000AF228A110A1283120313A900A5007F0835
:1003C000A800A40002302207A400A501A50D23085F
:1003D000A5072408FE002508FF0080308A110A12B4
:1003E000AF228A110A1283120313A500AB007F0803
:1003F000A400AA00831203132608AA002708AB0052
:10040000FF30A607031CA7032A082B040319232A7D
:100410002808FE002908FF0080308A110A129C2259
:100420008A110A1283120313AA002408840083137A
:10043000251883172A088000A80A0319A90AA40A04
:100440000319A50AFA29063083120313A207031819
:10045000A30AAD298A110A12762808001234003442
:10046000D03402343F34003401340034D134023407
:100470004034003401340034D23402344134003486
:1004800001340034D33402344234003401340034B3
:10049000D43402344334003401340034D5340234CB
:1004A0004434003401340034D6340234453400344A
:1004B00001340034D734023446340034013400347B
:1004C000D83402344734003401340034D93402348F
:1004D0004834003401340034DA340234493400340E
:1004E00001340034DB3402344A3400340134003443
:1004F000DC3402344B34003401340034DD34023453
:100500004C34003401340034DE3402344D340034D1
:1005100001340034DF3402344E340034013400340A
:10052000E03402344F34003401340034E134023416
:100530005134003401340034003A0319A32A803ABC
:100540000319AA2A00347E08840083137F188317B6
:10055000000808007F088A007E0882000800003A30
:100560000319B72A803A0319C12AFF0100347E0813
:10057000840083137F1883170008FF00840A000893
:1005800008008A110A12AA22FD00FE0FFF03FF0ACB
:100590008A110A12AA22FC007D08FF007C080800CC
:1005A00000340134583445344534543400343D3437
:1005B00014340034013402340034003401344A3439
:0405C00000340034CF
:00000001FF
