:1000000000008A110A12A929F200030E8301F100EF
:100010000A088A01F000040883120313D100831236
:1000200003134E08013A031D6A2883120313AF011C
:10003000831203130B1D1F2883120313AF0A8312AD
:1000400003132F08013A031D3C28831203130B11DD
:10005000ED308100831203130C1E2A288312031330
:10006000500883120313990083120313D0018A11DD
:100070000A1232218A110A1283120313AF0183126A
:1000800003138B1C462883120313AF0A8312031336
:100090002F08013A031D6A28831203138B10831261
:1000A0000313AF0183120313061D59288312031390
:1000B000AF0A831203132F08013A031D632883122A
:1000C0000313D00A6A288312031306196A288312BD
:1000D0000313D003831203135108840070088A00AD
:1000E0008301710E8300F20E720E09008312031356
:1000F0004E08013A031D8B28153083160313860022
:100100000030F120831203138614FF3081000C218C
:10011000831203130B160730831603138100272164
:10012000831203130B1183120313B30183120313FE
:100130008F018E0183120313480883120313B40046
:1001400083120313490883120313BA000130831288
:100150000313BB00002183120313B8007E21831216
:1001600003138B160B178B176400831203134E08AF
:10017000013A031DB42883120313B0018312031341
:100180008C1EC52883120313B00A83120313300890
:10019000013A031DB428831203138B122121831209
:1001A0000313BE00831203134F08831203133E068A
:1001B000031DDE28831203134F089B2183120313B0
:1001C0008B16B42808000030F12083120313430873
:1001D0009B218312031338089B21831203138B1571
:1001E0000800013A031DF728831203130B10831232
:1001F00003138B110800831203130B108B150800D7
:1002000083120313061A08298312031340080B29CB
:10021000831203133F08080083120313AC01FF305D
:10022000831203132C02031820296400FF30831269
:100230000313AD0083120313AD0B1A29AC0A0F2967
:100240000800831203138C1E21291A0808000A30A3
:1002500083160313990024309800903083120313FF
:100260009800080083120313AE0183120313061EC5
:100270003C2983120313AE0A831203132E08013A9A
:10028000031D4D290030831203134604031D4D291D
:100290008312031345089B215B2983120313061A5B
:1002A0005B29831203134608013A031D5B2983125D
:1002B000031344089B2183120313AE01831203131B
:1002C000061E652983120313AE0A83120313460820
:1002D000831203132E06031D7E2183120313AE0126
:1002E00083120313061E772983120313AE0A8312A7
:1002F00003132E0883120313C6000800831203138E
:10030000AC0183120313061E882983120313AC0A5F
:10031000831203132C08003003190130AD002D0C9B
:1003200003189529831203138610031C9A2983123C
:1003300003138614080083120313AC008312031303
:100340000C1E9E29831203132C0883120313990099
:1003500008003D30FE000230FF0080308A110A1292
:10036000C4228A110A1283120313A1007F08A0007D
:100370003F30A2000230A300831203132008A40020
:100380002108A500FF30A007031CA10324082504B1
:100390000319392A04302207A400A501A50D23085A
:1003A000A5072408FE002508FF0080308A110A12E4
:1003B000C4228A110A1283120313A7007F08A60021
:1003C0002208FE002308FF0080308A110A12C4228E
:1003D0008A110A1283120313A900A5007F08A8003E
:1003E000A40002302207A400A501A50D2308A5073B
:1003F0002408FE002508FF0080308A110A12C4225A
:100400008A110A1283120313A500AB007F08A4000F
:10041000AA00831203132608AA002708AB00FF30A6
:10042000A607031CA7032A082B040319322A28084D
:10043000FE002908FF0080308A110A12B1228A11B9
:100440000A1283120313AA002408840083132518B8
:1004500083172A088000A80A0319A90AA40A031905
:10046000A50A092A063083120313A2070318A30A58
:10047000BC298A110A127628080013340034E534A6
:1004800002343F34003401340034E6340234403462
:10049000003401340034E734023441340034013490
:1004A0000034E83402344234003401340034E93496
:1004B00002344334003401340034EA340234443426
:1004C000003401340034EB34023445340034013458
:1004D0000034EC3402344634003401340034ED345A
:1004E00002344734003401340034EE3402344834EA
:1004F000003401340034EF34023449340034013420
:100500000034F03402344A34003401340034F1341D
:1005100002344B34003401340034F23402344C34AD
:10052000003401340034F33402344D3400340134E7
:100530000034F43402344E34003401340034F534E1
:1005400002344F34003401340034F6340234503471
:10055000003401340034F7340234523400340134AE
:100560000034003A0319B82A803A0319BF2A00342C
:100570007E08840083137F188317000808007F0813
:100580008A007E0882000800003A0319CC2A803ACB
:100590000319D62AFF0100347E08840083137F18D4
:1005A00083170008FF00840A000808008A110A1255
:1005B000BF22FD00FE0FFF03FF0A8A110A12BF22AD
:1005C000FC007D08FF007C0808000034013458342A
:1005D000453445345434743400343D3414340034D8
:1005E000013402340034003401344A34003400341D
:00000001FF
