:1000000000008A110A12ED2AF200030E8301F100AA
:100010000A088A01F000040883120313CD0000309F
:10002000831203134A04031DA62883120313AC0191
:10003000831203130B1D1F2883120313AC0A8312B0
:1000400003132C08013A031D3F28831203130B11DD
:1000500083120313430883120313810000308312B9
:1000600003133304031DB303831203130C1E34283C
:10007000831203133308831203139900A6288312F3
:100080000313AC01831203130B1C492883120313BF
:10009000AC0A831203132C08013A031D8D28831226
:1000A00003133A08013A031D5F2883120313B201B8
:1000B000831203138F018E0183120313BA0183127B
:1000C0000313320883120313B400831203130F08BF
:1000D00083120313B500831203130E088312031354
:1000E000B60083120313B201831203138F018E0132
:1000F00083120313440883120313B3008312031300
:10010000460883120313B9008312031343088312B2
:10011000031381000B108B11A62883120313AC016B
:10012000831203130C1C972883120313AC0A831247
:1001300003132C08013A031DA628831203130C1085
:10014000831203133208FF3A031DB20A831203130A
:100150004A08013A031DFC2883120313AC018312E1
:1001600003130B1DB62883120313AC0A8312031367
:100170002C08013A031DCE28831203130B11ED3016
:100180008100831203130C1EC128831203134C0831
:1001900083120313990083120313CC0183120313F8
:1001A000AC01831203138B1CD82883120313AC0AEF
:1001B000831203132C08013A031DFC288312031336
:1001C0008B1083120313AC0183120313061DEB285B
:1001D00083120313AC0A831203132C08013A031D84
:1001E000F52883120313CC0AFC2883120313061983
:1001F000FC2883120313CC03831203134D088400DD
:1002000070088A008301710E8300F20E720E0900DD
:100210000530831603138600831203134A08013A3C
:10022000031D20298316031385018312031305146C
:100230000530831603138600831203138B11861473
:100240000730831603138100D522831203130B1189
:100250000030831203134A04031D3429831203134D
:100260004308831203138100831203134A08013ADF
:10027000031D3E29FF3083120313810000308312D7
:1002800003134A04031D48293130831203139000DD
:1002900083120313B201831203138F018E01003006
:1002A000831203134A04031D5829831603130C14E5
:1002B000AC220030831203134A0403197D228312F7
:1002C0000313B20183120313440883120313B30010
:1002D00083120313450883120313B90001308312FC
:1002E0000313BA00A02283120313B70082228312E1
:1002F00003138B16831203134A08013A031D832943
:10030000831203130B16831203130B178B1764004E
:100310000030831203134A04031D402A831203137F
:10032000AF01831203138C1E982983120313AF0AA3
:10033000831203132F08013A031DAA29CF22831227
:100340000313BD00831203134108831203133D06F8
:1003500003196E228312031345088312031339060F
:100360000319402A83120313460883120313390624
:10037000031D1C2A0030831203133304031D402A7B
:10038000831203130B10A02283120313B8008312ED
:1003900003133708831203133806031D0F2A831231
:1003A00003133608831203138E0783120313AF015E
:1003B00083120313031CDF2983120313AF0A831272
:1003C00003132F08013A031DE829831203138F0A30
:1003D000831203133508831203138F078312031349
:1003E000AF0183120313031CF82983120313AF0A0E
:1003F000831203132F08013A031D012A83120313EA
:10040000B20A83120313340883120313B207831250
:100410000313450883120313B9007D22402A831277
:100420000313380883120313B7008312031347081A
:1004300083120313B900402A83120313470883125F
:1004400003133906031D402A831203134008C122F7
:10045000831203133708C122831203133408C12205
:10046000831203133508C122831203133608C122F5
:1004700083120313450883120313B90082227D22DD
:10048000831203134A08013A031D872983120313B9
:10049000AF01831203138C1E502A83120313AF0A79
:1004A000831203132F08013A031D872983120313B4
:1004B0008B12CF2283120313BD00831203134B0848
:1004C000831203133D06031D692A831203134B088D
:1004D000C122831203138B1687290800831203138A
:1004E0008B11831203134208C122831203133708AE
:1004F000C122831203138B150800831203130B1000
:100500008B150800831203133708003003190130DC
:1005100083120313AD002D0C0318912A83120313C9
:100520008610031C962A8312031386148312031366
:100530004A08013A031D9F2A8312031386140800F8
:1005400083120313061AA82A831203133F08AB2A47
:10055000831203133E08080083120313AD01FF301A
:10056000831203132D020318C02A6400FF30831284
:100570000313AE0083120313AE0BBA2AAD0AAF2ADF
:10058000080083120313AD00831203130C1EC42A48
:10059000831203132D08831203139900080083129A
:1005A00003138C1ECF2A1A0808000030831203138D
:1005B0004A04031DE02A8130831603139900E42ABC
:1005C0000A3083160313990024308316031398000E
:1005D000903083120313980008008130FE0003302E
:1005E000FF0080308A110A12F6238A110A12831240
:1005F0000313A1007F08A0008330A2000330A300F2
:10060000831203132008A4002108A500FF30A007CF
:10061000031CA1032408250403197D2B04302207A1
:10062000A400A501A50D2308A5072408FE002508A0
:10063000FF0080308A110A12F6238A110A128312EF
:100640000313A7007F08A6002208FE002308FF006E
:1006500080308A110A12F6238A110A1283120313B8
:10066000A900A5007F08A800A40002302207A4006A
:10067000A501A50D2308A5072408FE002508FF00F5
:1006800080308A110A12F6238A110A128312031388
:10069000A500AB007F08A400AA008312031326085C
:1006A000AA002708AB00FF30A607031CA7032A08EF
:1006B0002B040319762B2808FE002908FF00803040
:1006C0008A110A12E3238A110A1283120313AA0061
:1006D000240884008313251883172A088000A80A99
:1006E0000319A90AA40A0319A50A4D2B063083127F
:1006F0000313A2070318A30A002B8A110A12082960
:10070000080010340034173404343E34003401340B
:100710000034183404343F340034013400341934C4
:10072000043440340034013400341A340434413485
:100730000034013400341B340434423400340134B6
:1007400000341C34043443340034013400341D3488
:10075000043444340034013400341E340434453449
:100760000034013400341F3404344634003401347E
:10077000003420340434473400340134003421344C
:10078000043448340034013400342234043449340D
:10079000003401340034233404344A340034013446
:1007A0000034243404344B34003401340034253410
:1007B00004344C34003401340034263404344E34D0
:1007C000003401340034003A0319EA2B803A03194B
:1007D000F12B00347E08840083137F1883170008F0
:1007E00008007F088A007E0882000800003A03198A
:1007F000FE2B803A0319082CFF0100347E08840088
:1008000083137F1883170008FF00840A000808007C
:100810008A110A12F123FD00FE0FFF03FF0A8A115D
:100820000A12F123FC007D08FF007C080800003458
:1008300001345834453445343D34143400340134E3
:0E08400002340034003401344A3400340034F1
:00000001FF
