:100000000C9469000C94230C0C94FC0B0C94910040
:100010000C9491000C9491000C9491000C9491001C
:100020000C9491000C94C90C0C9491000C949100C8
:100030000C9491000C94A20C0C9491000C949100DF
:100040000C94B20B0C9491000C94700C0C944A0C10
:100050000C9491000C9491000C9491000C949100DC
:100060000C9491000C9491000A0B0C0D0E0F0000E3
:100070000000240027002A000000000025002800BE
:100080002B000000000023002600290004040404C3
:100090000404040402020202020203030303030332
:1000A000010204081020408001020408102001020F
:1000B00004081020000000080002010000030407EB
:1000C00000000000000000000001020304053B0DD9
:1000D000341011241FBECFEFD8E0DEBFCDBF23E028
:1000E000A0EDB2E001C01D92A63CB207E1F712E01C
:1000F000A0E0B1E0EAE6F6E202C005900D92A03D74
:10010000B107D9F710E0C8E6D0E004C02197FE019E
:100110000E940211C736D107C9F70E949C0D0C94AA
:1001200028130C940000833081F028F4813099F07A
:100130008230A9F008958730A9F08830C9F0843062
:10014000B1F4809180008F7D03C0809180008F7713
:1001500080938000089584B58F7784BD089584B519
:100160008F7DFBCF8091B0008F778093B000089592
:100170008091B0008F7DF9CFCF93DF93282F30E0AF
:10018000F901EC54FF4F8491F901E056FF4FD491EF
:10019000F901E457FF4FC491CC23A1F081110E94D3
:1001A0009300EC2FF0E0EE0FFF1FEE57FF4FA591ED
:1001B000B491EC91ED2381E090E009F480E0DF91CF
:1001C000CF91089580E090E0FACF1F93CF93DF9313
:1001D000282F30E0F901EC54FF4F8491F901E056EB
:1001E000FF4FD491F901E457FF4FC491CC23A9F0FC
:1001F000162F81110E949300EC2FF0E0EE0FFF1FED
:10020000E858FF4FA591B4918FB7F894EC91111174
:1002100008C0D095DE23DC938FBFDF91CF911F9173
:100220000895DE2BF8CF682F8091A1030E94E5008E
:100230008091B8039091B9038230910538F0880F0E
:10024000991F880F991F05970197F1F7089581E08D
:100250000C941301682F8091A0039091A10389133E
:100260000C94E5000895CF93DF9390E0FC01E056F5
:10027000FF4F249184579F4FFC0184918823D1F034
:1002800090E0880F991FFC01E259FF4FA591B491AE
:10029000FC01E858FF4FC591D491623071F49FB7CB
:1002A000F8943C91822F809583238C93E8812E2BA8
:1002B00028839FBFDF91CF9108958FB7F894EC9179
:1002C0002E2B2C938FBFF6CF3FB7F8948091F2027C
:1002D0009091F302A091F402B091F50226B5A89B8B
:1002E00005C02F3F19F00196A11DB11D3FBFBA2FC8
:1002F000A92F982F8827BC01CD01620F711D811D88
:10030000911D42E0660F771F881F991F4A95D1F70C
:1003100008958F929F92AF92BF92CF92DF92EF9209
:10032000FF926B017C010E9464014B015C01C114CE
:10033000D104E104F104B9F00E946401681979095B
:100340008A099B09683E73408105910580F321E08D
:10035000C21AD108E108F10888EE880E83E0981EE1
:10036000A11CB11CE4CFFF90EF90DF90CF90BF9025
:10037000AF909F908F9008952FB7F8946091EE0200
:100380007091EF028091F0029091F1022FBF0895D9
:1003900008950895AF92BF92CF92DF92EF92FF92AD
:1003A0000F931F93CF93DF936C017B018B01040F9D
:1003B000151FEB015E01AE18BF08C017D10759F039
:1003C0006991D601ED91FC910190F081E02DC6017B
:1003D0000995892B79F7C501DF91CF911F910F9175
:1003E000FF90EF90DF90CF90BF90AF900895FC0109
:1003F000538D448D252F30E0842F90E0821B930B8A
:10040000541710F0CF96089501970895FC01918D2F
:10041000828D981761F0A28DAE0FBF2FB11D5D9632
:100420008C91928D9F5F9F73928F90E008958FEFD4
:100430009FEF08950F931F930E94BC0160930403E4
:100440007093050380930603909307038CEF92E06B
:100450000E94060297FF1DC00E94BC010091040388
:10046000109105032091060330910703601B710B67
:10047000820B930B00910003109101032091020362
:10048000309103036017710782079307F8F28FEF2B
:100490009FEF1F910F910895FC01918D828D981708
:1004A00031F0828DE80FF11D858D90E008958FEF7A
:1004B0009FEF0895FC01918D228D892F90E0805C43
:1004C0009F4F821B91098F73992708958CEF92E0BB
:1004D0000E945A0221E0892B09F420E0822F08951E
:1004E000FC01A48DA80FB92FB11DA35ABF4F2C91A9
:1004F000848D90E001968F739927848FA689B789A0
:100500002C93A089B1898C91837080648C93938D96
:10051000848D981306C00288F389E02D80818F7D39
:1005200080830895EF92FF920F931F93CF93DF93F1
:10053000EC0181E0888F9B8D8C8D98131AC0E8891F
:10054000F989808185FF15C09FB7F894EE89FF89EE
:100550006083E889F98980818370806480839FBF8C
:1005600081E090E0DF91CF911F910F91FF90EF908C
:100570000895F62E0B8D10E00F5F1F4F0F7311279C
:10058000E02E8C8D8E110CC00FB607FCFACFE889D7
:10059000F989808185FFF5CFCE010E947002F1CFED
:1005A000EB8DEC0FFD2FF11DE35AFF4FF0829FB74B
:1005B000F8940B8FEA89FB8980818062CFCFCF933B
:1005C000DF93EC01888D8823B9F0AA89BB89E8897B
:1005D000F9898C9185FD03C0808186FD0DC00FB621
:1005E00007FCF7CF8C9185FFF2CF808185FFEDCF9F
:1005F000CE010E947002E9CFDF91CF910895089556
:100600008EBD00000DB407FEFDCF8EB5089582E0CB
:100610000E94BC0061E0892B09F060E082E00C944C
:10062000E500809170008E7F8093700083E00E94CF
:10063000BC0061E0892B09F060E082E00C94E500E9
:1006400080E18093810083E00E94BC002091F7024A
:100650002817190681F091E09093E7028091F70244
:1006600089278093F7028091F7028093D10210923C
:10067000D3021092D2020895809107018823B9F025
:1006800080E1809381001092800081E08093EA02F3
:1006900080E89EE39093E9028093E80290938700BC
:1006A0008093860081E1809381000C94110308956A
:1006B000FC0101900020E9F73197AF01481B590B6D
:1006C000BC018CEF92E00C94CA018F929F92AF9282
:1006D000BF920F931F93CF93DF93CDB7DEB7A19750
:1006E0000FB6F894DEBF0FBECDBF19A2423008F49A
:1006F0004AE08E010F5D1F4F842E912CB12CA12C4E
:10070000A50194010E94E010E62FB901CA01EA3068
:10071000F4F4E05DD801EE938D01232B242B252BDF
:1007200079F790E080E0109719F0CD010E9458030E
:10073000A1960FB6F894DEBF0FBECDBFDF91CF916B
:100740001F910F91BF90AF909F908F900895E95C9B
:10075000E1CFCF92DF92EF92FF92CF93DF936B01C5
:100760007C016DE28CEF92E00E949202EC01662720
:100770007727CB016C197D098E099F094AE00E94F9
:1007800065038C0F9D1FDF91CF91FF90EF90DF905D
:10079000CF900895BC01990F880B990B97FD0C948D
:1007A000A9034AE00C946503CF93DF930E9458039A
:1007B000EC0180E291E00E9458038C0F9D1FDF91B5
:1007C000CF9108959093EC028093EB02009721F46F
:1007D00083E291E00C94D403019779F487E491E0EB
:1007E0000E94D403E99889EC91E0909303018093EF
:1007F000020161E083E00C9433010895CF93DF930D
:10080000BC01990F880B990B97FF0CC00E94A9039C
:10081000EC0180E291E00E9458038C0F9D1FDF9154
:10082000CF9108954AE00E946503F2CF0C945803DB
:100830000F931F93CF938091D80281118BC0809129
:10084000D2029091D3020E94CA0382EA92E00E94EF
:1008500016040E94BC0100919A0310919B03209101
:100860009C0330919D03601B710B820B930B4AE03C
:100870000E94650382EA92E00E9416048091D102F0
:1008800090E00E94CA038091D002882389F082EA16
:1008900092E00E9416046091D4027091D50280917A
:1008A000D6029091D7024AE00E9465031092D002CE
:1008B00080E291E00E9458036091D102C1E06C2770
:1008C00082E00E94E5008091EB029091EC0201979A
:1008D00031F46091D1026C2783E00E94E5008091A1
:1008E0000601811140C08091D2029091D302892BE0
:1008F000D1F51092070162E070E080E090E00E9484
:1009000089018091D2029091D3020E94CA0382EAA7
:1009100092E00E9416040E94BC0100919A0310917B
:100920009B0320919C0330919D03601B710B820BF4
:10093000930B4AE00E94650382EA92E00E9416044B
:100940008091D10291E0892790E0CF911F910F9182
:100950000C94FE0347E050E061ED72E08CEF92E012
:100960000E94CA01A9CFCF911F910F910895CF93F3
:10097000DF93682F70E090E080E04AE00E9465031A
:10098000EC0180E291E00E9458038C0F9D1FDF91E3
:10099000CF910895CF93DF93FC014481558160810D
:1009A00071818CEF92E00E94CA01EC0180E291E03B
:1009B0000E9458038C0F9D1FDF91CF9108950F93D4
:1009C0001F930091A2031091A3032091A4033091DF
:1009D000A50340E052E16AE770E080E004171507E4
:1009E0002607370740F476956795579547958F5FAB
:1009F0008630A1F787E0982F906A96958095817050
:100A00009CBD8DBD80E01F910F910C941301CF937D
:100A1000DF93D82FC62F0E94DF048D2F80620E94A3
:100A200000038093A6038C2F0E940003DF91CF91D7
:100A30000C9427016091AD0361FD0AC06260609370
:100A4000AD0380E00E9407058BE19EE40197F1F77A
:100A500008958D3708F08DE7682F85E00C94070521
:100A6000CF93C82F0E94DF048C2F0E940003809335
:100A7000A6038FEF0E940003C82F0E9427018C2F2E
:100A8000CF910895FF920F931F93CF93DF93C82FB9
:100A9000F62E072F142F0E94DF048C2F80620E94F5
:100AA00000038093A603CF2DD02F115020F0899101
:100AB0000E940003FACFDF91CF911F910F91FF9019
:100AC0000C9427010E941A056091AD036160609348
:100AD000AD0380E00E94070560E787E00E940705FC
:100AE00081E00E942A018091AF03882339F0409170
:100AF000B10368EA73E08AE00C94420582E00E9448
:100B00003005E8ECF0E0E49121E030E001C0220F94
:100B1000EA95EAF72095622F682382E00E94070594
:100B20001092AF030895CF93C82F0E94DF048C2F3B
:100B30000E9400038093A603CF910C94270181EEBD
:100B40000E9493058091A603089580E00E942A01E7
:100B50008091B4039091B5038230910538F0880FED
:100B6000991F880F991F05970197F1F78091B0039E
:100B700081110E949F056091AD036E7F6093AD036C
:100B800080E00E94070582E00E943005E8ECF0E07A
:100B9000E49161E070E001C0660FEA95EAF7682B26
:100BA00082E00C940705CF92DF92EF92FF920F93B1
:100BB0001F93CF93DF939091B203911118C0D091FE
:100BC000A703C82FD81708F4CD2FDC1B0E94DF0421
:100BD00080EA0E9400038093A60308EF12E0C15050
:100BE00070F0F80181918F010E940003F8CFD1E0ED
:100BF0008111D0E0C82F813248F3C0E2E7CFD15055
:100C000020F080E00E940003FACF0E94270181E0DB
:100C10000E942A010E94BC016B017C018FEF0E949F
:100C200093058091A6038073C1F40E94BC016C19E6
:100C30007D098E099F09603671058105910570F364
:100C400081E08093B30380E0DF91CF911F910F91FA
:100C5000FF90EF90DF90CF90089580E00E942A01EE
:100C600060E787E00E9407058091A60384FF03C028
:100C70000E949F05E8CF81E0E7CFCF93DF9380917B
:100C8000FA029091FB028034910554F085E591E0E1
:100C90000E94D403D0E0C0E0CE01DF91CF9108954F
:100CA000892BA1F483E00E94BC0021E0892B09F488
:100CB00020E02093F7028091F8029091F90280FFE2
:100CC00022C081E080930701109206019091FA0200
:100CD00084E7891B0E9429050E94A50584E00E94E3
:100CE000D305D0E0C0E081111CC0C430D105C9F0EB
:100CF00062E070E080E090E00E94890184E00E9460
:100D0000D3052196F0CF90FFE1CF81E080930701DA
:100D1000809306016091F702682782E00E94E50057
:100D2000D5CF9091F6028DE7891B0E9429050E947C
:100D30006205B2CF0E94DF0480E50E940003809329
:100D4000A60383E70E9400030C9427010F931F93CF
:100D5000CF93DF9387E10E94300580FD3EC08091F4
:100D6000B203C0E0D7E0811107C0C091A703DC2F18
:100D7000C83008F0D7E0CD1B0E94DF0481E60E9456
:100D800000038093A60301ED12E0D15038F08FEFFD
:100D90000E940003F80181938F01F7CFC15020F02A
:100DA0008FEF0E940003FACF0E94270160E487E0E2
:100DB0000E9407050E9411030E94180481E0C0915F
:100DC000E702CC2329F01092E7020E9418048C2F2E
:100DD000DF91CF911F910F91089580E0F0CFAF92F6
:100DE000BF92CF92DF92EF92FF920F931F93CF9318
:100DF000DF936B01EA01FB014481558141155105E7
:100E000061F1FC01248135812115310531F124176F
:100E1000350718F1C217D30710F0E9012197FC013B
:100E200000811181C801AA24AA94BB24BA94780134
:100E3000EC0EFD1EE816F906A0F0F6016081718146
:100E40000E940E13009769F09C01201B310BC21702
:100E5000D30708F059010196EDCFAA24AA94BB2428
:100E6000BA94C501DF91CF911F910F91FF90EF9040
:100E7000DF90CF90BF90AF900895FC012481358121
:100E8000232B39F421E0FB018081882349F020E005
:100E900007C0808191810E94FE1221E0892BB9F761
:100EA000822F08950F931F93CF93DF93EC018881D6
:100EB0009981009759F02A813B812617370730F036
:100EC00081E0DF91CF911F910F9108958B016F5FAA
:100ED0007F4F0E942D12009759F0998388831B83BE
:100EE0000A832C813D81232B59F7FC011082E8CF26
:100EF00080E0E7CFEF92FF920F931F93CF93DF93A2
:100F00006115710541F480E0DF91CF911F910F9140
:100F1000FF90EF90089541155105B1F07B01EC0170
:100F20000C811D81040F151FB8010E9452078823F0
:100F300051F3288139818C819D81B701820F931FE4
:100F40000E9407131D830C8381E0DECFCF93DF93D4
:100F5000EC0188819981009711F00E94A4111982F7
:100F600018821D821C821B821A82DF91CF91089504
:100F7000EF92FF920F931F93CF93DF93EC017B01CE
:100F80008A01BA010E94520781110BC0CE010E9452
:100F9000A607CE01DF91CF911F910F91FF90EF90A7
:100FA00008951D830C83B701888199810E940713DE
:100FB000F0CFEF92FF920F931F93CF93DF93CDB7B4
:100FC000DEB762970FB6F894DEBF0FBECDBF8C01BF
:100FD000CB01F801118210821382128215821482D1
:100FE0004AE09E012F5F3F4F7901B9010E945F10D7
:100FF000F70101900020E9F73197AF014E195F0921
:10100000B701C8010E94B80762960FB6F894DEBF18
:101010000FBECDBFDF91CF911F910F91FF90EF9049
:101020000895CF93DF93EC01FB018617970749F0F2
:10103000608171816115710541F0448155810E9483
:10104000B807CE01DF91CF9108950E94A607F9CF8E
:10105000FC01118210821382128215821482FB011C
:1010600001900020E9F73197AF01461B570B0C9414
:10107000B807AF92BF92CF92DF92EF92FF920F9399
:101080001F93CF93DF937C016B015A0189012417D1
:10109000350720F48B2D5901042F182F62E271E0DF
:1010A000C7010E942808D6011496CD91DC91AC1698
:1010B000BD0620F50C171D0708F4E801D601ED91D7
:1010C000FC911197EC0FFD1F108110826D917C91A6
:1010D0006A0D7B1D61157105E9F0FB01019000208F
:1010E000E9F73197AF01461B570BC7010E94B807BC
:1010F000F60180819181C80FD91F1883C701DF9144
:10110000CF911F910F91FF90EF90DF90CF90BF9004
:10111000AF900895C7010E94A607EACFFC01808125
:101120009181009711F00C94A41108952F923F9291
:101130004F925F926F927F928F929F92AF92BF92E7
:10114000CF92DF92EF92FF920F931F93CF93DF9393
:10115000CDB7DEB7AC970FB6F894DEBF0FBECDBFEC
:1011600062E271E0CE0181960E9428088E010F5F35
:101170001F4F8DA19EA1892B69F0E9A0FAA06AE01A
:1011800070E0C7010E94F312009721F08E199F09A9
:10119000019601F562E271E0C8010E9428080E94F0
:1011A0001A0297FD0BC089871A8641E050E0BE0104
:1011B000675F7F4FC8010E947A07F1CF4D815E8142
:1011C00069817A81CE0181960E947A07C8010E94C6
:1011D0008E08CFCF62E271E0CE0187960E94280888
:1011E00062EA72E0C8010E9428084DA15EA18D81CB
:1011F0009E81481B590BB801CE0181960E94EF06D3
:101200001C01C8010E948E08EE24EA94FE2C55E2CF
:10121000452E512C612C712CE214F3040CF07BC28E
:1012200067018FEFC81AD80A62EA72E0C8010E940B
:1012300028088DA19EA1C816D90670F4A9A0BAA04D
:1012400069817A81C5018C0D9D1D0E940E137C0160
:10125000EA18FB08892B19F4EE24EA94FE2CC80145
:101260000E948E0897012F5F3F4FA601BE016F5D60
:101270007F4FC8010E9439088FA198A5009709F4F3
:10128000F3C069817A816115710509F4EBC049A544
:101290005AA52D813E814217530708F4E3C00E94EE
:1012A00007138D819E819CA78BA71E821D82C8017A
:1012B0000E948E0868E772E0C8010E9428088BA58A
:1012C0009CA5892B61F0AFA0B8A469817A81C50182
:1012D0000E940E136C01CA18DB08892B19F4CC2468
:1012E000CA94DC2CC8010E948E08960150E040E0B0
:1012F000BE01695D7F4FCE0145960E94390862EAC2
:1013000072E0C8010E9428084BA55CA58D819E81D2
:10131000481B590BB801CE0187960E94EF06A60123
:101320004F5F5F4F9C01BE01695D7F4FCE014B96C1
:101330000E943908C8010E948E086EE671E0CE0155
:1013400045960E943D07882309F4A3C08B8D9C8D90
:10135000009709F49AC00E9438105B017093F9025B
:101360006093F8020E94A50594E7992ED12CC12C18
:10137000892D0E942905D092FB02C092FA02B092F8
:10138000F902A092F8020E943D069FEFC91AD90AFD
:101390009A9424E39212ECCF0E9462058091F602A7
:1013A0009DE7981B892F0E9429058091F80280FFF4
:1013B00050C04092DC025092DD026092DE027092D8
:1013C000DF0287E093E09093DA028093D902809164
:1013D00070008E7F809370008091B0008C7F80932E
:1013E000B0008091B100877F8093B1008091B600FA
:1013F0008F7D8093B600809170008D7F8093700008
:101400008091B10084608093B1008091B1008C7FA5
:101410008093B10086E090E09093E5028093E4022F
:101420001092E0021092E1021092E2021092E302A6
:101430001092DB028091E4029091E5028093B20069
:101440008091700081608093700061E082E00E9472
:10145000E500CE014B960E948E08CE0145960E9473
:101460008E08DACE0E94A41189819A8198A78FA351
:101470008B819C819AA789A78D819E819CA78BA730
:101480001A8219821C821B8210CF60E070E0CB01AF
:1014900064CF62E771E0CE0145960E943D07882344
:1014A00009F40BC168E771E0CE014B960E943D073D
:1014B000882329F08CEB93E00E94CA0476CF64E87D
:1014C00071E0CE014B960E943D07882341F084E9EC
:1014D00091E00E94D40321E02093D80266CF68EA0D
:1014E00071E0CE014B960E943D07882339F086EBD0
:1014F00091E00E94D4031092D80257CF68EC71E0BB
:10150000CE014B960E943D07882359F00E94BC01F2
:1015100060939A0370939B0380939C0390939D0325
:1015200044CF63ED71E0CE014B960E943D078823C6
:1015300029F08091F6020E94B70437CF6FED71E079
:10154000CE014B960E943D07882309F499C068EEAE
:1015500071E0CE010F960E94280880E092E09093FF
:10156000F9028093F802B12CA12CD12CC12C85E07A
:10157000882E912C0E949F0582EE0E949305D092A6
:10158000FB02C092FA0291E09093D0020E943D06C5
:1015900064E070E080E090E00E9489010E94A6066D
:1015A000882309F467C08091D2029091D302C816B3
:1015B000D90609F05FC01A8619861C861B861E860E
:1015C0001D86BE01615F7F4FCE0109960E94110802
:1015D0004AE0B801C6010E945F10F80101900020A6
:1015E000E9F73197AF01401B510BB801CE010996C5
:1015F0000E947A07811104C0CE0109960E94A607B5
:1016000041E050E062EA72E0CE0109960E947A075A
:10161000811104C0CE0109960E94A607BE01675F32
:101620007F4FCE010F960E941108CE0109960E94AD
:101630008E082FEFA21AB20A9FEFC91AD90A20E426
:10164000C216D10409F093CF83EF91E00E941604F3
:10165000C5010E94FE0381E092E00E941604CE01C3
:101660000F960E94CA041092D002CE010F960E94DB
:101670008E089BCE81E0881A910809F07BCFDCCFE1
:1016800063E172E0CE014B960E943D07882329F06A
:1016900081E090E00E94E20388CE67E272E0CE0132
:1016A0004B960E943D07882319F090E080E0F2CF2E
:1016B0008AE392E00E94D40378CE8B8D9C8D0097B4
:1016C00011F10E9438107093F9026093F8028D892D
:1016D0009E890097E1F00E9438107093FB0260939E
:1016E000FA020E943D068091F8029091F90281155C
:1016F00022E0920721F08115944009F056CE81E056
:101700008093D00252CE60E070E0CB01DCCF60E08D
:1017100070E0CB01E2CFCE0187960E948E08CE0109
:1017200081960E948E08AC960FB6F894DEBF0FBE6D
:10173000CDBFDF91CF911F910F91FF90EF90DF9080
:10174000CF90BF90AF909F908F907F906F905F9061
:101750004F903F902F9008950E94660281110C9443
:10176000960808951F920F920FB60F9211242F938F
:101770003F938F939F93AF93BF938091EE0290918D
:10178000EF02A091F002B091F1023091ED0223E05E
:10179000230F2D3758F50196A11DB11D2093ED02A1
:1017A0008093EE029093EF02A093F002B093F102C7
:1017B0008091F2029091F302A091F402B091F502AF
:1017C0000196A11DB11D8093F2029093F302A093A4
:1017D000F402B093F502BF91AF919F918F913F9129
:1017E0002F910F900FBE0F901F90189526E8230F92
:1017F0000296A11DB11DD2CF1F920F920FB60F926C
:1018000011242F933F934F935F936F937F938F9305
:101810009F93AF93BF93EF93FF93E0910201F091F9
:1018200003010995FF91EF91BF91AF919F918F9126
:101830007F916F915F914F913F912F910F900FBECC
:101840000F901F9018951F920F920FB60F921124B0
:101850002F933F934F935F936F937F938F939F93B8
:10186000AF93BF93EF93FF93E0910001F0910101DB
:101870000995FF91EF91BF91AF919F918F917F91CA
:101880006F915F914F913F912F910F900FBE0F90ED
:101890001F9018951F920F920FB60F9211242F933D
:1018A0003F934F935F936F937F938F939F93AF93E8
:1018B000BF93EF93FF938CEF92E00E947002FF9131
:1018C000EF91BF91AF919F918F917F916F915F91B8
:1018D0004F913F912F910F900FBE0F901F90189531
:1018E0001F920F920FB60F9211242F938F939F93F5
:1018F000EF93FF93E0910C03F0910D038081E09151
:101900001203F091130382FD1BC090818091150397
:101910008F5F8F7320911603821741F0E0911503BA
:10192000F0E0E450FD4F958F80931503FF91EF9108
:101930009F918F912F910F900FBE0F901F90189530
:101940008081F4CF1F920F920FB60F9211242F9324
:101950003F934F935F936F937F938F939F93AF9337
:10196000BF93EF93FF93E0910401F0910501099576
:10197000FF91EF91BF91AF919F918F917F916F9167
:101980005F914F913F912F910F900FBE0F901F903D
:1019900018951F920F920FB60F9211242F933F9319
:1019A0004F935F936F937F938F939F93AF93BF9367
:1019B000EF93FF938091E4029091E5028093B2004F
:1019C0008091E0029091E102A091E202B091E302E5
:1019D0000196A11DB11D8093E0029093E102A093B6
:1019E000E202B093E3028091E0029091E102A091C3
:1019F000E202B091E3024091DC025091DD0260917D
:101A0000DE027091DF0284179507A607B70710F171
:101A10008091DB0281111EC081E08093DB02809106
:101A2000E0029091E102A091E202B091E302841BF6
:101A3000950BA60BB70B8093E0029093E102A09365
:101A4000E202B093E302E091D902F091DA02099543
:101A50001092DB02FF91EF91BF91AF919F918F9117
:101A60007F916F915F914F913F912F910F900FBE9A
:101A70000F901F901895ECEFF2E01382128288EE1F
:101A800093E0A0E0B0E084839583A683B78382E1EE
:101A900091E09183808385EC90E09587848784EC46
:101AA00090E09787868780EC90E0918B808B81EC2B
:101AB00090E0938B828B82EC90E0958B848B86EC0C
:101AC00090E0978B868B118E128E138E148E6EE49F
:101AD00072E08CEB93E00E942808EEE9F3E081E1EC
:101AE000828382E1838380E896E9A8E9B0E0848379
:101AF0009583A683B78380E28187108A118A85E067
:101B0000838B81E0848B158A85E090E0A0E0B0E0D3
:101B1000828F938FA48FB58F89E993E0918380831F
:101B200012860E94BC0160939A0370939B0380937A
:101B30009C0390939D030895CF93DF93CDB7DEB7B9
:101B400066970FB6F894DEBF0FBECDBF789484B50C
:101B5000826084BD84B5816084BD85B5826085BDA9
:101B600085B5816085BD80916E00816080936E0037
:101B70001092810080918100826080938100809129
:101B800081008160809381008091800081608093DA
:101B900080008091B10084608093B1008091B0009A
:101BA00081608093B00080917A00846080937A0095
:101BB00080917A00826080937A0080917A008160BF
:101BC00080937A0080917A00806880937A001092E6
:101BD000C100E0910C03F0910D0382E08083E0915D
:101BE0000803F09109031082E0910A03F0910B03BE
:101BF00080E1808310921403E0911003F0911103AF
:101C000086E08083E0910E03F0910F038081806174
:101C10008083E0910E03F0910F03808188608083C0
:101C2000E0910E03F0910F03808180688083E09142
:101C30000E03F0910F0380818F7D808368E070E058
:101C4000CE0101960E94D90763E070E0CE01419673
:101C50000E94D9071A8619861C861B861E861D8639
:101C6000BE016F5E7F4FCE0109960E94110841E0D0
:101C700050E06FE572E0CE0109960E947A0781116B
:101C800004C0CE0109960E94A6074D815E8169813C
:101C90007A81CE0109960E947A07811104C0CE0193
:101CA00009960E94A6074D855E8569857A858CEB2D
:101CB00093E00E947A07CE0109960E948E08CE0119
:101CC00041960E948E08CE0101960E948E088CEBF0
:101CD00093E00E94CA0482E090E0A0E0B0E080932C
:101CE000000390930103A0930203B093030361E008
:101CF0000E94E50062E08EE00E94330162E08FE026
:101D00000E94330162E080E10E9433018EE00E9474
:101D1000BC00892B19F481E08093F6028FE00E94C9
:101D2000BC00892B29F48091F6028E5F8093F60225
:101D300080E10E94BC00892B29F48091F6028C5F1F
:101D40008093F6021FB7F8948091E602811127C0B4
:101D5000E6E9F0E08491EAEAF0E09491E82FF0E01F
:101D6000EE0FFF1FE259FF4FA591B491EC91E923CB
:101D700021F461E08AE00E94E50061E08AE00E94CF
:101D800033018CB580618CBD8CB580648CBD61E005
:101D90008DE00E94330161E08BE00E94330180916D
:101DA000E6028F5F8093E6021FBF8091A0038F3F02
:101DB00009F488C09091A1039F3F09F483C089175B
:101DC00041F061E00E94330161E08091A1030E9433
:101DD000330180E00E942A0181E00E94130165E046
:101DE00070E080E090E00E9489016FE584E00E944D
:101DF000070586E00E94300545E550E060E070E0B0
:101E00004093B4035093B5036093B6037093B70344
:101E1000682F677D86E00E94070586E00E943005F6
:101E20008DE10E943005182F0E949A068DE10E94D4
:101E3000300591E0181390E09093AE03882341F0B1
:101E4000181302C00E949A0660E08DE10E94070507
:101E50001092B00360E08CE10E9407051092B2037B
:101E60006FE381E00E94070563E082E00E940705BE
:101E700080E28093A70311E16091A703812F0E9464
:101E800007051F5F1731C1F763E083E00E94070574
:101E900085E08093B1038CE40E94290560E787E028
:101EA0000E94070582EE0E9493050E949F056CE048
:101EB00080E00E94070580E00E9430058093AD031A
:101EC0000E941A056FE084E00E9407051091F60257
:101ED0008DE7811B0E942905212F30E040E050E072
:101EE00060E070E080E090E02F513F404F405F4065
:101EF0006F407F4F8F4F9F4F29833A834B835C8383
:101F00006D837E838F8398874091B103BE016F5F9D
:101F10007F4F8AE00E9442054091B103BE016F5F8E
:101F20007F4F80E10E944205212F30E040E050E0E9
:101F300060E070E080E090E02E523F404F405F4014
:101F40006F407F4F8F4F9F4F29873A874B875C8722
:101F50006D877E878F87988BE9E6F0E084914091CA
:101F6000B103BE01675F7F4F0E94420582E00E947D
:101F70003005E9ECF0E0E49101E010E0B80101C0C7
:101F8000660FEA95EAF7682B82E00E9407050E9437
:101F9000620561E082E00E9433011093EC0200933D
:101FA000EB0281E090E00E94E20380E180938100F7
:101FB0001092800091E09093EA0220E83EE3309393
:101FC000E9022093E802309387002093860021E104
:101FD0002093810020E233E0309305012093040137
:101FE00090936F008093810081E692E00E94160436
:101FF0008091F6020E94B7048BE692E00E941604DC
:1020000086E00E94300590E09595879583700E9448
:10201000B7041092E70283E792E00E94160486E07C
:102020000E943005282F287282E090E0203229F0AB
:1020300081E090E0283009F080E00E94FE038AE70A
:1020400092E00E94D40384EA92E00E94D40387EBDA
:1020500092E00E94D4030E94A6060E946602882392
:10206000D1F30E949608F7CF8CEB93E00C948E0886
:102070001F93FC0199278827BC01E8941191103225
:10208000E9F3193010F01E30C8F31B3251F01D3245
:1020900049F4689406C00E946A10610F711D811D89
:1020A000911D119110531A30B0F33EF49095809524
:1020B000709561957F4F8F4F9F4F1F910895BB275C
:1020C0004A3031F4992322F4BDE2909581959F4FD7
:1020D0000C948010592F482F372F262F660F771F0B
:1020E000881F991F660F771F881F991F620F731F24
:1020F000841F951F660F771F881F991F0895BB27A0
:10210000FB015527AA27880F991FAA1FA41710F0B3
:10211000A41B83955051B9F7A05DAA3308F0A95DBF
:10212000A193009779F7B111B1931192CB010C945F
:102130009910DC01FC01672F71917723E1F7329749
:1021400004C07C916D9370836291AE17BF07C8F392
:1021500008952F923F924F925F926F927F928F924B
:102160009F92AF92BF92CF92DF92EF92FF920F9326
:102170001F93CF93DF93CDB7DEB7CA1BDB0B0FB630
:10218000F894DEBF0FBECDBF09942A8839884888ED
:102190005F846E847D848C849B84AA84B984C88483
:1021A000DF80EE80FD800C811B81AA81B981CE0F7A
:1021B000D11D0FB6F894DEBF0FBECDBFED0108955F
:1021C000A1E21A2EAA1BBB1BFD010DC0AA1FBB1F3B
:1021D000EE1FFF1FA217B307E407F50720F0A21BAD
:1021E000B30BE40BF50B661F771F881F991F1A941A
:1021F00069F760957095809590959B01AC01BD0144
:10220000CF010895EE0FFF1F0590F491E02D099482
:102210000F931F93CF93DF938230910510F482E0E8
:1022200090E0E091C403F091C50330E020E0B0E01D
:10223000A0E0309799F42115310509F44AC0281B14
:10224000390B24303105D8F58A819B8161157105E0
:1022500089F1FB0193838283FE0111C0408151818A
:102260000281138148175907E0F04817590799F47C
:10227000109761F012960C93129713961C93329656
:10228000CF01DF91CF911F910F9108950093C40367
:102290001093C503F4CF2115310551F042175307B0
:1022A00038F0A901DB019A01BD01DF01F801C1CFBE
:1022B000EF01F9CF9093C5038093C403CDCFFE0106
:1022C000E20FF31F819391932250310939832883C0
:1022D000D7CF2091C2033091C303232B41F4209127
:1022E0000A0130910B013093C3032093C203209164
:1022F0000801309109012115310541F42DB73EB790
:1023000040910C0150910D01241B350BE091C2034B
:10231000F091C303E217F307A0F42E1B3F0B28171D
:10232000390778F0AC014E5F5F4F2417350748F04E
:102330004E0F5F1F5093C3034093C2038193919349
:102340009FCFF0E0E0E09CCFCF93DF930097E9F0E0
:10235000FC01329713821282A091C403B091C5038D
:10236000ED0130E020E01097A1F420813181820F4F
:10237000931F2091C2033091C3032817390709F036
:1023800061C0F093C303E093C203DF91CF9108953E
:10239000EA01CE17DF07E8F54A815B819E0141150E
:1023A0005105B1F7E901FB83EA8349915991C40FC3
:1023B000D51FEC17FD0761F4808191810296840F8F
:1023C000951FE90199838883828193819B838A8306
:1023D000F0E0E0E012968D919C9113970097B9F58B
:1023E0002D913C911197CD010296820F931F209160
:1023F000C2033091C3032817390739F6309751F5D6
:102400001092C5031092C403B093C303A093C203F8
:10241000BCCFD383C28340815181840F951FC817DD
:10242000D90761F44E5F5F4F88819981480F591F2A
:10243000518340838A819B81938382832115310557
:1024400009F0B0CFF093C503E093C4039ECFFD0124
:10245000DC01C0CF13821282D7CFB0E0A0E0E3E36B
:10246000F2E10C94AB108C01009751F4CB010E9467
:1024700008118C01C801CDB7DEB7E0E10C94C7109C
:10248000FC01E60FF71F9C0122503109E217F30708
:1024900008F49DC0D901CD91DC911197C617D707DB
:1024A00098F0C530D10530F3CE0104978617970711
:1024B00008F3C61BD70B2297C193D1936D937C93DE
:1024C000CF010E94A411D6CF5B01AC1ABD0A4C010A
:1024D0008C0E9D1EA091C403B091C503512C412CBC
:1024E000F12CE12C109731F58091C2039091C30338
:1024F0008815990509F05CC04616570608F058C0C3
:102500008091080190910901009741F48DB79EB721
:1025100040910C0150910D01841B950BE817F907B0
:1025200008F055C0F093C303E093C203F90171832F
:102530006083A0CF8D919C91119712966C90129709
:1025400013967C901397A815B90559F56C0142E0D4
:10255000C40ED11CCA14DB0420F1AC014A195B097A
:10256000DA011296159780F062827382518340835C
:10257000D9016D937C93E114F10471F0D7011396A6
:10258000FC93EE93129776CF22968C0F9D1FF90144
:1025900091838083F301EFCFF093C503E093C403ED
:1025A00069CF4816590608F42C017D01D3019ACF52
:1025B000CB010E9408117C01009749F0AE01B801DF
:1025C0000E94EA12C8010E94A411870153CF10E0B3
:1025D00000E050CFFB01DC0102C001900D924150A0
:1025E0005040D8F70895FC018191861721F0882387
:1025F000D9F7992708953197CF010895FB01DC01A0
:102600008D91019080190110D9F3990B0895FB0168
:10261000DC0101900D920020E1F70895FB0151913A
:102620005523A9F0BF01DC014D9145174111E1F798
:1026300059F4CD010190002049F04D914015411110
:10264000C9F3FB014111EFCF81E090E001970895BC
:1026500010E0C8E6D0E004C0FE010E9402112196FD
:0A266000C936D107C9F7F894FFCF7F
:10266A00C901C901FF0201010000C6038000000080
:10267A0000009202CA01F701DF025A0206024C0266
:10268A000D0A00596F75722068617264776172650C
:10269A002063616E206F6E6C7920626520696E20FE
:1026AA006F75747075740052434120696E204F55DE
:1026BA0054505554005465726D696E616C206E7584
:1026CA006D62657220746F6F206869676800616C5B
:1026DA006C006C6F63616C006765745F766572731A
:1026EA00696F6E007365745F62696E6172795F6D9E
:1026FA006F64650053657474696E672062696E6100
:10270A007279206D6F6465007365745F746578749F
:10271A005F6D6F64650053657474696E67207465D4
:10272A007874206D6F64650072657365745F74698F
:10273A006D65006765745F6368616E6E656C0064E1
:10274A006973636F766572007465726D696E616C28
:10275A00733A00546F74616C20666F756E643A2028
:10276A00005465726D696E616C7320666F756E6474
:10277A003A20007365745F7263615F6D6F64653AD6
:10278A006F7574707574007365745F7263615F6DE1
:10279A006F64653A696E7075740057726F6E672060
:1027AA006C6F63616C20636F6D6D616E6400576955
:1027BA0066692D436F6E74726F6C6C65722D002E94
:1027CA00004368616E6E656C3A2000506F776572DF
:1027DA003A200053706565643A0074686520696E32
:1027EA00737472756374696F6E7320617265205BAE
:1027FA007465726D4E756D5D3A5B636F6D6D616E7A
:10280A00645D3B004E756D5465726D0954696D6562
:10281A00095374617465002D2D2D2D2D2D2D2D2D0F
:10282A002D2D2D2D2D2D2D2D2D2D2D2D2D2D2D00FB
:00000001FF
