:100000000C9469000C943E0C0C94170C0C94910009
:100010000C9491000C9491000C9491000C9491001C
:100020000C9491000C94E40C0C9491000C949100AD
:100030000C9491000C94BD0C0C9491000C949100C4
:100040000C94CD0B0C9491000C948B0C0C94650CBF
:100050000C9491000C9491000C9491000C949100DC
:100060000C9491000C9491000A0B0C0D0E0F0000E3
:100070000000240027002A000000000025002800BE
:100080002B000000000023002600290004040404C3
:100090000404040402020202020203030303030332
:1000A000010204081020408001020408102001020F
:1000B00004081020000000080002010000030407EB
:1000C0000000000000000000000102030405560DBE
:1000D0004C1011241FBECFEFD8E0DEBFCDBF23E010
:1000E000AAEBB2E001C01D92A03BB207E1F712E01B
:1000F000A0E0B1E0EAE9F6E202C005900D92AA3B69
:10010000B107D9F710E0C8E6D0E004C02197FE019E
:100110000E941A11C736D107C9F70E94B70D0C9477
:1001200040130C940000833081F028F4813099F062
:100130008230A9F008958730A9F08830C9F0843062
:10014000B1F4809180008F7D03C0809180008F7713
:1001500080938000089584B58F7784BD089584B519
:100160008F7DFBCF8091B0008F778093B000089592
:100170008091B0008F7DF9CFCF93DF93282F30E0AF
:10018000F901EC54FF4F8491F901E056FF4FD491EF
:10019000F901E457FF4FC491CC23A1F081110E94D3
:1001A0009300EC2FF0E0EE0FFF1FEE57FF4FA591ED
:1001B000B491EC91ED2381E090E009F480E0DF91CF
:1001C000CF91089580E090E0FACF1F93CF93DF9313
:1001D000282F30E0F901EC54FF4F8491F901E056EB
:1001E000FF4FD491F901E457FF4FC491CC23A9F0FC
:1001F000162F81110E949300EC2FF0E0EE0FFF1FED
:10020000E858FF4FA591B4918FB7F894EC91111174
:1002100008C0D095DE23DC938FBFDF91CF911F9173
:100220000895DE2BF8CF682F80918B030E94E500A4
:100230008091A2039091A3038230910538F0880F3A
:10024000991F880F991F05970197F1F7089581E08D
:100250000C941301682F80918A0390918B0389136A
:100260000C94E5000895CF93DF9390E0FC01E056F5
:10027000FF4F249184579F4FFC0184918823D1F034
:1002800090E0880F991FFC01E259FF4FA591B491AE
:10029000FC01E858FF4FC591D491623071F49FB7CB
:1002A000F8943C91822F809583238C93E8812E2BA8
:1002B00028839FBFDF91CF9108958FB7F894EC9179
:1002C0002E2B2C938FBFF6CF3FB7F8948091DC0292
:1002D0009091DD02A091DE02B091DF0226B5A89BCD
:1002E00005C02F3F19F00196A11DB11D3FBFBA2FC8
:1002F000A92F982F8827BC01CD01620F711D811D88
:10030000911D42E0660F771F881F991F4A95D1F70C
:1003100008958F929F92AF92BF92CF92DF92EF9209
:10032000FF926B017C010E9464014B015C01C114CE
:10033000D104E104F104B9F00E946401681979095B
:100340008A099B09683E73408105910580F321E08D
:10035000C21AD108E108F10888EE880E83E0981EE1
:10036000A11CB11CE4CFFF90EF90DF90CF90BF9025
:10037000AF909F908F9008952FB7F8946091D80216
:100380007091D9028091DA029091DB022FBF08951B
:1003900008950895AF92BF92CF92DF92EF92FF92AD
:1003A0000F931F93CF93DF936C017B018B01040F9D
:1003B000151FEB015E01AE18BF08C017D10759F039
:1003C0006991D601ED91FC910190F081E02DC6017B
:1003D0000995892B79F7C501DF91CF911F910F9175
:1003E000FF90EF90DF90CF90BF90AF900895FC0109
:1003F000538D448D252F30E0842F90E0821B930B8A
:10040000541710F0CF96089501970895FC01918D2F
:10041000828D981761F0A28DAE0FBF2FB11D5D9632
:100420008C91928D9F5F9F73928F90E008958FEFD4
:100430009FEF08950F931F930E94BC016093EE02FB
:100440007093EF028093F0029093F10286EE92E0B7
:100450000E94060297FF1DC00E94BC010091EE029F
:100460001091EF022091F0023091F102601B710BAC
:10047000820B930B0091EA021091EB022091EC02A7
:100480003091ED026017710782079307F8F28FEF42
:100490009FEF1F910F910895FC01918D828D981708
:1004A00031F0828DE80FF11D858D90E008958FEF7A
:1004B0009FEF0895FC01918D228D892F90E0805C43
:1004C0009F4F821B91098F739927089586EE92E0C2
:1004D0000E945A0221E0892B09F420E0822F08951E
:1004E000FC01A48DA80FB92FB11DA35ABF4F2C91A9
:1004F000848D90E001968F739927848FA689B789A0
:100500002C93A089B1898C91837080648C93938D96
:10051000848D981306C00288F389E02D80818F7D39
:1005200080830895EF92FF920F931F93CF93DF93F1
:10053000EC0181E0888F9B8D8C8D98131AC0E8891F
:10054000F989808185FF15C09FB7F894EE89FF89EE
:100550006083E889F98980818370806480839FBF8C
:1005600081E090E0DF91CF911F910F91FF90EF908C
:100570000895F62E0B8D10E00F5F1F4F0F7311279C
:10058000E02E8C8D8E110CC00FB607FCFACFE889D7
:10059000F989808185FFF5CFCE010E947002F1CFED
:1005A000EB8DEC0FFD2FF11DE35AFF4FF0829FB74B
:1005B000F8940B8FEA89FB8980818062CFCFCF933B
:1005C000DF93EC01888D8823B9F0AA89BB89E8897B
:1005D000F9898C9185FD03C0808186FD0DC00FB621
:1005E00007FCF7CF8C9185FFF2CF808185FFEDCF9F
:1005F000CE010E947002E9CFDF91CF910895089556
:100600008EBD00000DB407FEFDCF8EB5089582E0CB
:100610000E94BC0061E0892B09F060E082E00C944C
:10062000E500809170008E7F8093700083E00E94CF
:10063000BC0061E0892B09F060E082E00C94E500E9
:1006400080E18093810083E00E94BC002091E10260
:100650002817190681F091E09093D1028091E10270
:1006600089278093E1028091E1028093BB0210927E
:10067000BD021092BC020895809107018823B9F051
:1006800080E1809381001092800081E08093D40209
:1006900080E89EE39093D3028093D20290938700E8
:1006A0008093860081E1809381000C94110308956A
:1006B000FC0101900020E9F73197AF01481B590B6D
:1006C000BC0186EE92E00C94CA018F929F92AF9289
:1006D000BF920F931F93CF93DF93CDB7DEB7A19750
:1006E0000FB6F894DEBF0FBECDBF19A2423008F49A
:1006F0004AE08E010F5D1F4F842E912CB12CA12C4E
:10070000A50194010E94F810E62FB901CA01EA3050
:10071000F4F4E05DD801EE938D01232B242B252BDF
:1007200079F790E080E0109719F0CD010E9458030E
:10073000A1960FB6F894DEBF0FBECDBFDF91CF916B
:100740001F910F91BF90AF909F908F900895E95C9B
:10075000E1CFCF92DF92EF92FF92CF93DF936B01C5
:100760007C016DE286EE92E00E949202EC01662727
:100770007727CB016C197D098E099F094AE00E94F9
:1007800065038C0F9D1FDF91CF91FF90EF90DF905D
:10079000CF900895BC01990F880B990B97FD0C948D
:1007A000A9034AE00C946503CF93DF930E9458039A
:1007B000EC0180E291E00E9458038C0F9D1FDF91B5
:1007C000CF9108959093D6028093D5020097F9F4C3
:1007D00083E291E00E94D40362E083E00E9433014F
:1007E0008CE393E090930301809302018091690070
:1007F000837F846080936900E99A83E00E94BC0053
:1008000021E0892B09F420E02093E102089501976B
:1008100079F480E391E00E94D403E99889EC91E0B7
:10082000909303018093020161E083E00C94330113
:100830000895CF93DF93BC01990F880B990B97FF15
:100840000CC00E94A903EC0180E291E00E945803D1
:100850008C0F9D1FDF91CF9108954AE00E946503A0
:10086000F2CF0C9458030F931F93CF938091C20241
:1008700081118BC08091BC029091BD020E94CA037D
:100880008BE892E00E9431040E94BC010091840335
:10089000109185032091860330918703601B710BB3
:1008A000820B930B4AE00E9465038BE892E00E9462
:1008B00031048091BB0290E00E94CA038091BA0289
:1008C000882389F08BE892E00E9431046091BE0297
:1008D0007091BF028091C0029091C1024AE00E94D3
:1008E00065031092BA0280E291E00E945803609181
:1008F000BB02C1E06C2782E00E94E5008091D50236
:100900009091D602019731F46091BB026C2783E08D
:100910000E94E50080910601811140C08091BC02D7
:100920009091BD02892BD1F51092070162E070E031
:1009300080E090E00E9489018091BC029091BD020C
:100940000E94CA038BE892E00E9431040E94BC011D
:1009500000918403109185032091860330918703D1
:10096000601B710B820B930B4AE00E9465038BE8BE
:1009700092E00E9431048091BB0291E0892790E0CF
:10098000CF911F910F910C94190447E050E06BEB4D
:1009900072E086EE92E00E94CA01A9CFCF911F912A
:1009A0000F910895CF93DF93682F70E090E080E07F
:1009B0004AE00E946503EC0180E291E00E94580346
:1009C0008C0F9D1FDF91CF910895CF93DF93FC0192
:1009D000448155816081718186EE92E00E94CA0156
:1009E000EC0180E291E00E9458038C0F9D1FDF9183
:1009F000CF9108950F931F9300918C0310918D0355
:100A000020918E0330918F0340E052E16AE770E05D
:100A100080E0041715072607370740F47695679599
:100A2000579547958F5F8630A1F787E0982F906A9A
:100A30009695809581709CBD8DBD80E01F910F9132
:100A40000C941301CF93DF93D82FC62F0E94FA0482
:100A50008D2F80620E940003809390038C2F0E9450
:100A60000003DF91CF910C9427016091970361FD02
:100A70000AC062606093970380E00E9422058BE1C8
:100A80009EE40197F1F708958D3708F08DE7682F00
:100A900085E00C942205CF93C82F0E94FA048C2F76
:100AA0000E940003809390038FEF0E940003C82FE1
:100AB0000E9427018C2FCF910895FF920F931F93CF
:100AC000CF93DF93C82FF62E072F142F0E94FA041E
:100AD0008C2F80620E94000380939003CF2DD02F33
:100AE000115020F089910E940003FACFDF91CF913D
:100AF0001F910F91FF900C9427010E943505609182
:100B0000970361606093970380E00E94220560E78D
:100B100087E00E94220581E00E942A0180919903CA
:100B2000882339F040919B0362E973E08AE00C94DA
:100B30005D0582E00E944B05E8ECF0E0E49121E0E5
:100B400030E001C0220FEA95EAF72095622F682372
:100B500082E00E942205109299030895CF93C82F36
:100B60000E94FA048C2F0E94000380939003CF917F
:100B70000C94270181EE0E94AE05809190030895A8
:100B800080E00E942A0180919E0390919F03823011
:100B9000910538F0880F991F880F991F05970197C5
:100BA000F1F780919A0381110E94BA056091970331
:100BB0006E7F6093970380E00E94220582E00E948E
:100BC0004B05E8ECF0E0E49161E070E001C0660FF5
:100BD000EA95EAF7682B82E00C942205CF92DF9227
:100BE000EF92FF920F931F93CF93DF9390919C030B
:100BF000911118C0D0919103C82FD81708F4CD2FA8
:100C0000DC1B0E94FA0480EA0E9400038093900398
:100C100002EE12E0C15070F0F80181918F010E9444
:100C20000003F8CFD1E08111D0E0C82F813248F322
:100C3000C0E2E7CFD15020F080E00E940003FACF5D
:100C40000E94270181E00E942A010E94BC016B01E1
:100C50007C018FEF0E94AE05809190038073C1F4F8
:100C60000E94BC016C197D098E099F0960367105CF
:100C70008105910570F381E080939D0380E0DF9111
:100C8000CF911F910F91FF90EF90DF90CF9008953B
:100C900080E00E942A0160E787E00E94220580919F
:100CA000900384FF03C00E94BA05E8CF81E0E7CF3C
:100CB000CF93DF938091E4029091E5028034910517
:100CC00054F08EE391E00E94D403D0E0C0E0CE0166
:100CD000DF91CF910895892BA1F483E00E94BC009D
:100CE00021E0892B09F420E02093E1028091E202C7
:100CF0009091E30280FF22C081E08093070110926F
:100D000006019091E40284E7891B0E9444050E9439
:100D1000C00584E00E94EE05D0E0C0E081111CC057
:100D2000C430D105C9F062E070E080E090E00E943C
:100D3000890184E00E94EE052196F0CF90FFE1CF7B
:100D400081E080930701809306016091E1026827AA
:100D500082E00E94E500D5CF9091E0028DE7891BEB
:100D60000E9444050E947D05B2CF0E94FA0480E5EE
:100D70000E9400038093900383E70E9400030C9479
:100D800027010F931F93CF93DF9387E10E944B05B9
:100D900080FD3EC080919C03C0E0D7E0811107C078
:100DA000C0919103DC2FC83008F0D7E0CD1B0E9422
:100DB000FA0481E60E940003809390030BEB12E09B
:100DC000D15038F08FEF0E940003F80181938F011A
:100DD000F7CFC15020F08FEF0E940003FACF0E949E
:100DE000270160E487E00E9422050E9411030E940F
:100DF000330481E0C091D102CC2329F01092D102BA
:100E00000E9433048C2FDF91CF911F910F91089591
:100E100080E0F0CFAF92BF92CF92DF92EF92FF923D
:100E20000F931F93CF93DF936B01EA01FB01448182
:100E300055814115510561F1FC0124813581211550
:100E4000310531F12417350718F1C217D30710F017
:100E5000E9012197FC0100811181C801AA24AA940B
:100E6000BB24BA947801EC0EFD1EE816F906A0F03A
:100E7000F601608171810E942613009769F09C0140
:100E8000201B310BC217D30708F059010196EDCF93
:100E9000AA24AA94BB24BA94C501DF91CF911F91D3
:100EA0000F91FF90EF90DF90CF90BF90AF9008959B
:100EB000FC0124813581232B39F421E0FB01808161
:100EC000882349F020E007C0808191810E94161399
:100ED00021E0892BB9F7822F08950F931F93CF93A9
:100EE000DF93EC0188819981009759F02A813B8139
:100EF0002617370730F081E0DF91CF911F910F91D6
:100F000008958B016F5F7F4F0E944512009759F043
:100F1000998388831B830A832C813D81232B59F776
:100F2000FC011082E8CF80E0E7CFEF92FF920F93B1
:100F30001F93CF93DF936115710541F480E0DF913A
:100F4000CF911F910F91FF90EF900895411551059A
:100F5000B1F07B01EC010C811D81040F151FB8015C
:100F60000E946D07882351F3288139818C819D81EE
:100F7000B701820F931F0E941F131D830C8381E012
:100F8000DECFCF93DF93EC0188819981009711F038
:100F90000E94BC11198218821D821C821B821A8237
:100FA000DF91CF910895EF92FF920F931F93CF930C
:100FB000DF93EC017B018A01BA010E946D07811168
:100FC0000BC0CE010E94C107CE01DF91CF911F91CE
:100FD0000F91FF90EF9008951D830C83B7018881D6
:100FE00099810E941F13F0CFEF92FF920F931F93EE
:100FF000CF93DF93CDB7DEB762970FB6F894DEBF1D
:101000000FBECDBF8C01CB01F8011182108213827B
:101010001282158214824AE09E012F5F3F4F7901B0
:10102000B9010E947710F70101900020E9F731978C
:10103000AF014E195F09B701C8010E94D30762963C
:101040000FB6F894DEBF0FBECDBFDF91CF911F91D9
:101050000F91FF90EF900895CF93DF93EC01FB0188
:101060008617970749F0608171816115710541F01C
:10107000448155810E94D307CE01DF91CF9108951D
:101080000E94C107F9CFFC011182108213821282E3
:1010900015821482FB0101900020E9F73197AF011E
:1010A000461B570B0C94D307AF92BF92CF92DF929F
:1010B000EF92FF920F931F93CF93DF937C016B010D
:1010C0005A0189012417350720F48B2D5901042F6B
:1010D000182F62E271E0C7010E944308D6011496FE
:1010E000CD91DC91AC16BD0620F50C171D0708F458
:1010F000E801D601ED91FC911197EC0FFD1F1081D5
:1011000010826D917C916A0D7B1D61157105E9F06E
:10111000FB0101900020E9F73197AF01461B570B07
:10112000C7010E94D307F60180819181C80FD91FA2
:101130001883C701DF91CF911F910F91FF90EF901E
:10114000DF90CF90BF90AF900895C7010E94C10774
:10115000EACFFC0180819181009711F00C94BC11C1
:1011600008952F923F924F925F926F927F928F924B
:101170009F92AF92BF92CF92DF92EF92FF920F9326
:101180001F93CF93DF93CDB7DEB7AC970FB6F8942C
:10119000DEBF0FBECDBF62E271E0CE0181960E943C
:1011A00043088E010F5F1F4F8DA19EA1892B69F00F
:1011B000E9A0FAA06AE070E0C7010E940B13009753
:1011C00021F08E199F09019601F562E271E0C801D4
:1011D0000E9443080E941A0297FD0BC089871A8655
:1011E00041E050E0BE01675F7F4FC8010E94950754
:1011F000F1CF4D815E8169817A81CE0181960E9415
:101200009507C8010E94A908CFCF62E271E0CE0124
:1012100087960E9443086BE872E0C8010E94430869
:101220004DA15EA18D819E81481B590BB801CE0155
:1012300081960E940A071C01C8010E94A908EE2499
:10124000EA94FE2C55E2452E512C612C712CE214AF
:10125000F3040CF07BC267018FEFC81AD80A6BE861
:1012600072E0C8010E9443088DA19EA1C816D9064C
:1012700070F4A9A0BAA069817A81C5018C0D9D1D69
:101280000E9426137C01EA18FB08892B19F4EE242E
:10129000EA94FE2CC8010E94A90897012F5F3F4FD6
:1012A000A601BE016F5D7F4FC8010E9454088FA147
:1012B00098A5009709F4F3C069817A8161157105D9
:1012C00009F4EBC049A55AA52D813E814217530769
:1012D00008F4E3C00E941F138D819E819CA78BA7F9
:1012E0001E821D82C8010E94A90861E672E0C80141
:1012F0000E9443088BA59CA5892B61F0AFA0B8A4E0
:1013000069817A81C5010E9426136C01CA18DB0825
:10131000892B19F4CC24CA94DC2CC8010E94A9089A
:10132000960150E040E0BE01695D7F4FCE014596D9
:101330000E9454086BE872E0C8010E9443084BA564
:101340005CA58D819E81481B590BB801CE01879603
:101350000E940A07A6014F5F5F4F9C01BE01695DB5
:101360007F4FCE014B960E945408C8010E94A908E5
:1013700067E571E0CE0145960E945807882309F47D
:10138000A3C08B8D9C8D009709F49AC00E945010C9
:101390005B017093E3026093E2020E94C00594E750
:1013A000992ED12CC12C892D0E944405D092E502A2
:1013B000C092E402B092E302A092E2020E945806B8
:1013C0009FEFC91AD90A9A9424E39212ECCF0E9493
:1013D0007D058091E0029DE7981B892F0E944405BE
:1013E0008091E20280FF50C04092C6025092C70234
:1013F0006092C8027092C90287E093E09093C402A1
:101400008093C302809170008E7F809370008091E2
:10141000B0008C7F8093B0008091B100877F809373
:10142000B1008091B6008F7D8093B60080917000EE
:101430008D7F809370008091B10084608093B100B3
:101440008091B1008C7F8093B10086E090E0909312
:10145000CF028093CE021092CA021092CB02109259
:10146000CC021092CD021092C5028091CE029091D2
:10147000CF028093B20080917000816080937000F1
:1014800061E082E00E94E500CE014B960E94A9082F
:10149000CE0145960E94A908DACE0E94BC1189812E
:1014A0009A8198A78FA38B819C819AA789A78D8108
:1014B0009E819CA78BA71A8219821C821B8210CF47
:1014C00060E070E0CB0164CF6BE571E0CE01459642
:1014D0000E945807882309F40BC161E671E0CE0130
:1014E0004B960E945807882329F086EA93E00E94D1
:1014F000E50476CF6DE671E0CE014B960E94580769
:10150000882341F08DE791E00E94D40321E02093ED
:10151000C20266CF61E971E0CE014B960E94580786
:10152000882339F08FE991E00E94D4031092C2021F
:1015300057CF61EB71E0CE014B960E94580788238C
:1015400059F00E94BC0160938403709385038093DB
:1015500086039093870344CF6CEB71E0CE014B96EA
:101560000E945807882329F08091E0020E94D2044B
:1015700037CF68EC71E0CE014B960E945807882364
:1015800009F499C061ED71E0CE010F960E94430805
:1015900080E092E09093E3028093E202B12CA12CD0
:1015A000D12CC12C85E0882E912C0E94BA0582EEA8
:1015B0000E94AE05D092E502C092E40291E09093C1
:1015C000BA020E94580664E070E080E090E00E9459
:1015D00089010E94C106882309F467C08091BC027A
:1015E0009091BD02C816D90609F05FC01A86198607
:1015F0001C861B861E861D86BE01615F7F4FCE0145
:1016000009960E942C084AE0B801C6010E94771092
:10161000F80101900020E9F73197AF01401B510B11
:10162000B801CE0109960E949507811104C0CE0130
:1016300009960E94C10741E050E06BE872E0CE01DC
:1016400009960E949507811104C0CE0109960E9457
:10165000C107BE01675F7F4FCE010F960E942C0825
:10166000CE0109960E94A9082FEFA21AB20A9FEF95
:10167000C91AD90A20E4C216D10409F093CF8CED1F
:1016800091E00E943104C5010E9419048AEE91E0A4
:101690000E943104CE010F960E94E5041092BA0216
:1016A000CE010F960E94A9089BCE81E0881A91086E
:1016B00009F07BCFDCCF6CEF71E0CE014B960E943E
:1016C0005807882329F081E090E00E94E20388CE49
:1016D00060E172E0CE014B960E945807882319F012
:1016E00090E080E0F2CF83E292E00E94D40378CED3
:1016F0008B8D9C8D009711F10E9450107093E30226
:101700006093E2028D899E890097E1F00E9450105B
:101710007093E5026093E4020E9458068091E20211
:101720009091E302811522E0920721F08115944007
:1017300009F056CE81E08093BA0252CE60E070E0AC
:10174000CB01DCCF60E070E0CB01E2CFCE01879629
:101750000E94A908CE0181960E94A908AC960FB6F6
:10176000F894DEBF0FBECDBFDF91CF911F910F91D7
:10177000FF90EF90DF90CF90BF90AF909F908F90B1
:101780007F906F905F904F903F902F9008950E94B0
:10179000660281110C94B10808951F920F920FB642
:1017A0000F9211242F933F938F939F93AF93BF93E7
:1017B0008091D8029091D902A091DA02B091DB0217
:1017C0003091D70223E0230F2D3758F50196A11D44
:1017D000B11D2093D7028093D8029093D902A09391
:1017E000DA02B093DB028091DC029091DD02A091DD
:1017F000DE02B091DF020196A11DB11D8093DC02D3
:101800009093DD02A093DE02B093DF02BF91AF910F
:101810009F918F913F912F910F900FBE0F901F902E
:10182000189526E8230F0296A11DB11DD2CF1F9255
:101830000F920FB60F9211242F933F934F935F9304
:101840006F937F938F939F93AF93BF93EF93FF9388
:10185000E0910201F09103010995FF91EF91BF9191
:10186000AF919F918F917F916F915F914F913F9138
:101870002F910F900FBE0F901F9018951F920F92EF
:101880000FB60F9211242F933F934F935F936F9353
:101890007F938F939F93AF93BF93EF93FF93E091C9
:1018A0000001F09101010995FF91EF91BF91AF9176
:1018B0009F918F917F916F915F914F913F912F9168
:1018C0000F900FBE0F901F9018951F920F920FB69A
:1018D0000F9211242F933F934F935F936F937F93B6
:1018E0008F939F93AF93BF93EF93FF9386EE92E016
:1018F0000E947002FF91EF91BF91AF919F918F91E4
:101900007F916F915F914F913F912F910F900FBEFB
:101910000F901F9018951F920F920FB60F921124DF
:101920002F938F939F93EF93FF93E091F602F091A3
:10193000F7028081E091FC02F091FD0282FD1BC064
:1019400090818091FF028F5F8F7320910003821737
:1019500041F0E091FF02F0E0EA51FD4F958F809356
:10196000FF02FF91EF919F918F912F910F900FBEEA
:101970000F901F9018958081F4CF1F920F920FB691
:101980000F9211242F933F934F935F936F937F9305
:101990008F939F93AF93BF93EF93FF93E0910401D5
:1019A000F09105010995FF91EF91BF91AF919F9142
:1019B0008F917F916F915F914F913F912F910F90F8
:1019C0000FBE0F901F9018951F920F920FB60F9297
:1019D00011242F933F934F935F936F937F938F9334
:1019E0009F93AF93BF93EF93FF938091CE0290911B
:1019F000CF028093B2008091CA029091CB02A09155
:101A0000CC02B091CD020196A11DB11D8093CA02F6
:101A10009093CB02A093CC02B093CD028091CA02E6
:101A20009091CB02A091CC02B091CD024091C60220
:101A30005091C7026091C8027091C902841795073E
:101A4000A607B70710F18091C50281111EC081E081
:101A50008093C5028091CA029091CB02A091CC02E2
:101A6000B091CD02841B950BA60BB70B8093CA02D5
:101A70009093CB02A093CC02B093CD02E091C3022D
:101A8000F091C40209951092C502FF91EF91BF91A8
:101A9000AF919F918F917F916F915F914F913F9106
:101AA0002F910F900FBE0F901F901895E6EEF2E069
:101AB0001382128288EE93E0A0E0B0E084839583E5
:101AC000A683B78382E191E09183808385EC90E0E7
:101AD0009587848784EC90E09787868780EC90E0F8
:101AE000918B808B81EC90E0938B828B82EC90E0E9
:101AF000958B848B86EC90E0978B868B118E128E63
:101B0000138E148E67E372E086EA93E00E94430826
:101B1000E8E8F3E081E1828382E1838380E896E96B
:101B2000A8E9B0E084839583A683B78380E28187A8
:101B3000108A118A85E0838B81E0848B158A85E089
:101B400090E0A0E0B0E0828F938FA48FB58F83E800
:101B500093E09183808312860E94BC01609384038A
:101B60007093850380938603909387030895CF93A2
:101B7000DF93CDB7DEB766970FB6F894DEBF0FBE22
:101B8000CDBF789484B5826084BD84B5816084BD06
:101B900085B5826085BD85B5816085BD80916E000B
:101BA000816080936E00109281008091810082603C
:101BB0008093810080918100816080938100809179
:101BC00080008160809380008091B1008460809368
:101BD000B1008091B00081608093B00080917A0064
:101BE000846080937A0080917A00826080937A008A
:101BF00080917A00816080937A0080917A00806879
:101C000080937A001092C100E091F602F091F70201
:101C100082E08083E091F202F091F3021082E09181
:101C2000F402F091F50280E180831092FE02E091CF
:101C3000FA02F091FB0286E08083E091F802F091D5
:101C4000F902808180618083E091F802F091F902CD
:101C5000808188608083E091F802F091F9028081B0
:101C600080688083E091F802F091F90280818F7D95
:101C7000808368E070E0CE0101960E94F40764E082
:101C800070E0CE0141960E94F4071A8619861C86E0
:101C90001B861E861D86BE016F5E7F4FCE01099694
:101CA0000E942C0841E050E068E472E0CE01099601
:101CB0000E949507811104C0CE0109960E94C107B8
:101CC0004D815E8169817A81CE0109960E949507D6
:101CD000811104C0CE0109960E94C1074D855E8521
:101CE00069857A8586EA93E00E949507CE01099678
:101CF0000E94A908CE0141960E94A908CE01019632
:101D00000E94A90886EA93E00E94E50482E090E040
:101D1000A0E0B0E08093EA029093EB02A093EC0283
:101D2000B093ED0261E00E94E50062E08EE00E9467
:101D3000330162E08FE00E94330162E080E10E94A3
:101D400033018EE00E94BC00892B19F481E080935E
:101D5000E0028FE00E94BC00892B29F48091E00210
:101D60008E5F8093E00280E10E94BC00892B29F401
:101D70008091E0028C5F8093E0021FB7F89480911D
:101D8000D002811127C0E6E9F0E08491EAEAF0E0B0
:101D90009491E82FF0E0EE0FFF1FE259FF4FA5915D
:101DA000B491EC91E92321F461E08AE00E94E5001E
:101DB00061E08AE00E9433018CB580618CBD8CB5F6
:101DC00080648CBD61E08DE00E94330161E08BE0B6
:101DD0000E9433018091D0028F5F8093D0021FBF99
:101DE00080918A038F3F09F488C090918B039F3FB5
:101DF00009F483C0891741F061E00E94330161E07A
:101E000080918B030E94330180E00E942A0181E0CF
:101E10000E94130165E070E080E090E00E9489017B
:101E20006FE584E00E94220586E00E944B0545E5AF
:101E300050E060E070E040939E0350939F036093F6
:101E4000A0037093A103682F677D86E00E9422059E
:101E500086E00E944B058DE10E944B05182F0E94E1
:101E6000B5068DE10E944B0591E0181390E0909328
:101E70009803882341F0181302C00E94B50660E061
:101E80008DE10E94220510929A0360E08CE10E948D
:101E9000220510929C036FE381E00E94220563E01B
:101EA00082E00E94220580E28093910311E160911B
:101EB0009103812F0E9422051F5F1731C1F763E054
:101EC00083E00E94220585E080939B038CE40E94BE
:101ED000440560E787E00E94220582EE0E94AE057D
:101EE0000E94BA056CE080E00E94220580E00E941A
:101EF0004B05809397030E9435056FE084E00E94B4
:101F000022051091E0028DE7811B0E944405212FDC
:101F100030E040E050E060E070E080E090E02F5181
:101F20003F404F405F406F407F4F8F4F9F4F29830F
:101F30003A834B835C836D837E838F839887409144
:101F40009B03BE016F5F7F4F8AE00E945D05409159
:101F50009B03BE016F5F7F4F80E10E945D05212FD3
:101F600030E040E050E060E070E080E090E02E5231
:101F70003F404F405F406F407F4F8F4F9F4F2987BB
:101F80003A874B875C876D877E878F87988BE9E6DA
:101F9000F0E0849140919B03BE01675F7F4F0E94F8
:101FA0005D0582E00E944B05E9ECF0E0E49161E020
:101FB00070E001C0660FEA95EAF7682B82E00E94A4
:101FC00022050E947D0561E082E00E94330180913C
:101FD000D5029091D6020E94E20380E180938100B5
:101FE0001092800091E09093D40220E83EE3309379
:101FF000D3022093D202309387002093860021E100
:102000002093810020E233E0309305012093040106
:1020100090936F00809381008AE492E00E943104E3
:102020008091E0020E94D20484E592E00E94310493
:1020300086E00E944B0590E09595879583700E94FD
:10204000D2041092D1028CE592E00E94310486E025
:102050000E944B05282F287282E090E0203229F060
:1020600081E090E0283009F080E00E94190483E6C6
:1020700092E00E94D4038DE892E00E94D40380EAAB
:1020800092E00E94D4030E94C1060E946602882347
:10209000D1F30E94B108F7CF86EA93E00C94A90827
:1020A0001F93FC0199278827BC01E89411911032F5
:1020B000E9F3193010F01E30C8F31B3251F01D3215
:1020C00049F4689406C00E948210610F711D811D41
:1020D000911D119110531A30B0F33EF490958095F4
:1020E000709561957F4F8F4F9F4F1F910895BB272C
:1020F0004A3031F4992322F4BDE2909581959F4FA7
:102100000C949810592F482F372F262F660F771FC2
:10211000881F991F660F771F881F991F620F731FF3
:10212000841F951F660F771F881F991F0895BB276F
:10213000FB015527AA27880F991FAA1FA41710F083
:10214000A41B83955051B9F7A05DAA3308F0A95D8F
:10215000A193009779F7B111B1931192CB010C942F
:10216000B110DC01FC01672F71917723E1F7329701
:1021700004C07C916D9370836291AE17BF07C8F362
:1021800008952F923F924F925F926F927F928F921B
:102190009F92AF92BF92CF92DF92EF92FF920F93F6
:1021A0001F93CF93DF93CDB7DEB7CA1BDB0B0FB600
:1021B000F894DEBF0FBECDBF09942A8839884888BD
:1021C0005F846E847D848C849B84AA84B984C88453
:1021D000DF80EE80FD800C811B81AA81B981CE0F4A
:1021E000D11D0FB6F894DEBF0FBECDBFED0108952F
:1021F000A1E21A2EAA1BBB1BFD010DC0AA1FBB1F0B
:10220000EE1FFF1FA217B307E407F50720F0A21B7C
:10221000B30BE40BF50B661F771F881F991F1A94E9
:1022200069F760957095809590959B01AC01BD0113
:10223000CF010895EE0FFF1F0590F491E02D099452
:102240000F931F93CF93DF938230910510F482E0B8
:1022500090E0E091AE03F091AF0330E020E0B0E019
:10226000A0E0309799F42115310509F44AC0281BE4
:10227000390B24303105D8F58A819B8161157105B0
:1022800089F1FB0193838283FE0111C0408151815A
:102290000281138148175907E0F04817590799F44C
:1022A000109761F012960C93129713961C93329626
:1022B000CF01DF91CF911F910F9108950093AE034D
:1022C0001093AF03F4CF2115310551F04217530796
:1022D00038F0A901DB019A01BD01DF01F801C1CF8E
:1022E000EF01F9CF9093AF038093AE03CDCFFE0102
:1022F000E20FF31F81939193225031093983288390
:10230000D7CF2091AC033091AD03232B41F4209122
:102310000A0130910B013093AD032093AC0320915F
:102320000801309109012115310541F42DB73EB75F
:1023300040910C0150910D01241B350BE091AC0331
:10234000F091AD03E217F307A0F42E1B3F0B281703
:10235000390778F0AC014E5F5F4F2417350748F01E
:102360004E0F5F1F5093AD034093AC038193919345
:102370009FCFF0E0E0E09CCFCF93DF930097E9F0B0
:10238000FC01329713821282A091AE03B091AF0389
:10239000ED0130E020E01097A1F420813181820F1F
:1023A000931F2091AC033091AD032817390709F032
:1023B00061C0F093AD03E093AC03DF91CF9108953A
:1023C000EA01CE17DF07E8F54A815B819E014115DE
:1023D0005105B1F7E901FB83EA8349915991C40F93
:1023E000D51FEC17FD0761F4808191810296840F5F
:1023F000951FE90199838883828193819B838A83D6
:10240000F0E0E0E012968D919C9113970097B9F55A
:102410002D913C911197CD010296820F931F20912F
:10242000AC033091AD032817390739F6309751F5D1
:102430001092AF031092AE03B093AD03A093AC0320
:10244000BCCFD383C28340815181840F951FC817AD
:10245000D90761F44E5F5F4F88819981480F591FFA
:10246000518340838A819B81938382832115310527
:1024700009F0B0CFF093AF03E093AE039ECFFD0120
:10248000DC01C0CF13821282D7CFB0E0A0E0EBE432
:10249000F2E10C94C3108C01009751F4CB010E941F
:1024A00020118C01C801CDB7DEB7E0E10C94DF103C
:1024B000FC01E60FF71F9C0122503109E217F307D8
:1024C00008F49DC0D901CD91DC911197C617D707AB
:1024D00098F0C530D10530F3CE01049786179707E1
:1024E00008F3C61BD70B2297C193D1936D937C93AE
:1024F000CF010E94BC11D6CF5B01AC1ABD0A4C01C2
:102500008C0E9D1EA091AE03B091AF03512C412CB7
:10251000F12CE12C109731F58091AC039091AD0333
:102520008815990509F05CC04616570608F058C092
:102530008091080190910901009741F48DB79EB7F1
:1025400040910C0150910D01841B950BE817F90780
:1025500008F055C0F093AD03E093AC03F90171832B
:102560006083A0CF8D919C91119712966C901297D9
:1025700013967C901397A815B90559F56C0142E0A4
:10258000C40ED11CCA14DB0420F1AC014A195B094A
:10259000DA011296159780F062827382518340832C
:1025A000D9016D937C93E114F10471F0D701139676
:1025B000FC93EE93129776CF22968C0F9D1FF90114
:1025C00091838083F301EFCFF093AF03E093AE03E9
:1025D00069CF4816590608F42C017D01D3019ACF22
:1025E000CB010E9420117C01009749F0AE01B80197
:1025F0000E940213C8010E94BC11870153CF10E052
:1026000000E050CFFB01DC0102C001900D9241506F
:102610005040D8F70895FC018191861721F0882356
:10262000D9F7992708953197CF010895FB01DC016F
:102630008D91019080190110D9F3990B0895FB0138
:10264000DC0101900D920020E1F70895FB0151910A
:102650005523A9F0BF01DC014D9145174111E1F768
:1026600059F4CD010190002049F04D9140154111E0
:10267000C9F3FB014111EFCF81E090E0019708958C
:1026800010E0C8E6D0E004C0FE010E941A112196B5
:0A269000C936D107C9F7F894FFCF4F
:10269A00C901C901FF0201010000B0038000000066
:1026AA0000009202CA01F701DF025A0206024C0236
:1026BA000D0A0052434120696E20494E505554007C
:1026CA0052434120696E204F555450555400546569
:1026DA00726D696E616C206E756D62657220746FC1
:1026EA006F206869676800616C6C006C6F63616C6D
:1026FA00006765745F76657273696F6E00736574DF
:10270A005F62696E6172795F6D6F646500536574AB
:10271A0074696E672062696E617279206D6F646593
:10272A00007365745F746578745F6D6F64650053D8
:10273A00657474696E672074657874206D6F64655A
:10274A000072657365745F74696D65006765745FAF
:10275A006368616E6E656C00646973636F76657237
:10276A00007465726D696E616C733A00546F7461BE
:10277A006C20666F756E643A20005465726D696EDE
:10278A00616C7320666F756E643A20007365745FBE
:10279A007263615F6D6F64653A6F7574707574000A
:1027AA007365745F7263615F6D6F64653A696E70B9
:1027BA0075740057726F6E67206C6F63616C20636B
:1027CA006F6D6D616E6400576966692D436F6E7433
:1027DA00726F6C6C65722D002E004368616E6E65B7
:1027EA006C3A2000506F7765723A20005370656525
:1027FA00643A0074686520696E73747275637469EB
:10280A006F6E7320617265205B7465726D4E756DB3
:10281A005D3A5B636F6D6D616E645D3B004E756D15
:10282A005465726D0954696D650953746174650064
:10283A002D2D2D2D2D2D2D2D2D2D2D2D2D2D2D2DBE
:0A284A002D2D2D2D2D2D2D2D00001C
:00000001FF
