:100000000C9468000C945A080C9433080C949000DB
:100010000C9490000C9490000C9490000C94900020
:100020000C9490000C9400090C9490000C94900097
:100030000C9490000C94D9080C9490000C949000AF
:100040000C94E9070C9490000C94A7080C94810878
:100050000C9490000C9490000C9490000C949000E0
:100060000C9490000C9490000A0B0C0D0E0F0000E5
:100070000000240027002A000000000025002800BE
:100080002B000000000023002600290004040404C3
:100090000404040402020202020203030303030332
:1000A000010204081020408001020408102001020F
:1000B00004081020000000080002010000030407EB
:1000C00000000000000000000001020304057209A6
:1000D00011241FBECFEFD8E0DEBFCDBF11E0A0E0FE
:1000E000B1E0E8ECF2E202C005900D92A838B10749
:1000F000D9F722E0A8E8B1E001C01D92A437B20709
:10010000E1F710E0C8E6D0E004C02197FE010E94AC
:10011000470FC736D107C9F70E94C3090C94621173
:100120000C940000833081F028F4813099F0823003
:10013000A9F008958730A9F08830C9F08430B1F46F
:10014000809180008F7D03C0809180008F778093A5
:100150008000089584B58F7784BD089584B58F7D20
:10016000FBCF8091B0008F778093B000089580918D
:10017000B0008F7DF9CFCF93DF93282F30E0F901C6
:10018000EC54FF4F8491F901E056FF4FD491F901EF
:10019000E457FF4FC491CC23A1F081110E9492003B
:1001A000EC2FF0E0EE0FFF1FEE57FF4FA591B4913B
:1001B000EC91ED2381E090E009F480E0DF91CF91B4
:1001C000089580E090E0FACF1F93CF93DF93282F1C
:1001D00030E0F901EC54FF4F8491F901E056FF4FF4
:1001E000D491F901E457FF4FC491CC23A9F0162F05
:1001F00081110E949200EC2FF0E0EE0FFF1FE858F3
:10020000FF4FA591B4918FB7F894EC91111108C0EC
:10021000D095DE23DC938FBFDF91CF911F9108959E
:10022000DE2BF8CF682F809155020E94E400809168
:100230006C0290916D028230910538F0880F991F01
:10024000880F991F05970197F1F7089581E00C94A5
:100250001201682F809154029091550289130C94D9
:10026000E4000895CF93DF9390E0FC01E056FF4F48
:10027000249184579F4FFC0184918823C9F090E01A
:10028000880F991FFC01E259FF4FA591B491FC0121
:10029000E858FF4FC591D49161110DC09FB7F894F4
:1002A0008C91209582238C938881282328839FBF5B
:1002B000DF91CF910895623051F49FB7F8943C914B
:1002C000822F809583238C93E8812E2BEFCF8FB7DD
:1002D000F894EC912E2B2C938FBFEACF8E50806434
:1002E00080937C0080917A00806480937A00809172
:1002F0007A0086FDFCCF8091780090917900089576
:100300003FB7F8948091A9019091AA01A091AB0107
:10031000B091AC0126B5A89B05C02F3F19F00196FE
:10032000A11DB11D3FBFBA2FA92F982F8827BC014F
:10033000CD01620F711D811D911D42E0660F771F77
:10034000881F991F4A95D1F708958F929F92AF9277
:10035000BF92CF92DF92EF92FF924B015C010E941D
:1003600080016B017C010E9480016C197D098E095E
:100370009F09683E734081059105A8F321E0821A28
:100380009108A108B10888EEC80E83E0D81EE11CD0
:10039000F11C81149104A104B10429F7FF90EF909E
:1003A000DF90CF90BF90AF909F908F9008952FB720
:1003B000F8946091A5017091A6018091A701909198
:1003C000A8012FBF089582E00E94BB0021E0892B85
:1003D00009F420E080E18093810080919A018217E6
:1003E00039F081E08093A3012093AD0120939A011D
:1003F00008950895AF92BF92CF92DF92EF92FF924D
:100400000F931F93CF93DF936C017B018B01040F3C
:10041000151FEB015E01AE18BF08C017D10759F0D8
:100420006991D601ED91FC910190F081E02DC6011A
:100430000995892B79F7C501DF91CF911F910F9114
:10044000FF90EF90DF90CF90BF90AF900895FC01A8
:10045000538D448D252F30E0842F90E0821B930B29
:10046000541710F0CF96089501970895FC01918DCF
:10047000828D981761F0A28DAE0FBF2FB11D5D96D2
:100480008C91928D9F5F9F73928F90E008958FEF74
:100490009FEF08950F931F930E94D7016093BC01B3
:1004A0007093BD018093BE019093BF0184EB91E0F6
:1004B0000E94360297FF1DC00E94D7010091BC0127
:1004C0001091BD012091BE013091BF01601B710BE5
:1004D000820B930B0091B8011091B9012091BA01E0
:1004E0003091BB016017710782079307F8F28FEF15
:1004F0009FEF1F910F910895FC01918D828D9817A8
:1005000031F0828DE80FF11D858D90E008958FEF19
:100510009FEF0895FC01918D228D892F90E0805CE2
:100520009F4F821B91098F739927089584EB91E067
:100530000E948A0221E0892B09F420E0822F08958D
:10054000FC01A48DA80FB92FB11DA35ABF4F2C9148
:10055000848D90E001968F739927848FA689B7893F
:100560002C93A089B1898C91837080648C93938D36
:10057000848D981306C00288F389E02D80818F7DD9
:1005800080830895EF92FF920F931F93CF93DF9391
:10059000EC0181E0888F9B8D8C8D98131AC0E889BF
:1005A000F989808185FF15C09FB7F894EE89FF898E
:1005B0006083E889F98980818370806480839FBF2C
:1005C00081E090E0DF91CF911F910F91FF90EF902C
:1005D0000895F62E0B8D10E00F5F1F4F0F7311273C
:1005E000E02E8C8D8E110CC00FB607FCFACFE88977
:1005F000F989808185FFF5CFCE010E94A002F1CF5D
:10060000EB8DEC0FFD2FF11DE35AFF4FF0829FB7EA
:10061000F8940B8FEA89FB8980818062CFCFCF93DA
:10062000DF93EC01888D8823B9F0AA89BB89E8891A
:10063000F9898C9185FD03C0808186FD0DC00FB6C0
:1006400007FCF7CF8C9185FFF2CF808185FFEDCF3E
:10065000CE010E94A002E9CFDF91CF9108950895C5
:10066000E0E7F0E080818E7F8083089510928F0113
:1006700010929001109291011092920110928A01B1
:1006800080919301909194018093B200E0E7F0E0B3
:1006900080818160808308956115710581059105D0
:1006A000D1F581E090E0A0E0B0E080938B019093E1
:1006B0008C01A0938D01B0938E01509389014093DA
:1006C0008801809170008E7F809370008091B000CF
:1006D0008C7F8093B0008091B100877F8093B100C0
:1006E0008091B6008F7D8093B600809170008D7FE1
:1006F000809370008091B10084608093B1008091FC
:10070000B1008C7F8093B10086E090E090939401DB
:1007100080939301089560938B0170938C01809373
:100720008D0190938E01C9CF8EBD00000DB407FEE0
:10073000FDCF8EB508950E94300360E08EE00C94EA
:10074000E400BC0190E080E04BE953E00E944C03E0
:100750000E94360361E08EE00C94E40080919E01DB
:10076000882351F082E10E94BB0061E0892B09F0EF
:1007700060E082E10E94E40080919D01882351F0B5
:1007800083E10E94BB0061E0892B09F060E083E116
:100790000E94E40080919C01882351F081E10E9435
:1007A000BB0061E0892B09F060E081E10E94E40078
:1007B00080919B01882351F08EE00E94BB0061E094
:1007C000892B09F060E08EE00C94E400089597FD19
:1007D0000196BC0175956795072E000C880B990B47
:1007E0004EEA53E00E944C030E94360380919E0122
:1007F000882321F060E082E10E94E40080919D0165
:10080000882321F060E083E10E94E40080919C0154
:10081000882321F060E081E10C94E4000895809148
:1008200007018823A9F080E1809381001092800065
:1008300082E08093980180E197E290939701809302
:100840009601909387008093860082E180938100D7
:100850000895FC0101900020E9F73197AF01481B92
:10086000590BBC0184EB91E00C94FA018F929F929A
:10087000AF92BF920F931F93CF93DF93CDB7DEB7A5
:10088000A1970FB6F894DEBF0FBECDBF19A24230BC
:1008900008F44AE08E010F5D1F4F842E912CB12C7D
:1008A000A12CA50194010E94EE0EE62FB901CA0108
:1008B000EA30F4F4E05DD801EE938D01232B242B74
:1008C000252B79F790E080E0109719F0CD010E9478
:1008D0002904A1960FB6F894DEBF0FBECDBFDF91FD
:1008E000CF911F910F91BF90AF909F908F900895DF
:1008F000E95CE1CF0F931F930091560210915702CC
:10090000209158023091590240E052E16AE770E0CC
:1009100080E0041715072607370740F4769567959A
:10092000579547958F5F8630A1F787E0982F906A9B
:100930009695809581709CBD8DBD80E01F910F9133
:100940000C941201CF93C82F0E947A048C2F0E941E
:10095000940380935A028FEF0E949403C82F0E9441
:1009600026018C2FCF910895CF93DF93D82FC62FD8
:100970000E947A048D2F80620E94940380935A0211
:100980008C2F0E949403DF91CF910C9426016091EB
:10099000610261FD0AC062606093610280E00E94B2
:1009A000B4048BE19EE40197F1F708958D3708F0C8
:1009B0008DE7682F85E00C94B404FF920F931F938A
:1009C000CF93DF93C82FF62E072F142F0E947A049F
:1009D0008C2F80620E94940380935A02CF2DD02FD7
:1009E000115020F089910E949403FACFDF91CF91AA
:1009F0001F910F91FF900C9426010E94C7046091F3
:100A0000610261606093610280E00E94B40460E76B
:100A100087E00E94B40481E00E9429018091630272
:100A2000882339F0409165026CE572E08AE00C940D
:100A3000DD0482E00E94A204E8ECF0E0E49121E011
:100A400030E001C0220FEA95EAF72095622F682373
:100A500082E00E94B404109263020895CF93C82FDD
:100A60000E947A048C2F0E94940380935A02CF91A3
:100A70000C94260181EE0E942E0580915A02089561
:100A800080E00E9429018091680290916902823081
:100A9000910538F0880F991F880F991F05970197C6
:100AA000F1F78091640281110E943A056091610220
:100AB0006E7F6093610280E00E94B40482E00E9435
:100AC000A204E8ECF0E0E49161E070E001C0660FA0
:100AD000EA95EAF7682B82E00C94B404CF92DF9297
:100AE000EF92FF920F931F93CF93DF939091660243
:100AF000911118C0D0915B02C82FD81708F4CD2FE0
:100B0000DC1B0E947A0480EA0E94940380935A02BC
:100B10000DEA11E0C15070F0F80181918F010E943F
:100B20009403F8CFD1E08111D0E0C82F813248F38F
:100B3000C0E2E7CFD15020F080E00E949403FACFCA
:100B40000E94260181E00E9429010E94D7016B01C9
:100B50007C018FEF0E942E0580915A028073C1F4B0
:100B60000E94D7016C197D098E099F0960367105B5
:100B70008105910570F381E08093670280E0DF9149
:100B8000CF911F910F91FF90EF90DF90CF9008953C
:100B900080E00E94290160E787E00E94B404809110
:100BA0005A0284FF03C00E943A05E8CF81E0E7CFF4
:100BB000CF93DF931092A30160E08EE00E94E400E7
:100BC00061E082E10E94E40061E083E10E94E400D0
:100BD00061E081E10E94E4000E9430030E94400530
:100BE000909199018DE7891B0E94D60487E00E94AD
:100BF0006E05CBE0D0E0811106C0219721F087E09F
:100C00000E946E05F8CF9091060191111AC01092C2
:100C100007018091AD0191E089278093AD0162E0E9
:100C200070E080E090E00E94A50187E00E946E05E0
:100C3000CAE0D0E0811115C087E00E946E052197BF
:100C4000C9F781110EC084EF91E00E94A103909139
:100C5000AE0184E7891B0E94D604DF91CF910C94EA
:100C6000FD0489E190E0F1CF0E947A0480E50E94C2
:100C7000940380935A0283E70E9494030C94260104
:100C8000CF92DF92EF92FF92CF93DF936C01990F97
:100C9000EE08FF08F7FE1FC06DE284EB91E00E94B2
:100CA000C202EC0166277727CB016C197D098E09FA
:100CB0009F094AE00E943604C80FD91F8CE291E0D8
:100CC0000E9429048C0F9D1FDF91CF91FF90EF9020
:100CD000DF90CF9008954AE0C701B6010E94360424
:100CE000EC01ECCF0F931F93CF93DF93EC0188813E
:100CF0009981009759F02A813B812617370730F0F8
:100D000081E0DF91CF911F910F9108958B016F5F6B
:100D10007F4F0E947210009759F0998388831B833C
:100D20000A832C813D81232B59F7FC011082E8CFE7
:100D300080E0E7CFCF93DF93EC0188819981009722
:100D400011F00E94E90F198218821D821C821B82F9
:100D50001A82DF91CF910895EF92FF920F931F9324
:100D6000CF93DF93EC017B018A01BA010E947206E6
:100D700081110BC0CE010E949A06CE01DF91CF9166
:100D80001F910F91FF90EF9008951D830C83B70181
:100D9000888199810E944111F0CFFB0101900020D0
:100DA000E9F73197AF01461B570B0C94AC06FC01D9
:100DB00080819181009711F00C94E90F08958F9232
:100DC0009F92AF92BF92CF92DF92EF92FF920F93DA
:100DD0001F93CF93DF93CDB7DEB762970FB6F8942A
:100DE000DEBF0FBECDBF18861F821A8619861C86ED
:100DF0001B866EE271E0CE0107960E94CD060E942E
:100E00004A0297FD1BC089831A820B851C850F5FE0
:100E10001F4FB801CE0107960E947206882379F30E
:100E20002F8138858B859C85BE016F5F7F4F820F38
:100E3000931F0E9441111C870B87E1CF1A821982F0
:100E40001C821B821E821D826FE271E0CE01019620
:100E50000E94CD068B859C852D813E818C01021BD5
:100E6000130B2115310541F1009731F182179307DA
:100E700018F10817190718F08C0101501109EF80BB
:100E8000F884C980DA80C70188248A9499249A94C6
:100E90005701A00EB11EA816B90690F0B6010E9427
:100EA0004811009769F09C012E193F09021713079A
:100EB00008F049010196EFCF88248A9499249A94E6
:100EC0001E861D86188A1F861A8A198A6EE271E0AC
:100ED000CE010D960E94CD068B859C85009719F159
:100EE00084018815990508F48C01EF81F885E00FDD
:100EF000F11FF08010826F8178856115710509F40A
:100F00004CC0FB0101900020E9F73197AF01461B6F
:100F1000570BCE010D960E94AC068F819885080F65
:100F2000191FF801F082CE0101960E94D706898927
:100F30009A89892BB9F00D851E8561E371E0C8019E
:100F40000E943811892B71F585E00E94A204682F58
:100F500070E090E080E04AE00E9436048CE291E08C
:100F60000E942904CE010D960E94D706CE01079655
:100F70000E94D70662960FB6F894DEBF0FBECDBFB3
:100F8000DF91CF911F910F91FF90EF90DF90CF9065
:100F9000BF90AF909F908F900895CE010D960E94C4
:100FA0009A06BBCF6DE371E0C8010E943811892B0E
:100FB000C9F689E491E00E9429044AE06AE170E000
:100FC00080E090E0C9CF0E94960281110C94DF0668
:100FD00008951F920F920FB60F9211242F933F93F3
:100FE0008F939F93AF93BF938091A5019091A6019A
:100FF000A091A701B091A8013091A40123E0230F93
:101000002D3758F50196A11DB11D2093A4018093A1
:10101000A5019093A601A093A701B093A801809188
:10102000A9019091AA01A091AB01B091AC010196E8
:10103000A11DB11D8093A9019093AA01A093AB01BA
:10104000B093AC01BF91AF919F918F913F912F9140
:101050000F900FBE0F901F90189526E8230F029651
:10106000A11DB11DD2CF1F920F920FB60F92112466
:101070002F933F934F935F936F937F938F939F93A0
:10108000AF93BF93EF93FF93E0910201F0910301BF
:101090000995FF91EF91BF91AF919F918F917F91B2
:1010A0006F915F914F913F912F910F900FBE0F90D5
:1010B0001F9018951F920F920FB60F9211242F9325
:1010C0003F934F935F936F937F938F939F93AF93D0
:1010D000BF93EF93FF93E0910001F0910101099517
:1010E000FF91EF91BF91AF919F918F917F916F9100
:1010F0005F914F913F912F910F900FBE0F901F90D6
:1011000018951F920F920FB60F9211242F933F93B1
:101110004F935F936F937F938F939F93AF93BF93FF
:10112000EF93FF9384EB91E00E94A002FF91EF9177
:10113000BF91AF919F918F917F916F915F914F91EF
:101140003F912F910F900FBE0F901F9018951F92F7
:101150000F920FB60F9211242F938F939F93EF93BB
:10116000FF93E091C401F091C5018081E091CA0133
:10117000F091CB0182FD1BC090818091CD018F5FEA
:101180008F732091CE01821741F0E091CD01F0E004
:10119000EC54FE4F958F8093CD01FF91EF919F917D
:1011A0008F912F910F900FBE0F901F9018958081F7
:1011B000F4CF1F920F920FB60F9211242F933F93EB
:1011C0004F935F936F937F938F939F93AF93BF934F
:1011D000EF93FF93E0910401F09105010995FF91D0
:1011E000EF91BF91AF919F918F917F916F915F919F
:1011F0004F913F912F910F900FBE0F901F90189518
:101200001F920F920FB60F9211242F933F934F937B
:101210005F936F937F938F939F93AF93BF93EF935E
:10122000FF9380919301909194018093B2008091FB
:101230008F0190919001A0919101B091920101963E
:10124000A11DB11D80938F0190939001A0939101F6
:10125000B093920180918F0190919001A0919101A2
:10126000B091920140918B0150918C0160918D0160
:1012700070918E0184179507A607B70710F180912A
:101280008A0181111EC081E080938A0180918F01C3
:1012900090919001A0919101B0919201841B950BC6
:1012A000A60BB70B80938F0190939001A0939101AF
:1012B000B0939201E0918801F09189010995109213
:1012C0008A01FF91EF91BF91AF919F918F917F9193
:1012D0006F915F914F913F912F910F900FBE0F90A3
:1012E0001F901895E4EBF1E01382128288EE93E0F0
:1012F000A0E0B0E084839583A683B7838EE191E07C
:101300009183808385EC90E09587848784EC90E0DE
:101310009787868780EC90E0918B808B81EC90E0C2
:10132000938B828B82EC90E0958B848B86EC90E0A3
:10133000978B868B118E128E138E148EE2E5F2E05F
:101340008AE0828389E0838380E896E9A8E9B0E0B7
:1013500084839583A683B78380E28187108A118A6C
:1013600085E0838B81E0848B158A85E090E0A0E0A6
:10137000B0E0828F938FA48FB58F81E592E0918347
:10138000808312860895CF93DF93CDB7DEB7AB97F6
:101390000FB6F894DEBF0FBECDBF789484B58260DF
:1013A00084BD84B5816084BD85B5826085BD85B509
:1013B000816085BD80916E00816080936E00109287
:1013C0008100809181008260809381008091810002
:1013D0008160809381008091800081608093800093
:1013E0008091B10084608093B1008091B0008160F1
:1013F0008093B00080917A00846080937A0080911D
:101400007A00826080937A0080917A008160809374
:101410007A0080917A00806880937A001092C100EF
:10142000E091C401F091C50182E08083E091C001A8
:10143000F091C1011082E091C201F091C30180E1FD
:1014400080831092CC01E091C801F091C90186E03F
:101450008083E091C601F091C70180818061808323
:10146000E091C601F091C701808188608083E0919E
:10147000C601F091C701808180688083E091C60138
:10148000F091C70180818F7D808389E491E00E9483
:1014900029044AE06AE170E080E090E00E943604AE
:1014A0008CE291E00E94290460E084E10E94320114
:1014B0001FB7F89480919501811127C0E6E9F0E00B
:1014C0008491EAEAF0E09491E82FF0E0EE0FFF1F3C
:1014D000E259FF4FA591B491EC91E92321F461E029
:1014E0008AE00E94E40061E08AE00E9432018CB54B
:1014F00080618CBD8CB580648CBD61E08DE00E9404
:10150000320161E08BE00E943201809195018F5F92
:10151000809395011FBF809154028F3F09F488C0CA
:10152000909155029F3F09F483C0891741F061E013
:101530000E94320161E0809155020E94320180E0F8
:101540000E94290181E00E94120165E070E080E0C4
:1015500090E00E94A5016FE584E00E94B40486E05B
:101560000E94A20445E550E060E070E0409368020C
:101570005093690260936A0270936B02682F677DD3
:1015800086E00E94B40486E00E94A2048DE10E94DD
:10159000A204182F0E9434068DE10E94A20491E05B
:1015A000181390E090936202882341F0181302C050
:1015B0000E94340660E08DE10E94B404109264023F
:1015C00060E08CE10E94B404109266026FE381E057
:1015D0000E94B40463E082E00E94B40480E280933D
:1015E0005B0211E160915B02812F0E94B4041F5FD6
:1015F0001731C1F763E083E00E94B40485E0809373
:1016000065028CE40E94D60460E787E00E94B4047F
:1016100082EE0E942E050E943A056CE080E00E9456
:10162000B40480E00E94A204809361020E94C70477
:101630006FE184E00E94B4048CE0EEE0F1E09E01F2
:101640002F5F3F4F6901D90101900D928A95E1F713
:101650007E013DE0E30EF11C870182E0E81AF1080B
:10166000F701B08062E08B2D0E9432018091AE01C3
:101670009091AF01880F991F9093AF018093AE01B5
:101680008B2D0E94BB00892B49F48091AE01909173
:10169000AF0101969093AF018093AE01EC14FD046D
:1016A000E1F686E591E00E9429048091AE019091D7
:1016B000AF010E9440069091AE0184E7891B0E9411
:1016C000D60484EB91E00E940F0362E085E10E9462
:1016D000320162E08FE00E94320162E080E10E940C
:1016E000320185E10E946E01803891051CF481E091
:1016F000809399018FE00E94BB0020919901892B72
:1017000019F42E5F2093990180E10E94BB00209183
:101710009901892B19F42C5F20939901F09099017C
:101720002F2D30E040E050E060E070E080E090E09D
:101730002E523F404F405F406F407F4F8F4F9F4F33
:101740002E8B3F8B488F598F6A8F7B8F8C8F9D8F0D
:1017500040916502BE016A5E7F4F8AE00E94DD040F
:1017600040916502BE016A5E7F4F80E10E94DD0408
:101770002F2D30E040E050E060E070E080E090E04D
:101780002F513F404F405F406F407F4F8F4F9F4FE3
:101790002E8F3F8F48A359A36AA37BA38CA39DA33D
:1017A000E9E6F0E0849140916502BE01625E7F4F00
:1017B0000E94DD0482E00E94A204E9ECF0E0E491E2
:1017C00061E070E001C0660FEA95EAF7682B82E0FD
:1017D0000E94B4040E94FD041FA21EA219A618A60E
:1017E0001BA61AA64AE0B8018F2D90E00E94630E56
:1017F000F80101900020E9F73197AF01401B510B30
:10180000B801CE0186960E94AC061E861D86188AF7
:101810001F861A8A198A60E671E0C8010E94CD0607
:101820008AA59BA5CEA0DFA0E988FA88E80EF91E5C
:10183000C114D10409F411C1892B91F0B701C80179
:101840000E947206882309F408C12D853E85898986
:101850009A89B601820F931F0E944111FA8AE98A80
:1018600049895A896D857E8584EB91E00E94FA0151
:101870008CE291E00E942904C8010E94D706CE01A3
:1018800086960E94D7068FE094E0909301018093A2
:101890000001809169008C7F816080936900E89AE3
:1018A00061E081E10E94320161E083E10E94320146
:1018B00061E082E10E94320161E08EE00E9432012B
:1018C00061E08EE00E94E40064E670E080E090E079
:1018D0000E94A50160E08EE00E94E40062E082E0E8
:1018E0000E94320161E082E10E94E40061E083E154
:1018F0000E94E40061E081E10E94E40010E11093A5
:1019000081001092800082E08093980180E197E24C
:10191000909397018093960190938700809386001F
:1019200082E1809381008AE691E00E9429044AE0E6
:1019300060E177E280E090E00E9436048CE291E082
:101940000E94290483EE91E09093050180930401A5
:1019500081E080936F001093810082E00E94BB00C1
:1019600021E0892B09F420E02093AD0120939A0116
:1019700089E791E00E94290486E00E94A204682F72
:10198000676086E00E94B40486E00E94A204682F8B
:1019900070E075956795637070E090E080E04AE0D4
:1019A0000E9436048CE291E00E9429041092A30167
:1019B00081E891E00E94290486E00E94A204282F79
:1019C000287282E090E0203229F081E090E0283017
:1019D00009F080E00E9440063AE0C32ED12C4EEB85
:1019E000442E512C612C712C5DE7252E64E7362E98
:1019F0007AE5872E72E4972E7FE0A72EB12C809196
:101A0000A30181110E94D80587E10E94A20480FDF4
:101A100045C080916602F12C94E0E92E811109C045
:101A200080915B02E82E853010F024E0E22EF82E43
:101A3000FE180E947A0481E60E94940380935A0261
:101A40000FE911E0EA94FFEFEF1659F08FEF0E94D3
:101A50009403F80181938F01F5CFC8010E949A0683
:101A6000FFCEFA94FFEFFF1621F08FEF0E94940350
:101A7000F8CF0E94260160E487E00E94B4040E942F
:101A800040052091A1013091A2018091AE01909179
:101A9000AF012817390751F00E94FD040E949602F9
:101AA000882309F4ACCF0E94DF06A9CF00919F01E3
:101AB0001091A0010E94300361E082E10E94E400E5
:101AC00061E083E10E94E40061E081E10E94E400C2
:101AD00060E08EE00E94E40010929E0110929D0151
:101AE00010929C0110929B01109207010E943003FA
:101AF00001FF07C060E082E10E94E40081E0809382
:101B00009E0102FF07C060E083E10E94E40081E0E3
:101B100080939D0103FF07C060E081E10E94E40023
:101B200081E080939C0104FF07C061E08EE00E9489
:101B3000E40081E080939B0105FF04C08BE490E00A
:101B40000E94E70300FF11C00E94D70182E00E94BB
:101B5000BB0021E0892B09F420E020939A0181E069
:101B60008093070110920601789410FF11C00E9423
:101B7000D70182E00E94BB0021E0892B09F420E01C
:101B800020939A0181E08093070180930601789465
:101B900011FF3BC082E00E94BB0021E0892B09F4C9
:101BA00020E02093AD018092B0019092B101A0920B
:101BB000B201B092B3011092A301FF24F394F0920A
:101BC0000601F09207010E94D80561E08EE00E94B4
:101BD000E40010929E01F0929D0110929C018BE412
:101BE00090E00E94E7036AEF70E080E090E00E94DE
:101BF000A5010E94300360E08EE00E94E40061E0F5
:101C000083E10E94E40010929D0112FF52C08AE01D
:101C1000E82EF12C10E000E084E10E946E01080F34
:101C2000191F64E670E080E090E00E94A50121E0C9
:101C3000E21AF10889F7C801B6010E941F0F9B0143
:101C4000770F440B550B2855324041095109A4E642
:101C5000B0E00E94AC0EA30192010E948D0E2536C9
:101C6000310514F024E630E037FF02C030E020E018
:101C7000C901330FAA0BBB0B8093B0019093B10144
:101C8000A093B201B093B3010E94400580919901E5
:101C9000322D381B832F0E94D60487E00E946E05E8
:101CA0008091AE01932D981B892F0E94D6040E942B
:101CB000FD048091AE01E32DE81B8E2F0E94D60417
:101CC0000E94FD04A1CEBB27FB015527AA27880F40
:101CD000991FAA1FA41710F0A41B83955051B9F7A0
:101CE000A05DAA3308F0A95DA193009779F7B1111F
:101CF000B1931192CB010C947D0EDC01FC01672F96
:101D000071917723E1F7329704C07C916D937083D2
:101D10006291AE17BF07C8F30895052E97FB1EF416
:101D200000940E94A40E57FD07D00E94EE0E07FCFF
:101D300003D04EF40C94A40E509540953095219507
:101D40003F4F4F4F5F4F08959095809570956195E7
:101D50007F4F8F4F9F4F08950E94100FA59F900DAA
:101D6000B49F900DA49F800D911D112408952F9272
:101D70003F924F925F926F927F928F929F92AF921B
:101D8000BF92CF92DF92EF92FF920F931F93CF9368
:101D9000DF93CDB7DEB7CA1BDB0B0FB6F894DEBFFF
:101DA0000FBECDBF09942A88398848885F846E8425
:101DB0007D848C849B84AA84B984C884DF80EE806F
:101DC000FD800C811B81AA81B981CE0FD11D0FB678
:101DD000F894DEBF0FBECDBFED010895A1E21A2E2B
:101DE000AA1BBB1BFD010DC0AA1FBB1FEE1FFF1FBF
:101DF000A217B307E407F50720F0A21BB30BE40B0F
:101E0000F50B661F771F881F991F1A9469F7609555
:101E10007095809590959B01AC01BD01CF0108950F
:101E2000A29FB001B39FC001A39F700D811D11241B
:101E3000911DB29F700D811D1124911D089597FB76
:101E4000072E16F4009407D077FD09D00E94330FB7
:101E500007FC05D03EF4909581959F4F08957095AD
:101E600061957F4F0895AA1BBB1B51E107C0AA1FB4
:101E7000BB1FA617B70710F0A61BB70B881F991F2B
:101E80005A95A9F780959095BC01CD010895EE0F64
:101E9000FF1F0590F491E02D09940F931F93CF93AA
:101EA000DF938230910510F482E090E0E0917202BD
:101EB000F091730230E020E0B0E0A0E0309799F4B8
:101EC0002115310509F44AC0281B390B243031058E
:101ED000D8F58A819B816115710589F1FB01938396
:101EE0008283FE0111C04081518102811381481714
:101EF0005907E0F04817590799F4109761F01296C6
:101F00000C93129713961C933296CF01DF91CF91C9
:101F10001F910F9108950093720210937302F4CFF2
:101F20002115310551F04217530738F0A901DB01A3
:101F30009A01BD01DF01F801C1CFEF01F9CF909304
:101F4000730280937202CDCFFE01E20FF31F8193E3
:101F500091932250310939832883D7CF2091700281
:101F600030917102232B41F420910A0130910B0131
:101F70003093710220937002209108013091090181
:101F80002115310541F42DB73EB740910C01509118
:101F90000D01241B350BE0917002F0917102E217E4
:101FA000F307A0F42E1B3F0B2817390778F0AC017C
:101FB0004E5F5F4F2417350748F04E0F5F1F509359
:101FC000710240937002819391939FCFF0E0E0E023
:101FD0009CCFCF93DF930097E9F0FC0132971382F7
:101FE0001282A0917202B0917302ED0130E020E004
:101FF0001097A1F420813181820F931F20917002EC
:10200000309171022817390709F061C0F09371020D
:10201000E0937002DF91CF910895EA01CE17DF07B8
:10202000E8F54A815B819E0141155105B1F7E9014F
:10203000FB83EA8349915991C40FD51FEC17FD0723
:1020400061F4808191810296840F951FE901998343
:102050008883828193819B838A83F0E0E0E01296FB
:102060008D919C9113970097B9F52D913C91119703
:10207000CD010296820F931F209170023091710260
:102080002817390739F6309751F5109273021092DC
:102090007202B0937102A0937002BCCFD383C2834B
:1020A00040815181840F951FC817D90761F44E5F95
:1020B0005F4F88819981480F591F518340838A81DE
:1020C0009B81938382832115310509F0B0CFF09372
:1020D0007302E09372029ECFFD01DC01C0CF138238
:1020E0001282D7CFB0E0A0E0E8E7F0E10C94B90E9F
:1020F0008C01009751F4CB010E944D0F8C01C80157
:10210000CDB7DEB7E0E10C94D50EFC01E60FF71F6A
:102110009C0122503109E217F30708F49DC0D90150
:10212000CD91DC911197C617D70798F0C530D1052E
:1021300030F3CE0104978617970708F3C61BD70B19
:102140002297C193D1936D937C93CF010E94E90FA5
:10215000D6CF5B01AC1ABD0A4C018C0E9D1EA0911E
:102160007202B0917302512C412CF12CE12C10978A
:1021700031F580917002909171028815990509F0EE
:102180005CC04616570608F058C08091080190912F
:102190000901009741F48DB79EB740910C01509111
:1021A0000D01841B950BE817F90708F055C0F09353
:1021B0007102E0937002F90171836083A0CF8D9169
:1021C0009C91119712966C90129713967C9013978E
:1021D000A815B90559F56C0142E0C40ED11CCA140A
:1021E000DB0420F1AC014A195B09DA01129615975C
:1021F00080F06282738251834083D9016D937C9316
:10220000E114F10471F0D7011396FC93EE93129749
:1022100076CF22968C0F9D1FF90191838083F30165
:10222000EFCFF0937302E093720269CF481659061C
:1022300008F42C017D01D3019ACFCB010E944D0FF0
:102240007C01009749F0AE01B8010E942F11C8012E
:102250000E94E90F870153CF10E000E050CFFB014F
:10226000DC0102C001900D9241505040D8F7089512
:10227000FB01DC018D91019080190110D9F3990BBC
:102280000895FB01DC0101900D920020E1F7089513
:10229000FB0151915523A9F0BF01DC014D91451778
:1022A0004111E1F759F4CD010190002049F04D9121
:1022B00040154111C9F3FB014111EFCF81E090E0DE
:0822C00001970895F894FFCF87
:1022C800F901F9012F0301010000740280000300E5
:1022D8000400050006000700080000000000C20214
:1022E800FA0127020F038A0236027C020D0A003B1C
:1022F800006765745F6368616E6E656C006765741E
:102308005F76657273696F6E00576966692D5365EC
:102318006E736F722D007465726D4E756D3A200084
:102328004368616E6E656C3A20006465626F756E15
:10233800636554696D653A2000506F7765723A207D
:082348000053706565643A0062
:00000001FF
