:100000000C9481000C9418080C94F1070C94A9002E
:100010000C94A9000C94A9000C94A9000C94A900BC
:100020000C94A9000C94A9000C94A9000C94A900AC
:100030000C94A9000C94A9000C94A9000C94A9009C
:100040000C94A7070C94A9000C9465080C943F0825
:100050000C94A9000C94A9000C94A9000C94A9007C
:100060000C94A9000C94A9004E414E494E49545994
:10007000494E46CDCCCC3D0AD7233C17B7D1387773
:10008000CC2B329595E6241FB14F0A000020410089
:1000900000C84200401C4620BCBE4CCA1B0E5AAED3
:1000A000C59D7400000000240027002A0000000005
:1000B00000250028002B0000000000230026002956
:1000C0000004040404040404040202020202020301
:1000D000030303030301020408102040800102040B
:1000E000081020010204081020000000080002018E
:1000F0000000030407000000000000000000970853
:10010000220D11241FBECFEFD8E0DEBFCDBF23E00C
:10011000A8E7B2E001C01D92A234B207E1F712E0F5
:10012000A0E0B1E0EAEDF7E202C005900D92A83739
:10013000B107D9F710E0C0E8D0E004C02197FE0174
:100140000E94C511CF37D107C9F70E940F090C943F
:10015000E0130C940000CF92DF92EF92FF926B01BC
:100160007C01E0919602F091970282E08083C114B5
:1001700081EED806E104F104A1F060E079E08DE3BE
:1001800090E0A70196010E94841121503109410994
:1001900051095695479537952795211580E13807E0
:1001A000A8F0E0919602F0919702108260E874E85E
:1001B0008EE190E0A70196010E948411215031093F
:1001C000410951095695479537952795E091920237
:1001D000F09193023083E0919402F0919502208394
:1001E00010929E02E0919A02F0919B0286E0808339
:1001F000E0919802F0919902808180618083E09182
:100200009802F0919902808188608083E091980241
:10021000F0919902808180688083E0919802F0914A
:10022000990280818F7D8083FF90EF90DF90CF9047
:100230000895833081F028F4813099F08230A9F05C
:1002400008958730A9F08830C9F08430B1F48091E6
:1002500080008F7D03C0809180008F778093800025
:10026000089584B58F7784BD089584B58F7DFBCFC5
:100270008091B0008F778093B00008958091B00096
:100280008F7DF9CFCF93DF93282F30E0F901E7512D
:10029000FF4F8491F901EB52FF4FD491F901EF53D5
:1002A000FF4FC491CC23A1F081110E941901EC2FC2
:1002B000F0E0EE0FFF1FE954FF4FA591B491EC91D0
:1002C000ED2381E090E009F480E0DF91CF91089583
:1002D00080E090E0FACF1F93CF93DF93282F30E098
:1002E000F901E751FF4F8491F901EB52FF4FD4918F
:1002F000F901EF53FF4FC491CC23A9F0162F8111C0
:100300000E941901EC2FF0E0EE0FFF1FE355FF4FA5
:10031000A591B4918FB7F894EC91111108C0D095C4
:10032000DE23DC938FBFDF91CF911F910895DE2BE9
:10033000F8CF3FB7F89480917E0290917F02A09110
:100340008002B091810226B5A89B05C02F3F19F00D
:100350000196A11DB11D3FBFBA2FA92F982F882745
:10036000BC01CD01620F711D811D911D42E0660F20
:10037000771F881F991F4A95D1F708950C9499010A
:100380000895AF92BF92CF92DF92EF92FF920F93B8
:100390001F93CF93DF936C017B018B01040F151F1B
:1003A000EB015E01AE18BF08C017D10759F0699183
:1003B000D601ED91FC910190F081E02DC6010995E7
:1003C000892B79F7C501DF91CF911F910F91FF9094
:1003D000EF90DF90CF90BF90AF900895FC01538DC8
:1003E000448D252F30E0842F90E0821B930B54170F
:1003F00010F0CF96089501970895FC01918D828D9C
:10040000981761F0A28DAE0FBF2FB11D5D968C9134
:10041000928D9F5F9F73928F90E008958FEF9FEF73
:1004200008952FB7F8948091820290918302A09151
:100430008402B09185022FBF80938E0290938F0229
:10044000A0939002B093910286E892E00E94FD0191
:1004500097FF26C02FB7F894809182029091830273
:10046000A0918402B09185022FBF40918E025091DD
:100470008F026091900270919102841B950BA60BE4
:10048000B70B40918A0250918B0260918C0270915F
:100490008D0284179507A607B707B0F28FEF9FEF7D
:1004A0000895FC01918D828D981731F0828DE80FAF
:1004B000F11D858D90E008958FEF9FEF0895FC0169
:1004C000918D228D892F90E0805C9F4F821B910936
:1004D0008F739927089586E892E00E945F0221E0D9
:1004E000892B09F420E0822F089580E090E0892B89
:1004F00029F00E946B0281110C9400000895FC0108
:10050000A48DA80FB92FB11DA35ABF4F2C91848D74
:1005100090E001968F739927848FA689B7892C93D1
:10052000A089B1898C91837080648C93938D848D24
:10053000981306C00288F389E02D80818F7D808327
:100540000895EF92FF920F931F93CF93DF93EC01E7
:1005500081E0888F9B8D8C8D98131AC0E889F9896A
:10056000808185FF15C09FB7F894EE89FF8960836D
:10057000E889F98980818370806480839FBF81E0EE
:1005800090E0DF91CF911F910F91FF90EF90089530
:10059000F62E0B8D10E00F5F1F4F0F731127E02E0B
:1005A0008C8D8E110CC00FB607FCFACFE889F98943
:1005B000808185FFF5CFCE010E947F02F1CFEB8DC8
:1005C000EC0FFD2FF11DE35AFF4FF0829FB7F89417
:1005D0000B8FEA89FB8980818062CFCFCF93DF9335
:1005E000EC01888D8823B9F0AA89BB89E889F9894B
:1005F0008C9185FD03C0808186FD0DC00FB607FC80
:10060000F7CF8C9185FFF2CF808185FFEDCFCE01B2
:100610000E947F02E9CFDF91CF91089508950F9353
:100620001F930E94990100912503109126032091A8
:10063000270330912803601B710B820B930B60938F
:1006400078027093790280937A0290937B0283E020
:100650000E94420121E0892B09F420E02093240329
:100660001F910F910895FF920F931F93CF93DF93E4
:10067000F82E062FC7E0D0E010E061E0802F0E9446
:100680006B018F2D0E9442010C2E01C0880F0A942D
:10069000EAF7182B60E0802F0E946B01219768F722
:1006A000812FDF91CF911F910F91FF9008958F922D
:1006B0009F92AF92BF92CF92DF92EF92FF920F93F1
:1006C0001F93CF93DF93C82FC12CD12C7601D0E09C
:1006D00080912C030E944201892B19F00E94BE01D7
:1006E000F7CF8FB6F89460912B0380912C030E9472
:1006F0003303182F60912B0380912C030E94330346
:10070000982E60912B0380912C030E943303082FB5
:10071000B12CA12C80912D038A151B0479F070F067
:1007200061E080912B030E946B0160E080912B03BC
:100730000E946B018FEFA81AB80AECCF8FBE892DEB
:1007400090E0B0E0A0E0BA2FA92F982F8827A12B26
:10075000802B110F110B412F50E070E060E0742FDF
:10076000662755274427842B952BA62BB72BC80E1D
:10077000D91EEA1EFB1E0E94BE01DF5FCD13A8CF6B
:100780002C2F30E050E040E0C701B6010E94A611D6
:10079000CA01B901DF91CF911F910F91FF90EF90A6
:1007A000DF90CF90BF90AF909F908F900895FC0105
:1007B00001900020E9F73197AF01481B590BBC01AC
:1007C00086E892E00C94C1018F929F92AF92BF9203
:1007D0000F931F93CF93DF93CDB7DEB7A1970FB6DB
:1007E000F894DEBF0FBECDBF19A2423008F44AE034
:1007F0008E010F5D1F4F842E912CB12CA12CA501D1
:1008000094010E948411E62FB901CA01EA30F4F480
:10081000E05DD801EE938D01232B242B252B79F756
:1008200090E080E0109719F0CD010E94D703A196C7
:100830000FB6F894DEBF0FBECDBFDF91CF911F91F1
:100840000F91BF90AF909F908F900895E95CE1CF9A
:10085000CF93DF930E94D703EC0184E291E00E94E2
:10086000D7038C0F9D1FDF91CF9108954F925F9218
:100870006F927F928F929F92AF92BF92CF92DF92B0
:10088000EF92FF926B017C01AC019B010E947F11F2
:100890008823C1F087E291E00E94D7037C0184E2C3
:1008A00091E00E94D7038E0D9F1DFF90EF90DF9087
:1008B000CF90BF90AF909F908F907F906F905F9000
:1008C0004F90089546015701E894B7F82FEF3FEF96
:1008D0004FE75FE7C501B4010E947F1181110DC090
:1008E0002FEF3FEF4FE75FE7C501B4010E94D70E3E
:1008F00018161CF48BE291E0CFCF2FEF3FEF4FE7BC
:100900005FE4C701B6010E947A1118161CF48FE249
:1009100091E0C2CF2FEF3FEF4FE75FECC701B60189
:100920000E94D70E87FDF3CF20E030E0A901C70178
:10093000B6010E94D70EB12CA12C87FF0AC06DE230
:1009400086E892E00E94A1025C01F7FAF094F7F8C1
:10095000F0942AE037ED43EA5BE3C701B6010E9459
:1009600066102B013C010E944B116B017C010E941F
:10097000DC0E9B01AC01C301B2010E9465102B018A
:100980003C014AE0C701B6010E94E4037C01EA0C85
:10099000FB1C6EE286E892E00E94A102E80EF91EBE
:1009A00020E030E040E251E4C301B2010E943D0F7B
:1009B0002B013C010E944B114B01B12CA12C4AE0B0
:1009C000C501B4010E94E403E80EF91EC501B4019B
:1009D0000E94DC0E9B01AC01C301B2010E946510B4
:1009E00020E030E040E251E40E943D0F0E944B11B4
:1009F00090E080E04AE00E94E403E80EF91E4FCF49
:100A0000CF92DF92EF92FF92CF93DF936B017C0145
:100A1000F7FE1FC06DE286E892E00E94A102EC01A1
:100A200066277727CB016C197D098E099F094AE05B
:100A30000E94E403C80FD91F84E291E00E94D7030B
:100A40008C0F9D1FDF91CF91FF90EF90DF90CF90A3
:100A500008954AE00E94E403EC01EECFCF92DF92CA
:100A6000EF92FF920F931F93CF93DF93EB017B01E4
:100A700024E0E20EF11C8B016C01C61AD70AC601F4
:100A8000800F911F0E94FE0FF80181938F01EE15D8
:100A9000FF05A9F7CE01DF91CF911F910F91FF9034
:100AA000EF90DF90CF900895CF92DF92EF92FF9278
:100AB0000F931F93CF93DF93EB017B0124E0E20EB2
:100AC000F11C8B016C01C61AD70AC601800F911F59
:100AD0000E94FE0FF80181938F01EE15FF05A9F723
:100AE000CE01DF91CF911F910F91FF90EF90DF909A
:100AF000CF900895FC0180819181009711F00C94B2
:100B0000260D60E070E0CB010895FC0180819181A9
:100B1000009711F00C94671208950C946712AF922D
:100B2000BF92CF92DF92EF92FF920F931F93CF93DA
:100B3000DF936B01EA01FB014481558141155105A9
:100B400061F1FC01248135812115310531F1241732
:100B5000350718F1C217D30710F0E9012197FC01FE
:100B600000811181C801AA24AA94BB24BA947801F7
:100B7000EC0EFD1EE816F906A0F0F6016081718109
:100B80000E94C613009769F09C01201B310BC2170D
:100B9000D30708F059010196EDCFAA24AA94BB24EB
:100BA000BA94C501DF91CF911F910F91FF90EF9003
:100BB000DF90CF90BF90AF900895FC0124813581E4
:100BC000232B39F421E0FB018081882349F020E0C8
:100BD00007C0808191810E94B61321E0892BB9F76B
:100BE000822F08950F931F93CF93DF93EC01888199
:100BF0009981009759F02A813B812617370730F0F9
:100C000081E0DF91CF911F910F9108958B016F5F6C
:100C10007F4F0E94F012009759F0998388831B83BD
:100C20000A832C813D81232B59F7FC011082E8CFE8
:100C300080E0E7CFEF92FF920F931F93CF93DF9364
:100C4000EC017B018A01BA010E94F20528813981F9
:100C5000811114C02115310519F0C9010E946712D4
:100C6000198218821D821C821B821A82CE01DF919A
:100C7000CF911F910F91FF90EF9008951D830C83EA
:100C8000B701C9010E94BF13F1CFFB01DC0111962E
:100C90001C921E9213961C921E92129715961C92ED
:100CA0001E9214978617970749F06081718161152C
:100CB000710521F0448155810C941A060895FC01B8
:100CC000118210821382128215821482FB0101901C
:100CD0000020E9F73197AF01461B570B0C941A0619
:100CE000AF92BF92CF92DF92EF92FF920F931F933A
:100CF000CF93DF93EC016B015A017901241735077B
:100D000020F48B2D5901E42EF82E66E271E0CE011D
:100D10000E945F06D60114960D911C91A016B10693
:100D200028F5E016F10608F48701D601ED91FC9153
:100D30001197E00FF11FF08010826D917C916A0D88
:100D40007B1D61157105F1F0FB0101900020E9F7B1
:100D50003197AF01461B570BCE010E941A06F601D0
:100D600080819181080F191FD801FC92CE01DF917B
:100D7000CF911F910F91FF90EF90DF90CF90BF9098
:100D8000AF90089588819981009711F00E946712B1
:100D9000198218821D821C821B821A82E0CFCF9298
:100DA000DF92EF92FF920F931F93CF93DF93CDB714
:100DB000DEB72C970FB6F894DEBF0FBECDBF7C0117
:100DC0008B0163E371E0CE0107960E945F06F80194
:100DD000448155818B859C85481B590BBE01695FF9
:100DE0007F4FC8010E948F056C016CE172E0CE015B
:100DF00001960E945F06F801448155818D819E8194
:100E0000481B590BBE016F5F7F4FC8010E948F05C1
:100E1000AC014F5F5F4F9601B801C7010E94700699
:100E2000CE0101960E948505CE0107960E94850598
:100E3000C7012C960FB6F894DEBF0FBECDBFDF9171
:100E4000CF911F910F91FF90EF90DF90CF90089579
:100E5000FF920F931F93CF93DF93EC01F62E08813F
:100E60001981C8010E94FE0FF81621F06F2DC801EC
:100E70000E940610CE01DF91CF911F910F91FF903C
:100E80000895AF92BF92CF92DF92EF92FF920F93AD
:100E90001F93CF93DF9300D0CDB7DEB78B016B01EB
:100EA00024E0C20ED11C7B015C01A61AB70AC50161
:100EB0008E0D9F1D9A838983F70161917F01CE0179
:100EC00001960E942807EC14FD0489F7C8010F90D1
:100ED0000F90DF91CF911F910F91FF90EF90DF90D6
:100EE000CF90BF90AF900895AF92BF92CF92DF9214
:100EF000EF92FF920F931F93CF93DF9300D0CDB764
:100F0000DEB78B016B0124E0C20ED11C7B015C01BA
:100F1000A61AB70AC5018E0D9F1D9A838983F70112
:100F200061917F01CE0101960E942807EC14FD0417
:100F300089F7C8010F900F90DF91CF911F910F910A
:100F4000FF90EF90DF90CF90BF90AF9008951F92E9
:100F50000F920FB60F9211242F933F938F939F936D
:100F6000AF93BF938091820290918302A0918402FB
:100F7000B091850230917D0223E0230F2D3758F583
:100F80000196A11DB11D20937D0280938202909352
:100F90008302A0938402B093850280917E02909197
:100FA0007F02A0918002B09181020196A11DB11D26
:100FB00080937E0290937F02A0938002B09381027F
:100FC000BF91AF919F918F913F912F910F900FBE45
:100FD0000F901F90189526E8230F0296A11DB11DB2
:100FE000D2CF1F920F920FB60F9211242F933F93DF
:100FF0004F935F936F937F938F939F93AF93BF9321
:10100000EF93FF93E0910201F09103010995FF91A5
:10101000EF91BF91AF919F918F917F916F915F9170
:101020004F913F912F910F900FBE0F901F901895E9
:101030001F920F920FB60F9211242F933F934F934D
:101040005F936F937F938F939F93AF93BF93EF9330
:10105000FF93E0910001F09101010995FF91EF915B
:10106000BF91AF919F918F917F916F915F914F91C0
:101070003F912F910F900FBE0F901F9018951F92C8
:101080000F920FB60F9211242F933F934F935F93BC
:101090006F937F938F939F93AF93BF93EF93FF9340
:1010A00086E892E00E947F02FF91EF91BF91AF919D
:1010B0009F918F917F916F915F914F913F912F9170
:1010C0000F900FBE0F901F9018951F920F920FB6A2
:1010D0000F9211242F938F939F93EF93FF93E0919F
:1010E0009602F09197028081E0919C02F0919D021E
:1010F00082FD1BC0908180919F028F5F8F73209132
:10110000A002821741F0E0919F02F0E0EA57FD4F04
:10111000958F80939F02FF91EF919F918F912F91D7
:101120000F900FBE0F901F9018958081F4CF1092F2
:1011300089021092880288EE93E0A0E0B0E08093EC
:101140008A0290938B02A0938C02B0938D028EE062
:1011500091E0909387028093860285EC90E09093D3
:1011600093028093920284EC90E090939502809396
:10117000940280EC90E0909397028093960281EC29
:1011800090E0909399028093980282EC90E0909383
:101190009B0280939A0286EC90E090939D0280934C
:1011A0009C0210929F021092A0021092A102109233
:1011B000A20265E371E086E393E00E945F0680E2AD
:1011C00091E090932A038093290310922E031092AA
:1011D0002F03109230031092310380E090E0A0E8DA
:1011E000BFE38093320390933303A0933403B0930F
:1011F00035030E9499016093250370932603809321
:1012000027039093280383E00E94420121E0892B69
:1012100009F420E020932403209323030895CF931F
:10122000DF93CDB7DEB7A2970FB6F894DEBF0FBE3F
:10123000CDBF789484B5826084BD84B5816084BD5F
:1012400085B5826085BD85B5816085BD80916E0064
:10125000816080936E001092810080918100826095
:1012600080938100809181008160809381008091D2
:1012700080008160809380008091B10084608093C1
:10128000B1008091B00081608093B00080917A00BD
:10129000846080937A0080917A00826080937A00E3
:1012A00080917A00816080937A0080917A008068D2
:1012B00080937A001092C10060E072EC81E090E0CF
:1012C0000E94AB0084E080932B0385E080932C0385
:1012D000E9EDF0E02491E5ECF0E08491882399F0C9
:1012E00090E0880F991FFC01ED55FF4FA591B49137
:1012F000FC01E355FF4F859194918FB7F894EC91E1
:10130000E22BEC938FBF80912C0390E0FC01EB5219
:10131000FF4F24918F539F4FFC0184918823C9F084
:1013200090E0880F991FFC01ED55FF4F45915491B6
:10133000FC01E355FF4FA591B4919FB7F894FA01D2
:101340003081822F809583238083EC912E2B2C93E8
:101350009FBF81E080932D031D861E861F86188AFD
:10136000BE01635F7F4F90E080E00E942E058D8577
:101370009E85AF85B8898936FFEF9F07AF07BF0706
:1013800009F0B6C080E197E2A0E0B0E080932E03C0
:1013900090932F03A0933003B09331031A821982E4
:1013A00060E1CE0101960E94280781E090E09A83D7
:1013B000898367E2CE0101960E9428071F82188662
:1013C00019861A86BE01695F7F4F84E090E00E9413
:1013D0005405CF80D884E984FA84A7019601C70117
:1013E000B6010E947F11882309F48BC080E090EC45
:1013F000A4E6B4E48093320390933303A0933403C0
:10140000B093350389839A83AB83BC83BE016F5F3E
:101410007F4F84E090E00E9474078FE093E0909308
:1014200003018093020180916900837F846080932F
:101430006900E99A0FE013E090ECE92E91E0F92EB3
:1014400080E0C82E80E0D82E80917C02882319F19C
:101450009091240380912303981709F45EC0609152
:1014600078027091790280917A0290917B024AE031
:101470000E94E40383E391E00E94D7038091240358
:10148000882309F447C086E491E00E9428048091F3
:1014900024038093230386E892E00E945F02892B55
:1014A00009F4D1C066E271E0CE0149960E945F0660
:1014B0000E94110297FD7DC089831A82AD8CBE8C7B
:1014C0002FEFA21AB20AB501CE0149960E94F20589
:1014D000882371F3298D3A8D8D8D9E8DBE016F5FAE
:1014E0007F4F820F931F0E94BF13BE8EAD8EE0CF41
:1014F00080932E0390932F03A0933003B093310376
:101500005DCFC0923203D0923303E0923403F09265
:10151000350383CF86EA91E0B8CF0E94990180908D
:10152000250390902603A0902703B0902803681904
:1015300079098A099B094AE00E94E40383E391E068
:101540000E94D703E998F0920301E092020181E042
:101550000E94570380902E0390902F03A090300399
:10156000B0903103681979098A099B090E94DE0E3F
:10157000209132033091330340913403509135036D
:101580000E94D2100E9436041093030100930201BE
:1015900080916900837F846080936900E99A83E089
:1015A0000E94420121E0892B09F420E020932403CA
:1015B00072CF6CE172E0CE0101960E945F064D8D04
:1015C0005E8D8D819E81481B590BBE016F5F7F4FE1
:1015D000CE0149960E948F059C0150E040E0BE017B
:1015E000675E7F4FCE0143960E947006CE01019642
:1015F0000E94850568E471E0CE0143960E94DD05F6
:10160000882369F186E591E00E9428040E949901EF
:1016100060932503709326038093270390932803F8
:1016200081E080937C0250E040E066E271E0CE0110
:1016300049960E941A06CE0143960E948505CE0166
:1016400049960E948505C114D10409F4FDCE0E947B
:101650006B02882309F4F4CE0E940000F1CE6AE602
:1016600071E0CE0143960E94DD05882339F0109287
:101670007C0286E791E00E942804D5CF65E871E0FE
:10168000CE0143960E94DD05882389F040913A03FC
:1016900050913B03609136037091370386E892E0E6
:1016A0000E94C10184E291E00E94D703BCCF61E9AE
:1016B00071E0CE0143960E94DD05882359F06091C8
:1016C00032037091330380913403909135030E946B
:1016D0003604A9CF68EA71E0CE0143960E94DD0589
:1016E000882309F452C0BE01675E7F4FCE010D967C
:1016F0000E944506BE01635F7F4FCE0101960E94A6
:101700004506BE016F5F7F4FCE0107960E94CF0650
:10171000CE0101960E948505CE0107960E947A05AA
:1017200060933203709333038093340390933503B3
:101730001F8E18A219A21AA2BE01615E7F4F84E01B
:1017400090E00E945405CE0107960E947A059B0105
:10175000AC016F8D78A189A19AA10E94D70E882330
:1017600079F0CE0107960E947A0569837A838B838C
:101770009C83BE016F5F7F4F84E090E00E947407FE
:101780008FEB91E00E94280460C066ED71E0CE010D
:1017900043960E94DD05882309F460C0BE01675EA0
:1017A0007F4FCE010D960E944506BE01635F7F4FBD
:1017B000CE0101960E944506BE016F5F7F4FCE01AC
:1017C00007960E94CF06CE0101960E948505CE01A4
:1017D00007960E947A054B015C0182E30E94570341
:1017E00040902E0350902F0360903003709031038F
:1017F00064197509860997090E94DE0EA5019401F6
:101800000E94D21023EC35EF4CE151E40E94D2103B
:1018100069837A838B839C83609332037093330351
:101820008093340390933503BE016F5F7F4F84E054
:1018300090E00E94740780EE91E00E94D7036981D6
:101840007A818B819C810E943604CE0107960E948A
:101850008505CE010D960E948505E5CE60EF71E00D
:10186000CE0143960E94DD05882359F060912E0336
:1018700070912F0380913003909131030E940005F5
:10188000D2CE69EF71E0CE0143960E94DD05882338
:1018900009F455C0BE01675E7F4FCE010D960E94D0
:1018A0004506BE01635F7F4FCE0101960E9445064B
:1018B000BE016F5F7F4FCE0107960E94CF06CE011B
:1018C00001960E9485058F8198850097A1F10E945D
:1018D0002A0D6F8F78A389A39AA360932E03709328
:1018E0002F03809330039093310319821A821B8255
:1018F0001C82BE016F5F7F4F90E080E00E942E054A
:1019000049815A816B817C818F8D98A1A9A1BAA14F
:10191000481759076A077B0759F0BE01615E7F4F80
:1019200090E080E00E94410782E092E00E9428045B
:101930008AE092E027CF60E070E0CB01CACF64EF8D
:1019400071E0CE0143960E94DD058823F9F082E321
:101950000E9457030E94DE0E0E94441160932E03E2
:1019600070932F03809330039093310369837A83BC
:101970008B839C83BE016F5F7F4F90E080E00E946D
:10198000410783E192E00E94D70370CF6EE172E0DD
:10199000CE0143960E94DD05882309F445C0BE01AF
:1019A000675E7F4FCE010D960E944506BE01635FC4
:1019B0007F4FCE0101960E944506BE016F5F7F4FAB
:1019C000CE0107960E94CF06CE0101960E948505A2
:1019D0008F819885812C912C5401009721F00E94D1
:1019E0002A0D4B015C0186E292E00E94D7034AE097
:1019F000C501B4010E94E40383E392E00E9428043D
:101A000086E892E00E94EE02C501B4010E94AB009C
:101A100088E392E00E94D7034AE0C501B4010E9426
:101A2000E40383E392E0AECE67E472E0CE01439636
:101A30000E94DD05882319F08FE592E01CCE84E634
:101A400092E019CE86E393E00C948505662777270C
:101A50000C94660D1F93FC0199278827BC01E8941C
:101A600011911032E9F3193010F01E30C8F31B3217
:101A700051F01D3249F4689406C00E94510D610F67
:101A8000711D811D911D119110531A30B0F33EF458
:101A900090958095709561957F4F8F4F9F4F1F91C7
:101AA0000895592F482F372F262F660F771F881F2D
:101AB000991F660F771F881F991F620F731F841F5E
:101AC000951F660F771F881F991F0895B0E0A0E04B
:101AD000ECE6FDE00C9425105C017B0161157105BD
:101AE00019F0DB018D939C9385010F5F1F4FF5016A
:101AF000D0818D2F90E00E94B60E6C01892BB9F534
:101B0000DD32B9F50F5F1F4FD5011196DC91C1E0B1
:101B10005801F1E0AF1AB10843E050E060E770E02F
:101B2000C5010E94BF0E892B69F5680182E0C80ECD
:101B3000D11C45E050E06BE670E0C6010E94BF0E8C
:101B4000892B21F4680197E0C90ED11CE114F1043E
:101B500019F0D701CD92DC9260E070E080E89FEF51
:101B6000C111FFC060E070E080E89FE7FAC0580153
:101B7000BBCFDB3229F485010E5F1F4FF501D18108
:101B8000C0E0C6CF43E050E068E670E0C5010E94C7
:101B9000BF0E892BE9F0F80110E000E020E030E012
:101BA000A9015F01B0ED8B2E8D0E89E08815C8F17B
:101BB0009C2E689491F88C2F8870C2FF16C08111FA
:101BC00002C00F5F1F4F3196D501DC91C92DE9CFBF
:101BD000E114F10429F00E5F1F4FF7011183008318
:101BE00060E070E080EC9FE7BCC0882311F00150FA
:101BF0001109A5E0B0E00E9414109B01AC01220F76
:101C0000331F441F551F280D311D411D511D2839FB
:101C100099E93907490799E15907A8F2C6609C2E4E
:101C2000D2CFAEEF8A1206C0C3FD3CC09C2E689492
:101C300093F8C9CFDF7DD534A9F580818D3239F491
:101C4000C061DF011296818162E070E006C0DF01B1
:101C50008B32C1F3119661E070E080535D01A61AEA
:101C6000B70A8A30F8F4E0E8CE16ECE0DE065CF461
:101C7000B601660F771F660F771FC60ED71ECC0CF6
:101C8000DD1CC80ED11C5D01FFEFAF1ABF0A8C919D
:101C900080538A30A8F1C4FF03C0D194C194D10805
:101CA0000C0D1D1DC1FF09C0E114F10431F081E0EC
:101CB000A81AB108D701AD92BC92CA01B9010E941D
:101CC000DC0EC370C33009F490584B015C0120E076
:101CD00030E0A9010E94D70E882309F440C0CFE963
:101CE000D0E017FF05C0119501951109C7E8D0E0B4
:101CF0006E01B8E1CB1AD10880E2E82EF12C0FC0BA
:101D0000D501B1CFFE0125913591459154910E1920
:101D10001F09C501B4010E943D0F4B015C01D501B3
:101D2000C4010E151F0574F72497F594E794CC169B
:101D3000DD06A9F78A2F880F8B2F881F8F3F49F068
:101D400020E030E0A901C501B4010E94D70E811145
:101D500006C082E290E090933D0380933C03C5016E
:101D6000B401CDB7DEB7ECE00C94411091110C94A6
:101D7000AA0F803219F089508550C8F70895FB01E9
:101D8000DC014150504088F08D9181341CF08B353E
:101D90000CF4805E659161341CF06B350CF4605E70
:101DA000861B611171F3990B0895881BFCCF0E946B
:101DB000190F08F481E00895E89409C097FB3EF4F8
:101DC00090958095709561957F4F8F4F9F4F992388
:101DD000A9F0F92F96E9BB279395F6958795779506
:101DE0006795B795F111F8CFFAF4BB0F11F460FFC6
:101DF0001BC06F5F7F4F8F4F9F4F16C0882311F01E
:101E000096E911C0772321F09EE8872F762F05C031
:101E1000662371F096E8862F70E060E02AF09A95CC
:101E2000660F771F881FDAF7880F9695879597F9C1
:101E30000895990F0008550FAA0BE0E8FEEF16165B
:101E40001706E807F907C0F012161306E407F507AE
:101E500098F0621B730B840B950B39F40A2661F022
:101E6000232B242B252B21F408950A2609F4A140C5
:101E7000A6958FEF811D811D08950E94500F0C942F
:101E8000C40F0E94B60F38F00E94BD0F20F09523BA
:101E900011F00C94AD0F0C94B30F11240C94F80FA7
:101EA0000E94D50F70F3959FC1F3950F50E0551F19
:101EB000629FF001729FBB27F00DB11D639FAA279F
:101EC000F00DB11DAA1F649F6627B00DA11D661FEE
:101ED000829F2227B00DA11D621F739FB00DA11D0F
:101EE000621F839FA00D611D221F749F3327A00DC9
:101EF000611D231F849F600D211D822F762F6A2F65
:101F000011249F5750409AF0F1F088234AF0EE0FC9
:101F1000FF1FBB1F661F771F881F91505040A9F7F6
:101F20009E3F510580F00C94AD0F0C94F80F5F3F6D
:101F3000E4F3983ED4F3869577956795B795F79532
:101F4000E7959F5FC1F7FE2B880F911D96958795AA
:101F500097F9089599278827089597F99F6780E84A
:101F600070E060E008959FEF80EC089500240A94EB
:101F70001616170618060906089500240A94121664
:101F80001306140605060895092E0394000C11F497
:101F9000882352F0BB0F40F4BF2B11F460FF04C044
:101FA0006F5F7F4F8F4F9F4F089557FD9058440F9D
:101FB000551F59F05F3F71F04795880F97FB991FA8
:101FC00061F09F3F79F08795089512161306140665
:101FD000551FF2CF4695F1DF08C0161617061806F2
:101FE000991FF1CF86957105610508940895E894CD
:101FF000BB2766277727CB0197F90895F999FECF7C
:1020000092BD81BDF89A992780B50895262FF99938
:10201000FECF1FBA92BD81BD20BD0FB6F894FA9ACB
:10202000F99A0FBE019608950E945610A59F900D33
:10203000B49F900DA49F800D911D112408952F929F
:102040003F924F925F926F927F928F929F92AF9248
:10205000BF92CF92DF92EF92FF920F931F93CF9395
:10206000DF93CDB7DEB7CA1BDB0B0FB6F894DEBF2C
:102070000FBECDBF09942A88398848885F846E8452
:102080007D848C849B84AA84B984C884DF80EE809C
:10209000FD800C811B81AA81B981CE0FD11D0FB6A5
:1020A000F894DEBF0FBECDBFED010895A29FB00131
:1020B000B39FC001A39F700D811D1124911DB29F7C
:1020C000700D811D1124911D08955058BB27AA271A
:1020D0000E947D100C94C40F0E94B60F38F00E942D
:1020E000BD0F20F039F49F3F19F426F40C94B30F80
:1020F0000EF4E095E7FB0C94AD0FE92F0E94D50F8D
:1021000058F3BA17620773078407950720F079F42C
:10211000A6F50C94F70F0EF4E0950B2EBA2FA02D18
:102120000B01B90190010C01CA01A0011124FF2784
:10213000591B99F0593F50F4503E68F11A16F0407F
:10214000A22F232F342F4427585FF3CF469537957E
:102150002795A795F0405395C9F77EF41F16BA0B43
:10216000620B730B840BBAF09150A1F0FF0FBB1FF1
:10217000661F771F881FC2F70EC0BA0F621F731F3A
:10218000841F48F4879577956795B795F7959E3F97
:1021900008F0B0CF9395880F08F09927EE0F979528
:1021A000879508950E94E6100C94C40F0E94BD0FFD
:1021B00058F00E94B60F40F029F45F3F29F00C94CC
:1021C000AD0F51110C94F80F0C94B30F0E94D50F62
:1021D00068F39923B1F3552391F3951B550BBB2756
:1021E000AA2762177307840738F09F5F5F4F220F9B
:1021F000331F441FAA1FA9F335D00E2E3AF0E0E892
:1022000032D091505040E695001CCAF72BD0FE2FDB
:1022100029D0660F771F881FBB1F2617370748076F
:10222000AB07B0E809F0BB0B802DBF01FF27935827
:102230005F4F3AF09E3F510578F00C94AD0F0C942F
:10224000F80F5F3FE4F3983ED4F386957795679552
:10225000B795F7959F5FC9F7880F911D969587955C
:1022600097F90895E1E0660F771F881FBB1F62177B
:1022700073078407BA0720F0621B730B840BBA0B39
:10228000EE1F88F7E09508950E944B116894B111F4
:102290000C94F80F08950E94DD0F88F09F5798F076
:1022A000B92F9927B751B0F0E1F0660F771F881F5B
:1022B000991F1AF0BA95C9F714C0B13091F00E9475
:1022C000F70FB1E008950C94F70F672F782F882748
:1022D000B85F39F0B93FCCF3869577956795B3959C
:1022E000D9F73EF490958095709561957F4F8F4F0B
:1022F0009F4F08950E94190F08F48FEF08950E94D0
:10230000190F880B990B0895A1E21A2EAA1BBB1B6B
:10231000FD010DC0AA1FBB1FEE1FFF1FA217B307B1
:10232000E407F50720F0A21BB30BE40BF50B661FC7
:10233000771F881F991F1A9469F76095709580958B
:1023400090959B01AC01BD01CF010895052E97FB2F
:102350001EF400940E94BD1157FD07D00E94841105
:1023600007FC03D04EF40C94BD1150954095309568
:1023700021953F4F4F4F5F4F0895909580957095F1
:1023800061957F4F8F4F9F4F0895EE0FFF1F059070
:10239000F491E02D09940F931F93CF93DF93823034
:1023A000910510F482E090E0E0914003F091410348
:1023B00030E020E0B0E0A0E0309799F4211531053D
:1023C00009F44AC0281B390B24303105D8F58A811D
:1023D0009B816115710589F1FB0193838283FE0165
:1023E00011C0408151810281138148175907E0F0E3
:1023F0004817590799F4109761F012960C931297A9
:1024000013961C933296CF01DF91CF911F910F91BC
:1024100008950093400310934103F4CF2115310533
:1024200051F04217530738F0A901DB019A01BD01B1
:10243000DF01F801C1CFEF01F9CF90934103809301
:102440004003CDCFFE01E20FF31F81939193225001
:10245000310939832883D7CF20913E0330913F0340
:10246000232B41F4209106013091070130933F0363
:1024700020933E032091040130910501211531057F
:1024800041F42DB73EB74091080150910901241B3A
:10249000350BE0913E03F0913F03E217F307A0F400
:1024A0002E1B3F0B2817390778F0AC014E5F5F4FAA
:1024B0002417350748F04E0F5F1F50933F0340939A
:1024C0003E03819391939FCFF0E0E0E09CCFCF93C8
:1024D000DF930097E9F0FC01329713821282A091FA
:1024E0004003B0914103ED0130E020E01097A1F4EA
:1024F00020813181820F931F20913E0330913F0351
:102500002817390709F061C0F0933F03E0933E03B9
:10251000DF91CF910895EA01CE17DF07E8F54A81F0
:102520005B819E0141155105B1F7E901FB83EA8307
:1025300049915991C40FD51FEC17FD0761F48081B3
:1025400091810296840F951FE90199838883828186
:1025500093819B838A83F0E0E0E012968D919C91B9
:1025600013970097B9F52D913C911197CD010296E3
:10257000820F931F20913E0330913F0328173907A4
:1025800039F6309751F51092410310924003B09301
:102590003F03A0933E03BCCFD383C28340815181CC
:1025A000840F951FC817D90761F44E5F5F4F88816C
:1025B0009981480F591F518340838A819B8193835E
:1025C00082832115310509F0B0CFF0934103E093E8
:1025D00040039ECFFD01DC01C0CF13821282D7CF12
:1025E000B0E0A0E0E6EFF2E10C9421108C0100973E
:1025F00051F4CB010E94CB118C01C801CDB7DEB7DD
:10260000E0E10C943D10FC01E60FF71F9C01225005
:102610003109E217F30708F49DC0D901CD91DC918F
:102620001197C617D70798F0C530D10530F3CE0102
:1026300004978617970708F3C61BD70B2297C193F9
:10264000D1936D937C93CF010E946712D6CF5B012B
:10265000AC1ABD0A4C018C0E9D1EA0914003B09196
:102660004103512C412CF12CE12C109731F5809134
:102670003E0390913F038815990509F05CC046160A
:10268000570608F058C08091040190910501009709
:1026900041F48DB79EB74091080150910901841B08
:1026A000950BE817F90708F055C0F0933F03E09346
:1026B0003E03F90171836083A0CF8D919C911197A6
:1026C00012966C90129713967C901397A815B905E3
:1026D00059F56C0142E0C40ED11CCA14DB0420F190
:1026E000AC014A195B09DA011296159780F06282F3
:1026F000738251834083D9016D937C93E114F1047B
:1027000071F0D7011396FC93EE93129776CF229631
:102710008C0F9D1FF90191838083F301EFCFF0931C
:102720004103E093400369CF4816590608F42C0191
:102730007D01D3019ACFCB010E94CB117C01009780
:1027400049F0AE01B8010E94AD13C8010E946712A2
:10275000870153CF10E000E050CFFB01DC0102C045
:1027600001900D9241505040D8F70895FB01DC01D3
:102770008D91019080190110D9F3990B0895FB01F7
:10278000DC0101900D920020E1F70895FB015191C9
:102790005523A9F0BF01DC014D9145174111E1F727
:1027A00059F4CD010190002049F04D91401541119F
:1027B000C9F3FB014111EFCF81E090E0019708954B
:1027C00010E0C0E8D0E004C0FE010E94C5112196CF
:0A27D000C138D107C9F7F894FFCF14
:1027DA00C001C00100004203800000000000A10205
:1027EA00C101EE01EE025F02FD015102000000008C
:1027FA000E038D050D0A006E616E00696E66006F2C
:10280A007666003B00466F7263655F53656E736F51
:10281A00722D302E3600520073746172745F6361D8
:10282A007074757265005374617274696E6720639F
:10283A006170747572652E2E2E00656E645F636119
:10284A007074757265004361707475726520656E87
:10285A006465643A006765745F76657273696F6E62
:10286A00006765745F63616C6962726174696F6E37
:10287A005F666163746F72007365745F63616C692C
:10288A0062726174696F6E5F666163746F7200432E
:10289A00616C6962726174696F6E20666163746FDC
:1028AA0072207365740063616C6962726174650099
:1028BA0043616C6962726174696E67204F4B3A00BA
:1028CA006765745F74617265007365745F746172C1
:1028DA006500757064617465640054617265207383
:1028EA00657400546172696E67204F4B3A007365D4
:1028FA00745F6270730073657474696E6720746FB5
:10290A003A20002062707300537065656420736515
:10291A007420746F3A20006765745F7472616E7315
:10292A006D697373696F6E5F666F726D617400743F
:10293A00657874004E6F7420612076616C6964203A
:08294A00636F6D6D616E6400A6
:00000001FF
