:020000040000FA
:0800000000008A150A16882E83
:103D00008A150A16802E8A018A150A16832E00004B
:103D1000031E832E8316873086008312860190301F
:103D200098008316181598161F30990083120330D7
:103D3000FA00313090000C14F126EA3A031DB42E3B
:103D4000FA01BB2EF126F900E33A0319BD2E7908DA
:103D5000EA3A0319BB2E7908ED3A031DA22EE4308E
:103D6000EC260330FA00F1269001980183169801A1
:103D700083128C01832EEB30EA2EF126F600F12619
:103D8000F500F126F100FB00F126F300F2012130ED
:103D90008312031376020319D62E75080339FC002B
:103DA000FD000310FC0D20307C07D72E203084004E
:103DB000F1268000F207840AFB0BD82E72087306E6
:103DC000E830031DEA2EE730EC2603270038E43004
:103DD0000319E530EC26A22E64000C1EEC2E99008F
:103DE000080064007A080319FF2E0C1CFF2E101027
:103DF000FA0BFB2E00340C100B308F0010148C1EAD
:103E0000F12E1A080800213076020319552F831667
:103E100003178C17831203137508FC3903178D00E1
:103E20000313760803178F002030840003137D08E6
:103E300003192D2F831603170C14000000008312A2
:103E40000E088000840A0C088000840A8D0A03137F
:103E5000FD03F503F10AF10A162F7108FC00203E5C
:103E600084000310FC0C760803178F0003137508F9
:103E700003178D0003137C0803178D0703198F0A9E
:103E800003170D0803390319552F83160C1400006E
:103E9000000083120E088000840A0C088000840A47
:103EA0008D0A0313F10AF10A402F7508F70076080E
:103EB000F800FB010230F40071087B0203180134A2
:103EC0007B08203E840021307802031783160319F3
:103ED000732F8C1783011E3078028030031977020C
:103EE0000318BB2F752F8C138301770803178D00E0
:103EF00003137808031D8A2F0430770203188A2FD2
:103F0000031783168C1F872F831284308D0783013C
:103F10001E308B2F780803178F0000088E00840A4C
:103F200000088C0083160C1555308D00AA308D00CA
:103F30008C14000000008301831603178C1BC32F11
:103F40008312031364000D1EA22F0D128316031794
:103F50000C110C14000000008312840300080E06EC
:103F6000031DB72F840A00080C060319BB2F830119
:103F7000F40B5C2F0034831203130230FB07F70AA3
:103F80000319F80A5A2F831203130D12831603170D
:103F90000C11831203170D080339033C031DBB2FBB
:103FA00003308D02831203130430FC0007308402B7
:103FB0000000831603170C1400000000000000002E
:103FC000000000000008831203170E06031DED2FEA
:103FD000840A00080C060319F42F83120313FC3023
:103FE000F7050630FB02B72F831203178D0A840AE8
:0A3FF00083120313FC0BD82FBB2F24
:084000000200010000000000B5
:02400E00323F3F
:00000001FF
