:0800000000008A110A12972981
:06000A008D216730831612
:100010008600831286017421872183120313B500A1
:10002000413A031942283508423A03194028350855
:10003000433A031946283508443A03193E2835083F
:10004000493A03193A2835084A3A03194A28350823
:10005000503A031938283508523A0319442835080C
:10006000543A03193C283508573A031948280C28F4
:10007000E2200C28D9200C28CD200C28BA200C28EE
:10008000B5200C28B0200C28A2200C2899200C2880
:1000900084200C284D200C2808008721831203138C
:1000A000B200872183120313B30000303304031915
:1000B0005C280130B4005D28B40100303404031919
:1000C0006F28FF30B4000630102183120313B40BE5
:1000D00063280630102183120313B3035528003020
:1000E0003204031976280130B3007728B3010030B9
:1000F0003304031981280630102183120313B2033D
:100100006F284A3079210800872183120313B00039
:10011000872183120313B1000230102183120313CD
:100120003008FF003108FA200830102157307921BB
:100130000800003010210030FF000030FA2043306A
:100140007921080004301021E520523079218312F2
:100150000313200879218312031321087921080051
:10016000063010214130792108000830102142303A
:1001700079210800872183120313AE00872183129F
:100180000313AF0002301021831203132E08FF0067
:100190002F08FA204430792108001030831203130D
:1001A00086000230612183120313860154307921C5
:1001B00008004930792140307921303079211230DE
:1001C000792108004F307921080083160313861720
:1001D0000130272108302721A00007302721A10066
:1001E0000310210CAD003F302D05A1008316031331
:1001F0008601080083120313AB007F08AC000130B6
:10020000FF00003044210830FF00831203132C0844
:1002100044210730FF00831203132B0844210800F8
:1002200083120313AA00F0308312031386050630ED
:10023000FF00831203132A08442183120313861735
:10024000FF3085008501FF3085008501080083129D
:100250000313A700A801A9012708290203184229AE
:100260000310A80C831203138615F0308605861B35
:100270003D2983120313A813402983120313A817DF
:10028000A90A2C292808080083120313A4007F0858
:10029000A500A60125082602031860292418542960
:1002A00083120313861357298312031386178615A7
:1002B000F0308605031083120313A40CA60A4A2902
:1002C000080083120313A3000030230403197329C9
:1002D0003D308312031381000B110B1D6D29831216
:1002E0000313A303642908008730831603138100D6
:1002F000080083120313A200831203130C1E7C292F
:100300008312031322088312031399000800831237
:1003100003138C1E87291A080800813083160313E3
:1003200099002430980090308312980008008A11B8
:040330000A12052880
:00000001FF
