:10000000830100308A00042883168130990024304F
:100010009800831290309800831686108312023065
:1000200086004820A00050302002031924284930BF
:100030002002031927284C3020020319302853309E
:1000400020020319382811284F304C20112849303C
:100050004C2020304C2030304C2010304C201128C7
:100060003E200008A3004C304C2023084C201128CF
:100070003E204820800053304C2011284820840026
:100080004820A10021184628831347288317080019
:100090008C1E48281A0808000C1E4C2899000800DD
:00000001FF
