:1000000000008A110A120729F200030E83018312ED
:100010000313F1000A08F0008A010B11003083126B
:1000200003132B04031D202829082A058312031318
:100030008600EA308100013083120313AB0062288E
:100040002B08013A031D39282808203EAF00003054
:100050000318013EB0002F08840083133018831763
:100060000008831203138100023083120313AB00D4
:1000700062282B08023A031D6128831203138601AC
:10008000831203132808203EAF0000300318013EFE
:10009000B0002F0884008313301883170008523CE7
:1000A00083120313810083120313AB010310A90D04
:1000B000A80A00302904031D62280130A900A80104
:1000C0006228AB018312031370088A008301710E4A
:1000D0008300F20E720E09008316031386010230AC
:1000E0008312860083120313B4010830340203180C
:1000F00089283408203EB50000300318013EB600C0
:1001000035088400831336188317B0308000B40A92
:100110007528AA01A801AB010130A900FD20DF204C
:10012000F72083120313B400453A0319AA283408B0
:10013000493A0319A6283408503A0319A428340868
:10014000573A0319A8289028DC209028D32090281B
:10015000B2209028AD2090280800F72083120313C6
:10016000AA000800F72083120313AC00F7208312C3
:100170000313B10099303102031CC0289930B1003B
:100180002C03B200203EB20000300318013EB30041
:100190003108FF3CB1003208840083133318831701
:1001A0003108800008004930E9203030E920303043
:1001B000E9201130E92008004F30E920080005301F
:1001C0008316031381000B118B168B178312810189
:1001D000080083120313AE00831203130C1EEC28D5
:1001E000831203132E08831203139900080083124D
:1001F00003138C1EF7281A08080081308316031396
:1002000099002430980090308312980008008A11D9
:040210000A126C283A
:00000001FF
