:1000000000008A110A120F2AF200030E8301F10088
:100010000A088A01F000040883120313CA0083123D
:100020000313AC01831203130B1D1928831203134E
:10003000AC0A831203132C08013A031D30288312E3
:1000400003130B118312031343088312031381005C
:10005000003083120313330403199728B30397283E
:1000600083120313AC01831203130B1C3A2883126F
:100070000313AC0A831203132C08013A031D7E28D4
:10008000831203133A08013A031D50288312031305
:10009000B201831203138F018E0183120313BA017D
:1000A00083120313320883120313B4008312031361
:1000B0000F0883120313B500831203130E08831273
:1000C0000313B60083120313B201831203138F01CB
:1000D0008E0183120313440883120313B3008312A7
:1000E0000313460883120313B90083120313430852
:1000F0008312031381000B108B11972883120313B3
:10010000AC01831203130C1C882883120313AC0A5E
:10011000831203132C08013A031D9728831203133B
:100120000C10831203133208FF3A031DB20A831224
:1001300003134A08840070088A008301710E83004B
:10014000F20E720E09001130831603138600073079
:1001500081000422831203130B118312031343083B
:100160008312031381003130900083120313B20114
:10017000831203138F018E01831603130C14DB21EA
:10018000B52183120313B2018312031344088312AF
:100190000313B30083120313450883120313B9003A
:1001A000013083120313BA00CF2183120313B70067
:1001B000BA21831203138B160B178B17640083125B
:1001C0000313AF01831203138C1EE9288312031358
:1001D000AF0A831203132F08013A031D0929FE21D8
:1001E00083120313BD008312031341088312031308
:1001F0003D06031DFD28A621092983120313490882
:10020000831203133D06031D0929831203134908B2
:10021000F0218312031345088312031339060319CF
:10022000DE28831203134608831203133906031DC5
:100230007B290030831203133304031DDE2883124D
:1002400003130B10CF2183120313B800831203137F
:100250003708831203133806031D6E298312031314
:100260003608831203138E0783120313AF01831220
:100270000313031C3E2983120313AF0A83120313D3
:100280002F08013A031D4729831203138F0A831293
:1002900003133508831203138F0783120313AF016F
:1002A00083120313031C572983120313AF0A83120B
:1002B00003132F08013A031D602983120313B20AA6
:1002C00083120313340883120313B2078312031338
:1002D000450883120313B900B521DE2883120313E6
:1002E000380883120313B7008312031347088312DD
:1002F0000313B900DE288312031347088312031384
:100300003906031DDE28831203134008F0218312EF
:1003100003133708F021831203133408F0218312EA
:1003200003133508F021831203133608F0218312DA
:100330000313450883120313B900BA21B521DE283F
:10034000080083120313FF30870008008312031391
:100350008B11831203134208F02183120313370811
:10036000F021831203138B150800831203130B1063
:100370008B1508008312031337080030031901306E
:1003800083120313AD002D0C0318C9298312031324
:100390008610031CCE2983120313861408008312CF
:1003A0000313061AD729831203133F08DA2983128D
:1003B00003133E08080083120313AD01FF308312BC
:1003C00003132D020318EF296400FF308312031377
:1003D000AE0083120313AE0BE929AD0ADE29080033
:1003E00083120313AD00831203130C1EF32983122F
:1003F00003132D08831203139900080083120313BB
:100400008C1EFE291A080800193083160313990060
:100410002430980090308312031398000800A33012
:10042000FE000230FF0080308A110A1206238A1172
:100430000A1283120313A1007F08A000A530A200B6
:100440000230A300831203132008A4002108A50092
:10045000FF30A007031CA1032408250403199F2AC9
:1004600004302207A400A501A50D2308A507240830
:10047000FE002508FF0080308A110A1206238A1127
:100480000A1283120313A7007F08A6002208FE00A9
:100490002308FF0080308A110A1206238A110A12EB
:1004A00083120313A900A5007F08A800A40002304E
:1004B0002207A400A501A50D2308A5072408FE0016
:1004C0002508FF0080308A110A1206238A110A12B9
:1004D00083120313A500AB007F08A400AA008312B7
:1004E00003132608AA002708AB00FF30A607031C49
:1004F000A7032A082B040319982A2808FE002908B4
:10050000FF0080308A110A12F3228A110A12831224
:100510000313AA00240884008313251883172A08CC
:100520008000A80A0319A90AA40A0319A50A6F2AB8
:10053000063083120313A2070318A30A222A8A1182
:100540000A12A32808000D340034273403343E3443
:10055000003401340034283403343F34003401348F
:1005600000342934033440340034013400342A3454
:10057000033441340034013400342B340334423426
:100580000034013400342C34033443340034013457
:1005900000342D34033444340034013400342E3418
:1005A000033445340034013400342F3403344634EA
:1005B000003401340034303403344734003401341F
:1005C00000343134033448340034013400343234DC
:1005D00003344934003401340034333403344B34AD
:1005E000003401340034003A0319FA2A803A03191E
:1005F000012B00347E08840083137F1883170008C2
:1006000008007F088A007E0882000800003A03196B
:100610000E2B803A0319182BFF0100347E0884004A
:1006200083137F1883170008FF00840A000808005E
:100630008A110A120123FD00FE0FFF03FF0A8A112F
:100640000A120123FC007D08FF007C08080000342A
:100650000134583445344534D93405340034013438
:08066000023400344A34003476
:00000001FF
